{"_format":"hh-sol-artifact-1","contractName":"ERC20BalanceRetriever","sourceName":"src/ERC20BalanceRetriever.sol","abi":[{"inputs":[{"internalType":"bytes","name":"_address","type":"bytes"},{"internalType":"bytes","name":"args","type":"bytes"},{"internalType":"uint256","name":"timestamp","type":"uint256"}],"name":"getAddressBalance","outputs":[{"internalType":"uint256","name":"","type":"uint256"}],"stateMutability":"view","type":"function"},{"inputs":[],"name":"getAssetType","outputs":[{"internalType":"bytes32","name":"","type":"bytes32"}],"stateMutability":"pure","type":"function"}],"bytecode":"0x608060405234801561001057600080fd5b506102c2806100206000396000f3fe608060405234801561001057600080fd5b50600436106100365760003560e01c8063260c4cc61461003b578063896317b814610060575b600080fd5b61004e6100493660046101d6565b610086565b60405190815260200160405180910390f35b7f8ae85d849167ff996c04040c44924fd364217285e4cad818292c7ac37c0a345b61004e565b6000808380602001905181019061009d9190610243565b9050806001600160a01b03166370a08231868060200190518101906100c29190610243565b6040516001600160e01b031960e084901b1681526001600160a01b039091166004820152602401602060405180830381865afa158015610106573d6000803e3d6000fd5b505050506040513d601f19601f8201168201806040525081019061012a9190610273565b95945050505050565b634e487b7160e01b600052604160045260246000fd5b600082601f83011261015a57600080fd5b813567ffffffffffffffff8082111561017557610175610133565b604051601f8301601f19908116603f0116810190828211818310171561019d5761019d610133565b816040528381528660208588010111156101b657600080fd5b836020870160208301376000602085830101528094505050505092915050565b6000806000606084860312156101eb57600080fd5b833567ffffffffffffffff8082111561020357600080fd5b61020f87838801610149565b9450602086013591508082111561022557600080fd5b5061023286828701610149565b925050604084013590509250925092565b60006020828403121561025557600080fd5b81516001600160a01b038116811461026c57600080fd5b9392505050565b60006020828403121561028557600080fd5b505191905056fea264697066735822122037d96d032b634c68843b702ca1dea5b61aa2bf9c24f536ce38eb466294e258e064736f6c63430008120033","linkReferences":{},"deployedLinkReferences":{}}