{"_format":"hh-sol-artifact-1","contractName":"ETHBalanceRetriever","sourceName":"src/ETHBalanceRetriever.sol","abi":[{"inputs":[{"internalType":"bytes","name":"_address","type":"bytes"},{"internalType":"bytes","name":"args","type":"bytes"},{"internalType":"uint256","name":"timestamp","type":"uint256"}],"name":"getAddressBalance","outputs":[{"internalType":"uint256","name":"","type":"uint256"}],"stateMutability":"view","type":"function"},{"inputs":[],"name":"getAssetType","outputs":[{"internalType":"bytes32","name":"","type":"bytes32"}],"stateMutability":"pure","type":"function"}],"bytecode":"0x608060405234801561001057600080fd5b50610224806100206000396000f3fe608060405234801561001057600080fd5b50600436106100365760003560e01c8063260c4cc61461003b578063896317b814610060575b600080fd5b61004e610049366004610151565b610086565b60405190815260200160405180910390f35b7faaaebeba3810b1e6b70781f14b2d72c1cb89c0b2b320c43bb67ff79f562f5ff461004e565b60008380602001905181019061009c91906101be565b6001600160a01b031631949350505050565b634e487b7160e01b600052604160045260246000fd5b600082601f8301126100d557600080fd5b813567ffffffffffffffff808211156100f0576100f06100ae565b604051601f8301601f19908116603f01168101908282118183101715610118576101186100ae565b8160405283815286602085880101111561013157600080fd5b836020870160208301376000602085830101528094505050505092915050565b60008060006060848603121561016657600080fd5b833567ffffffffffffffff8082111561017e57600080fd5b61018a878388016100c4565b945060208601359150808211156101a057600080fd5b506101ad868287016100c4565b925050604084013590509250925092565b6000602082840312156101d057600080fd5b81516001600160a01b03811681146101e757600080fd5b939250505056fea2646970667358221220c10176593ea4838ad2b27beeb3819db35957264f3e519491dc024448962d95a264736f6c63430008120033","linkReferences":{},"deployedLinkReferences":{}}