{"_format":"hh-sol-artifact-1","contractName":"EVMAddressVerifier","sourceName":"src/EVMAddressVerifier.sol","abi":[{"inputs":[],"name":"getAddressType","outputs":[{"internalType":"bytes32","name":"","type":"bytes32"}],"stateMutability":"pure","type":"function"},{"inputs":[{"internalType":"bytes","name":"cexAddress","type":"bytes"},{"internalType":"bytes","name":"addressOwnershipProof","type":"bytes"}],"name":"verifyAddressOwnership","outputs":[{"internalType":"bool","name":"","type":"bool"}],"stateMutability":"pure","type":"function"}],"bytecode":"0x608060405234801561001057600080fd5b50610571806100206000396000f3fe608060405234801561001057600080fd5b50600436106100365760003560e01c806329acc2d51461003b578063f9f207ef14610063575b600080fd5b61004e610049366004610491565b610091565b60405190151581526020015b60405180910390f35b6040517f9c73caa427dcc7a3ba321dd9ec93943758502b982786658421fd1e094bf2b5f3815260200161005a565b600080838060200190518101906100a891906104f5565b9050600061015684610150604051602001610107906020808252602a908201527f53756d6d612070726f6f66206f6620736f6c76656e637920666f722043727970604082015269746f45786368616e676560b01b606082015260800190565b604051602081830303815290604052805190602001207f19457468657265756d205369676e6564204d6573736167653a0a3332000000006000908152601c91909152603c902090565b9061016f565b6001600160a01b03928316921691909114949350505050565b600080600061017e8585610193565b9150915061018b816101d8565b509392505050565b60008082516041036101c95760208301516040840151606085015160001a6101bd8782858561032a565b945094505050506101d1565b506000905060025b9250929050565b60008160048111156101ec576101ec610525565b036101f45750565b600181600481111561020857610208610525565b0361025a5760405162461bcd60e51b815260206004820152601860248201527f45434453413a20696e76616c6964207369676e6174757265000000000000000060448201526064015b60405180910390fd5b600281600481111561026e5761026e610525565b036102bb5760405162461bcd60e51b815260206004820152601f60248201527f45434453413a20696e76616c6964207369676e6174757265206c656e677468006044820152606401610251565b60038160048111156102cf576102cf610525565b036103275760405162461bcd60e51b815260206004820152602260248201527f45434453413a20696e76616c6964207369676e6174757265202773272076616c604482015261756560f01b6064820152608401610251565b50565b6000807f7fffffffffffffffffffffffffffffff5d576e7357a4501ddfe92f46681b20a083111561036157506000905060036103e5565b6040805160008082526020820180845289905260ff881692820192909252606081018690526080810185905260019060a0016020604051602081039080840390855afa1580156103b5573d6000803e3d6000fd5b5050604051601f1901519150506001600160a01b0381166103de576000600192509250506103e5565b9150600090505b94509492505050565b634e487b7160e01b600052604160045260246000fd5b600082601f83011261041557600080fd5b813567ffffffffffffffff80821115610430576104306103ee565b604051601f8301601f19908116603f01168101908282118183101715610458576104586103ee565b8160405283815286602085880101111561047157600080fd5b836020870160208301376000602085830101528094505050505092915050565b600080604083850312156104a457600080fd5b823567ffffffffffffffff808211156104bc57600080fd5b6104c886838701610404565b935060208501359150808211156104de57600080fd5b506104eb85828601610404565b9150509250929050565b60006020828403121561050757600080fd5b81516001600160a01b038116811461051e57600080fd5b9392505050565b634e487b7160e01b600052602160045260246000fdfea26469706673582212209b3d2826cea761b7220b1270d1a84672fc2e70e4c247c282cdc8bbd20de43a4464736f6c63430008120033","linkReferences":{},"deployedLinkReferences":{}}