{"_format":"hh-sol-artifact-1","contractName":"GrandSumVerifier","sourceName":"src/GrandSumVerifier.sol","abi":[{"inputs":[{"internalType":"address","name":"vk","type":"address"},{"internalType":"bytes","name":"proof","type":"bytes"},{"internalType":"uint256[]","name":"values","type":"uint256[]"}],"name":"verifyProof","outputs":[{"internalType":"bool","name":"","type":"bool"}],"stateMutability":"nonpayable","type":"function"}],"bytecode":"0x608060405234801561001057600080fd5b506104fe806100206000396000f3fe608060405234801561001057600080fd5b506004361061002b5760003560e01c8063af83a18d14610030575b600080fd5b61004361003e36600461040b565b610057565b604051901515815260200160405180910390f35b6000610135565b6020820135838110833585811084169190911691856003818085800985090886828309148316925050509392505050565b8160c0528260e05260006040608080608060065afa9091169392505050565b8160c0526000604060806060608060075afa90911692915050565b81600052826020526102c0516040526102e051606052610300516080526103205160a0528360c0528460e0526103405161010052610360516101205261038051610140526103a05161016052600060206000610180600060085afa600051921690911695945050505050565b7f30644e72e131a029b85045b68181585d97816a916871ca8d3c208c16d87cfd477f30644e72e131a029b85045b68181585d2833e84879b9709143e1f593f00000016001602060406102208b3c6101406101606102808b3c6064356080810660001482169150816101c15773092dcecc2d8d2c840e0e4dedecc40d8cadccee8d60631b60005260206000fd5b6020816064010180356020810283046004148416935083610206577f4e756d626572206f66206576616c756174696f6e206d69736d6174636800000060005260206000fd5b60005b818110156103b15760208102600281026020820185013588610220518209610280516080526102a05160a0528903905061024381896100ae565b881697505086610277577f4661696c656420746f206d756c7469706c79204731206279206d696e75735f7a60005260206000fd5b80600287046084010161028b8a828a61005e565b9750876102c457826000527f436f6d6d69746d656e7420706f696e74206973206e6f7420454320706f696e746020528060405260606000fd5b80359250602001356102d781848a61008f565b97505086610309577f4661696c656420746f20616464204320616e6420675f746f5f6d696e75735f7a60005260206000fd5b6080516102405260a05161026052608401905061032788828861005e565b955085610358577f4f70656e696e6720706f696e74206973206e6f7420454320706f696e7400000060005260206000fd5b803560208201359150610374828261026051610240518b6100c9565b871696505050846103a9577f4661696c656420746f20706572666f726d2070616972696e6720636865636b0060005260206000fd5b600101610209565b505050508060005260206000f35b60008083601f8401126103d157600080fd5b50813567ffffffffffffffff8111156103e957600080fd5b6020830191508360208260051b850101111561040457600080fd5b9250929050565b60008060008060006060868803121561042357600080fd5b85356001600160a01b038116811461043a57600080fd5b9450602086013567ffffffffffffffff8082111561045757600080fd5b818801915088601f83011261046b57600080fd5b81358181111561047a57600080fd5b89602082850101111561048c57600080fd5b6020830196508095505060408801359150808211156104aa57600080fd5b506104b7888289016103bf565b96999598509396509294939250505056fea2646970667358221220318c6c9ebb11e67ace979383e4cfbec7fca0a102ec89df3b690514cac14726e164736f6c63430008120033","linkReferences":{},"deployedLinkReferences":{}}