{"_format":"hh-sol-artifact-1","contractName":"Verifier","sourceName":"src/InclusionVerifier.sol","abi":[{"inputs":[{"internalType":"bytes","name":"proof","type":"bytes"},{"internalType":"uint256[]","name":"instances","type":"uint256[]"}],"name":"verifyProof","outputs":[{"internalType":"bool","name":"","type":"bool"}],"stateMutability":"view","type":"function"}],"bytecode":"0x6080806040523461001657614b95908161001c8239f35b600080fdfe6080604052600436101561001257600080fd5b6000803560e01c631e8e1e131461002857600080fd5b346100a05760403660031901126100a05767ffffffffffffffff6004358181116100a357366023820112156100a35780600401358281116100ab57369101602401116100a7576024358181116100a357366023820112156100a35780600401359182116100a357602490369260051b010111156104b5575b80fd5b8280fd5b5080fd5b8380fd5b9290604080918035956020820135907f30644e72e131a029b85045b68181585d97816a916871ca8d3c208c16d87cfd4780600381808c80098c0908818480091491818410918a10161616968652602086015201920190565b602091600020600080516020614ac0833981519152810682526000520190602090565b602090600182536021600020600080516020614ac0833981519152810682526000520190565b91909182610f2091825190610f40925b601f19810184106102145750600080516020614ac0833981519152809284519009602087526020808801526020604088015260608701527f30644e72e131a029b85045b68181585d2833e84879b9709143e1f593efffffff60808701528160a087015260208660c08160055afa1694805192601f19809201905b80610f40106101fa5750505080610f4051830991835190099152610f4052565b8280918580855189099782519009968152019101906101da565b959291600080516020614ac08339815191529083519009918284526020809101930195610160565b90610180916000516020915b61016083106102f957600080516020614ac0833981519152809284519009602086526020808701526020604087015260608601527f30644e72e131a029b85045b68181585d2833e84879b9709143e1f593efffffff60808601528160a086015260208560c08160055afa1693805192601f19809201905b806020106102df5750505080602051830991600051900990600052602052565b8280918580855189099782519009968152019101906102bf565b9391906020600080516020614ac08339815191528192845190099283855201920193610248565b9060a0916000516020915b608083106103db57600080516020614ac0833981519152809284519009602086526020808701526020604087015260608601527f30644e72e131a029b85045b68181585d2833e84879b9709143e1f593efffffff60808601528160a086015260208560c08160055afa1693805192601f19809201905b806020106103c15750505080602051830991600051900990600052602052565b8280918580855189099782519009968152019101906103a1565b9391906020600080516020614ac0833981519152819284519009928385520192019361032b565b91906040526060526040600060808160065afa1690565b906040526040600060608160075afa1690565b919060c05260e05260406080808060065afa1690565b9060c0526040608060608160075afa1690565b9392919060005260205261086051604052610880516060526108a0516080526108c05160a05260c05260e0526108e05161010052610900516101205261092051610140526109405161016052602060006101808160085afa166000511690565b60017f10f28bc710a8bdd00dd701df2f5fc4f5ccdb260238eba6f819db692f79dc3dc96106c052600b6106e0527f305e41e912d579f5b3193badcab128321c8ee1cb70aa396331b979553d820001610700527f14c60185e75885d674db4b3f7d4a5694fa6c01aa0f53557b060bc04a4172705f610720527f2afd4e77273f1cb3434a4a667929058c156b21573c3f1efc882e708597d7161a610740527f22b55603586d5fc42c6c14c2fc27a028c207da8b2c71cb33d549fa4a2be5d3026107605260046107805260006107a05260006107c05260006107e052600061080052600161082052600261084052610860907f198e9393920d483a7260bfb731fb5d25f1aa493335a9e71297e485b7aef312c282527f1800deef121f1e76426a00665e5c4479674322d4f75edadd46debd5cd992f6ed610880527f090689d0585ff075ec9e99ad690c3395bc4b313370b38ef355acdadcd122975b6108a0527f12c85ea5db8c6deb4aab71808dcb408fe3d1e7690c43d37b4ce6cc0166fa7daa6108c0527f26186a2d65ee4d2f9c9a5b91f86597d35f192cd120caf7e935d8443d1938e23d6108e0527f30441fd1b5d3370482c42152a8899027716989a6996c2535bc9f7fee8aaef79e610900527f16f363f103c80d7bbc8ad3c6867e0822bbc6000be91a4689755c7df40221c145610920527f2b1cbb3e521edf5a622d82762a44a5e63f1e50b332d71154a4a7958d6011deff610940527f010920a3471867216dc9dd6b478c16842fb5aca434fe6c9bf1622c4abd70381a610960527f300e30930f1a05253b28b6b139f2c38025d99b7a54e641f1d6ff2797d113c118610980527f05e7899750f7abeae5d19c16666c47618fce810326b125d253dd41fb817dd65a6109a0527f1e0e399ce46f208ab3f43aad0222f4dd37b8327b9f7afffa9cf9ee214e2460dd6109c0527f22274e4efd4197dd6515994652d5beafcc7af94313d33e049cf5a1e464b523956109e0527f0ebb470e19409fcd84c0358c04300dc38cba0240141ddeb899ad9cca90167a64610a00527f162baf6245e2cec59bc93bc2302527d299cdb50e100f14895f170f316a2a2643610a20527f172a6f183e2ddc0607d23fd3daf4b23110b81d8a9d0a4e8d3d07ba24a007e04b610a40527f22e1cdbfffcfcf4f18cf4342edf1fb26c3b6e52ace3d5fadcf5cc2614333baa4610a60527f0e28df72dcc69cc6442d72f693661997480a913ac353890efd63a873959727c0610a80527f01021a51384124c6844f2ba0e40e2545f26f280a79745c9164b0a56f1ee54d56610aa0527f2533607ba6f153a0126a8450a3cf47946933c93eaf69c996236b45603179c914610ac0527f1f59be81b3fd7d290930430d204c1a866937862306d75be70fedfe13e565ce0b610ae0527f05931c531cd08b4aa937245293af81c4532fc4c01387d5b539d29f6c4ae00031610b00527f203b21a648fbfb96459640bbc5b41852dd1efc1209c89b635ba638dcb929da6b610b20527f04e7002f06f2091a44afcd311e93c22f46dd9f3207b5bcc34f0ca7652098f097610b40527f20ab7490b42f3f7b2b0bbe601a09d72ee93f924801d597f48cf2d443751d5f91610b60527f2bca2f1762946a05fb1632550c6cb12c02d18d9bee5bdd4212ca7342888720fd610b80527f2aaba546cdd9969ef0aecc85b2aaa19b6e9639879962661415c8f0df426bac0c610ba0527f12b15327bcfbe7d9e9de1bc648ba3bdf910087362179a0b403cf70bad1c093c8610bc0527f25909db723a8021ffe088c50525d6d260f9157be7a7c194b6f315386a46cdab8610be0527f25cbeae8ec2a8a2f74844f5e3276ed94079907bed6d7b1b26ed695328fe7bcae610c00527f26bffd26dd8f5f7679281f8d1a432690e07b15cbdf684fe456aa1277515e1730610c20527f015a3f09c82a770a69d67583d7049d83d69b7b8e03d38484497215cdc5979556610c40527f1ee4241e91ac391756b0b9893ac1e34ea95c6dd689e7dca12c62a6ce943960f1610c60527f10ad75f199bf1fb9335b91c20db6cd8958dcb2fe11983bc77cdb4036e57e59ca610c80527f05eb5d19e589c11e0bb2200d66da829955545481885cfbc9099ec6a53e266ed2610ca0527f25ac1d9849f9f448cecc7ead7d48670f66bbfe7df8e248bd818a954df6936c27610cc0527f0743ea40f14084db2673217283aa053f986896ee7c181f52118442e99c452974610ce0527f0203e3493a2594ece57d22cc75dd081ac68271ec7c758153cfd2152bfb5c19e3610d00527f1b95c5dc9bae0fb3f8208684042e57e0fcfbc3774af9ae0903ab9e9ddb4f89fd610d20527f1e8564e01419713739871224ce15f4c4b51e6af161d6e07a178e6545879035bf610d40527f1cefc889639cf98f94d831ea41c356929f9317778dda05ba0c5885401638db67610d60527f1e0466deb22a86d9122bc7180b7d293e47288244abf1450a5cd63a3289a457ca610d80526108c435600414916044351416167f10f28bc710a8bdd00dd701df2f5fc4f5ccdb260238eba6f819db692f79dc3dc96000526020906108e45b6109648110614a7957506064915b6101248310614a66576000908120600080516020614ac08339815191528106610da0529052610dc0916020608082015b808310614a4f5750610c4090610c4794610107565b939061012a565b926101008201935b848310614a3a5790610c6091610107565b610140830193915b848410614a295790610c7991610107565b929061046082015b808310614a005750610ca7610cb692610ca0610cbe96610cad94610107565b929061012a565b946100af565b90929193610107565b9290506100af565b5050806107a051614900575b508015614688576106e051610e20519081906000905b8082106148e25750506107205192610f2061078051926006840160051b80830194156148d6575b50610760515b8483106148b157505050610d5a600080516020614ac08339815191527f30644e72e131a029b85045b68181585d2833e84879b9709143e1f593f00000008508918284526020840190610150565b93600080516020614ac0833981519152610f209261070051900991610760515b84821061488b5750505050610f4051610f60915b610fe0831061486b576000926108e4906107805160051b8201905b818310614843575050505191610f205191610fe0519085610f205284610f405283610f605280610f805281610fa05282610fc052610e00519283809281610de0519381610dc0519381610e2051600080516020614ac083398151915290870999818d600080516020614ac08339815191526108043581036107e43508600080516020614ac08339815191526108243581036107e4350890600080516020614ac0833981519152910990600080516020614ac0833981519152908608600080516020614ac083398151915203600080516020614ac08339815191529060010890600080516020614ac083398151915291099d81600080516020614ac08339815191526108243581036107e43508600080516020614ac08339815191529085099d600080516020614ac08339815191528d61054435088b600080516020614ac08339815191526101006104243509600080516020614ac08339815191529081036103e43508600080516020614ac083398151915290610564350990600080516020614ac0833981519152910890600080516020614ac08339815191529109600080516020614ac0833981519152906107a43509600080516020614ac0833981519152038d6108243590600080516020614ac08339815191529108600080516020614ac08339815191528d6107e4350890600080516020614ac08339815191529109600080516020614ac0833981519152906107c4350990600080516020614ac08339815191529108600080516020614ac0833981519152848908600080516020614ac083398151915203600080516020614ac08339815191529060010890600080516020614ac083398151915291099c6107a435600080516020614ac083398151915281810391800990600080516020614ac08339815191529108600080516020614ac08339815191529085099b600080516020614ac08339815191526107a43581038809600080516020614ac08339815191529088089a600080516020614ac08339815191528a870883600080516020614ac0833981519152600080516020614b408339815191528709600080516020614b40833981519152600080516020614ac08339815191529109600080516020614b40833981519152600080516020614ac08339815191529109600080516020614b40833981519152600080516020614ac08339815191529109600080516020614b40833981519152600080516020614ac08339815191529109600080516020614ac083398151915290840890600080516020614ac0833981519152910884600080516020614ac0833981519152600080516020614b408339815191528809600080516020614b40833981519152600080516020614ac08339815191529109600080516020614b40833981519152600080516020614ac08339815191529109600080516020614b40833981519152600080516020614ac08339815191529109600080516020614ac083398151915290610464350890600080516020614ac08339815191529108600080516020614ac083398151915290610764350990600080516020614ac08339815191529109600080516020614ac083398151915203846106e435600080516020614ac0833981519152908609600080516020614ac083398151915290850890600080516020614ac0833981519152910885600080516020614ac08339815191526106c4358709600080516020614ac083398151915290610464350890600080516020614ac08339815191529108600080516020614ac083398151915290610784350990600080516020614ac0833981519152910990600080516020614ac0833981519152910890600080516020614ac08339815191529109600080516020614ac083398151915203908380600080516020614ac0833981519152600080516020614b408339815191528809600080516020614b40833981519152600080516020614ac08339815191529109600080516020614b40833981519152600080516020614ac08339815191529109600080516020614b40833981519152600080516020614ac08339815191529109600080516020614b40833981519152600080516020614ac08339815191529109600080516020614ac083398151915290840890600080516020614ac0833981519152910881600080516020614ac0833981519152600080516020614b408339815191528909600080516020614b40833981519152600080516020614ac08339815191529109600080516020614b40833981519152600080516020614ac08339815191529109600080516020614b40833981519152600080516020614ac08339815191529109600080516020614ac083398151915290610464350890600080516020614ac08339815191529108600080516020614ac083398151915290610764350990600080516020614ac08339815191529109600080516020614ac083398151915203916106e435600080516020614ac0833981519152908609600080516020614ac0833981519152910890600080516020614ac0833981519152910884600080516020614ac08339815191526106c4358609600080516020614ac083398151915290610464350890600080516020614ac08339815191529108600080516020614ac083398151915290610784350990600080516020614ac0833981519152910990600080516020614ac0833981519152910890600080516020614ac0833981519152910898600080516020614ac083398151915290860882600080516020614ac0833981519152600080516020614b408339815191528609600080516020614b40833981519152600080516020614ac08339815191529109600080516020614b40833981519152600080516020614ac08339815191529109600080516020614ac0833981519152906104e4350890600080516020614ac0833981519152910883600080516020614ac0833981519152600080516020614b408339815191528709600080516020614b40833981519152600080516020614ac08339815191529109600080516020614ac083398151915290610404350890600080516020614ac0833981519152910884600080516020614ac0833981519152600080516020614b408339815191528809600080516020614ac0833981519152906103e4350890600080516020614ac0833981519152910885600080516020614ac0833981519152886104c4350890600080516020614ac08339815191529108600080516020614ac083398151915290610704350990600080516020614ac0833981519152910990600080516020614ac0833981519152910990600080516020614ac08339815191529109600080516020614ac083398151915203836106a435600080516020614ac0833981519152908509600080516020614ac0833981519152906104e4350890600080516020614ac0833981519152910884600080516020614ac0833981519152610684358609600080516020614ac083398151915290610404350890600080516020614ac0833981519152910885600080516020614ac0833981519152610664358709600080516020614ac0833981519152906103e4350890600080516020614ac0833981519152910886600080516020614ac0833981519152610644358809600080516020614ac0833981519152906104c4350890600080516020614ac08339815191529108600080516020614ac083398151915290610724350990600080516020614ac0833981519152910990600080516020614ac0833981519152910990600080516020614ac0833981519152910990600080516020614ac0833981519152910890600080516020614ac08339815191529109600080516020614ac0833981519152039282600080516020614ac0833981519152600080516020614b408339815191528309600080516020614b40833981519152600080516020614ac08339815191529109600080516020614b40833981519152600080516020614ac08339815191529109600080516020614ac0833981519152906104e4350890600080516020614ac083398151915291089083600080516020614ac0833981519152600080516020614b408339815191528309600080516020614b40833981519152600080516020614ac08339815191529109600080516020614ac083398151915290610404350890600080516020614ac08339815191529108908480600080516020614ac0833981519152600080516020614b408339815191528409600080516020614ac0833981519152906103e4350890600080516020614ac0833981519152910891600080516020614ac0833981519152906104c4350890600080516020614ac08339815191529108600080516020614ac083398151915290610704350990600080516020614ac0833981519152910990600080516020614ac0833981519152910990600080516020614ac08339815191529109600080516020614ac08339815191520391806106a435600080516020614ac0833981519152908409600080516020614ac0833981519152906104e4350890600080516020614ac083398151915291089181600080516020614ac0833981519152610684358309600080516020614ac083398151915290610404350890600080516020614ac083398151915291089180600080516020614ac0833981519152610664358409600080516020614ac0833981519152906103e4350890600080516020614ac083398151915291089161064435600080516020614ac08339815191529109600080516020614ac0833981519152906104c4350890600080516020614ac08339815191529108600080516020614ac083398151915290610724350990600080516020614ac0833981519152910990600080516020614ac0833981519152910990600080516020614ac0833981519152910990600080516020614ac0833981519152910890600080516020614ac083398151915291089381600080516020614ac08339815191526107443581036107643508600080516020614ac08339815191529083099361076435600080516020614ac083398151915281810391800990600080516020614ac08339815191529108600080516020614ac0833981519152910991600080516020614ac0833981519152610704358209600080516020614ac083398151915203600080516020614ac083398151915291088161046435600080516020614ac083398151915203610404356103e43590600080516020614ac0833981519152910890600080516020614ac08339815191529108600080516020614ac0833981519152610584358103600408600080516020614ac0833981519152610584358103600308600080516020614ac0833981519152610584358103600108600080516020614ac083398151915290610584350990600080516020614ac0833981519152910990600080516020614ac0833981519152910990600080516020614ac083398151915291098161046435600080516020614ac083398151915203610404356103e43590600080516020614ac0833981519152910890600080516020614ac08339815191529108600080516020614ac0833981519152610584358103600408600080516020614ac0833981519152610584358103600308600080516020614ac0833981519152610584358103600108600080516020614ac083398151915290610584350990600080516020614ac0833981519152910990600080516020614ac0833981519152910990600080516020614ac083398151915291098161044435600080516020614ac083398151915203610404356104643561040435600080516020614ac0833981519152036103e43590600080516020614ac0833981519152910890600080516020614ac0833981519152910990600080516020614ac0833981519152910890600080516020614ac08339815191529108600080516020614ac0833981519152610584358103600408600080516020614ac0833981519152610584358103600308600080516020614ac0833981519152610584358103600208600080516020614ac083398151915290610584350990600080516020614ac0833981519152910990600080516020614ac0833981519152910990600080516020614ac083398151915291098161042435600080516020614ac0833981519152036103e435610464356103e435600080516020614ac0833981519152036104043590600080516020614ac0833981519152910890600080516020614ac0833981519152910990600080516020614ac0833981519152910890600080516020614ac08339815191529108600080516020614ac0833981519152610584358103600408600080516020614ac0833981519152610584358103600308600080516020614ac0833981519152610584358103600208600080516020614ac083398151915290610584350990600080516020614ac0833981519152910990600080516020614ac0833981519152910990600080516020614ac0833981519152910981600080516020614ac083398151915261046435810360010861046435600080516020614ac0833981519152610584358103600408600080516020614ac0833981519152610584358103600308600080516020614ac0833981519152610584358103600208600080516020614ac083398151915290610584350990600080516020614ac0833981519152910990600080516020614ac0833981519152910990600080516020614ac0833981519152910990600080516020614ac0833981519152910981600080516020614ac08339815191526104443581036104843508600080516020614ac0833981519152610584358103600308600080516020614ac0833981519152610584358103600208600080516020614ac0833981519152610584358103600108600080516020614ac083398151915290610584350990600080516020614ac0833981519152910990600080516020614ac0833981519152910990600080516020614ac083398151915291098161042435600080516020614ac0833981519152036103e4356104a43590600080516020614ac0833981519152910890600080516020614ac08339815191529108600080516020614ac0833981519152610584358103600308600080516020614ac0833981519152610584358103600208600080516020614ac0833981519152610584358103600108600080516020614ac083398151915290610584350990600080516020614ac0833981519152910990600080516020614ac0833981519152910990600080516020614ac0833981519152910981600080516020614ac08339815191527f16a9e98c493a902b9502054edc03e7b22b7eac34345961bc8abced6bd147c8be6104443509600080516020614ac08339815191527f0fc1c9394db89bb2601abc49fdad4f038ce5169030a2ad69763f7875036bcb02610424350990600080516020614ac08339815191529108600080516020614ac0833981519152036104e435610524356104043590600080516020614ac08339815191529108600080516020614ae0833981519152600080516020614ac08339815191529109600080516020614ac0833981519152600080516020614b00833981519152610464350990600080516020614ac0833981519152910890600080516020614ac0833981519152910890600080516020614ac08339815191529108600080516020614ac083398151915290610604350981600080516020614ac08339815191527f1eb9e1dc19a33a624c9862a1d97d1510bd521ead5dfe0345aaf6185b1a1e60fe6104443509600080516020614ac08339815191527f13abec390ada7f4370819ab1c7846f210554569d9b29d1ea8dbebd0fa8c53e66610424350990600080516020614ac08339815191529108600080516020614ac0833981519152036104c435610524356104043590600080516020614ac08339815191529108600080516020614b20833981519152600080516020614ac08339815191529109600080516020614ac0833981519152600080516020614aa0833981519152610464350990600080516020614ac0833981519152910890600080516020614ac083398151915291086104c435600080516020614ac0833981519152610524356104043508600080516020614b20833981519152600080516020614ac08339815191529109600080516020614ac0833981519152600080516020614aa0833981519152610464350990600080516020614ac0833981519152910890600080516020614ac083398151915291086104c435600080516020614ac0833981519152610524356104043508600080516020614b20833981519152600080516020614ac08339815191529109600080516020614ac0833981519152600080516020614aa0833981519152610464350990600080516020614ac0833981519152910890600080516020614ac0833981519152910890600080516020614ac083398151915291096104c435600080516020614ac0833981519152610524356104043508600080516020614b20833981519152600080516020614ac08339815191529109600080516020614ac0833981519152600080516020614aa0833981519152610464350990600080516020614ac0833981519152910890600080516020614ac083398151915291086104c435600080516020614ac0833981519152610524356104043508600080516020614b20833981519152600080516020614ac08339815191529109600080516020614ac0833981519152600080516020614aa0833981519152610464350990600080516020614ac0833981519152910890600080516020614ac0833981519152910890600080516020614ac0833981519152910990600080516020614ac0833981519152910990600080516020614ac0833981519152910990600080516020614ac08339815191529108600080516020614ac08339815191529061060435098161046435600080516020614ac083398151915203610504356103e43590600080516020614ac08339815191529108600080516020614ac0833981519152610504356103e43508600080516020614ac0833981519152610504356103e4350890600080516020614ac08339815191529109600080516020614ac0833981519152610504356103e43508600080516020614ac0833981519152610504356103e4350890600080516020614ac0833981519152910990600080516020614ac0833981519152910990600080516020614ac0833981519152910990600080516020614ac08339815191529108600080516020614ac08339815191529061060435098161044435600080516020614ac083398151915203610524356104043590600080516020614ac08339815191529108600080516020614ac0833981519152610524356104043508600080516020614ac083398151915261052435610404350890600080516020614ac08339815191529109600080516020614ac0833981519152610524356104043508600080516020614ac083398151915261052435610404350890600080516020614ac0833981519152910990600080516020614ac0833981519152910990600080516020614ac08339815191529109600080516020614ae0833981519152600080516020614ac08339815191529109600080516020614ac0833981519152610504356103e43508600080516020614ac0833981519152610504356103e43508600080516020614ac0833981519152610504356103e4350890600080516020614ac08339815191529109600080516020614ac0833981519152610504356103e43508600080516020614ac0833981519152610504356103e4350890600080516020614ac0833981519152910990600080516020614ac0833981519152910990600080516020614ac08339815191529109600080516020614b00833981519152600080516020614ac0833981519152910990600080516020614ac0833981519152910890600080516020614ac08339815191529108600080516020614ac0833981519152906105e435098161042435600080516020614ac083398151915203610524356104043590600080516020614ac08339815191529108600080516020614ac0833981519152610524356104043508600080516020614ac083398151915261052435610404350890600080516020614ac08339815191529109600080516020614ac0833981519152610524356104043508600080516020614ac083398151915261052435610404350890600080516020614ac0833981519152910990600080516020614ac0833981519152910990600080516020614ac08339815191529109600080516020614b20833981519152600080516020614ac08339815191529109600080516020614ac0833981519152610504356103e43508600080516020614ac0833981519152610504356103e43508600080516020614ac0833981519152610504356103e4350890600080516020614ac08339815191529109600080516020614ac0833981519152610504356103e43508600080516020614ac0833981519152610504356103e4350890600080516020614ac0833981519152910990600080516020614ac0833981519152910990600080516020614ac08339815191529109600080516020614aa0833981519152600080516020614ac0833981519152910990600080516020614ac0833981519152910890600080516020614ac08339815191529108600080516020614ac0833981519152906105e4350981600080516020614ac08339815191526104443581036104843508600080516020614ac0833981519152610584358103600408600080516020614ac0833981519152610584358103600208600080516020614ac0833981519152610584358103600108600080516020614ac083398151915290610584350990600080516020614ac0833981519152910990600080516020614ac0833981519152910990600080516020614ac083398151915291098161042435600080516020614ac0833981519152036103e4356104a43590600080516020614ac0833981519152910890600080516020614ac08339815191529108600080516020614ac0833981519152610584358103600408600080516020614ac0833981519152610584358103600208600080516020614ac0833981519152610584358103600108600080516020614ac083398151915290610584350990600080516020614ac0833981519152910990600080516020614ac0833981519152910990600080516020614ac0833981519152910981600080516020614ac08339815191527f16a9e98c493a902b9502054edc03e7b22b7eac34345961bc8abced6bd147c8be6104443509600080516020614ac08339815191527f0fc1c9394db89bb2601abc49fdad4f038ce5169030a2ad69763f7875036bcb02610424350990600080516020614ac08339815191529108600080516020614ac0833981519152036104e435610524356104043590600080516020614ac08339815191529108600080516020614ae0833981519152600080516020614ac08339815191529109600080516020614ac0833981519152600080516020614b00833981519152610464350990600080516020614ac0833981519152910890600080516020614ac0833981519152910890600080516020614ac08339815191529108600080516020614ac0833981519152906105c4350981600080516020614ac08339815191527f1eb9e1dc19a33a624c9862a1d97d1510bd521ead5dfe0345aaf6185b1a1e60fe6104443509600080516020614ac08339815191527f13abec390ada7f4370819ab1c7846f210554569d9b29d1ea8dbebd0fa8c53e66610424350990600080516020614ac08339815191529108600080516020614ac0833981519152036104c435610524356104043590600080516020614ac08339815191529108600080516020614b20833981519152600080516020614ac08339815191529109600080516020614ac0833981519152600080516020614aa0833981519152610464350990600080516020614ac0833981519152910890600080516020614ac083398151915291086104c435600080516020614ac0833981519152610524356104043508600080516020614b20833981519152600080516020614ac08339815191529109600080516020614ac0833981519152600080516020614aa0833981519152610464350990600080516020614ac0833981519152910890600080516020614ac083398151915291086104c435600080516020614ac0833981519152610524356104043508600080516020614b20833981519152600080516020614ac08339815191529109600080516020614ac0833981519152600080516020614aa0833981519152610464350990600080516020614ac0833981519152910890600080516020614ac0833981519152910890600080516020614ac083398151915291096104c435600080516020614ac0833981519152610524356104043508600080516020614b20833981519152600080516020614ac08339815191529109600080516020614ac0833981519152600080516020614aa0833981519152610464350990600080516020614ac0833981519152910890600080516020614ac083398151915291086104c435600080516020614ac0833981519152610524356104043508600080516020614b20833981519152600080516020614ac08339815191529109600080516020614ac0833981519152600080516020614aa0833981519152610464350990600080516020614ac0833981519152910890600080516020614ac0833981519152910890600080516020614ac0833981519152910990600080516020614ac0833981519152910990600080516020614ac0833981519152910990600080516020614ac08339815191529108600080516020614ac0833981519152906105c435098161046435600080516020614ac083398151915203610504356103e43590600080516020614ac08339815191529108600080516020614ac0833981519152610504356103e43508600080516020614ac0833981519152610504356103e4350890600080516020614ac08339815191529109600080516020614ac0833981519152610504356103e43508600080516020614ac0833981519152610504356103e4350890600080516020614ac0833981519152910990600080516020614ac0833981519152910990600080516020614ac0833981519152910990600080516020614ac08339815191529108600080516020614ac0833981519152906105c435098161044435600080516020614ac083398151915203610524356104043590600080516020614ac08339815191529108600080516020614ac0833981519152610524356104043508600080516020614ac083398151915261052435610404350890600080516020614ac08339815191529109600080516020614ac0833981519152610524356104043508600080516020614ac083398151915261052435610404350890600080516020614ac0833981519152910990600080516020614ac0833981519152910990600080516020614ac08339815191529109600080516020614ae0833981519152600080516020614ac08339815191529109600080516020614ac0833981519152610504356103e43508600080516020614ac0833981519152610504356103e43508600080516020614ac0833981519152610504356103e4350890600080516020614ac08339815191529109600080516020614ac0833981519152610504356103e43508600080516020614ac0833981519152610504356103e4350890600080516020614ac0833981519152910990600080516020614ac0833981519152910990600080516020614ac08339815191529109600080516020614b00833981519152600080516020614ac0833981519152910990600080516020614ac0833981519152910890600080516020614ac08339815191529108600080516020614ac0833981519152906105a435098161042435600080516020614ac083398151915203610524356104043590600080516020614ac08339815191529108600080516020614ac0833981519152610524356104043508600080516020614ac083398151915261052435610404350890600080516020614ac08339815191529109600080516020614ac0833981519152610524356104043508600080516020614ac083398151915261052435610404350890600080516020614ac0833981519152910990600080516020614ac0833981519152910990600080516020614ac08339815191529109600080516020614b20833981519152600080516020614ac08339815191529109600080516020614ac0833981519152610504356103e43508600080516020614ac0833981519152610504356103e43508600080516020614ac0833981519152610504356103e4350890600080516020614ac08339815191529109600080516020614ac0833981519152610504356103e43508600080516020614ac0833981519152610504356103e4350890600080516020614ac0833981519152910990600080516020614ac0833981519152910990600080516020614ac08339815191529109600080516020614aa0833981519152600080516020614ac0833981519152910990600080516020614ac0833981519152910890600080516020614ac08339815191529108600080516020614ac0833981519152906105a4350990600080516020614ac0833981519152910990600080516020614ac0833981519152910890600080516020614ac0833981519152910990600080516020614ac0833981519152910890600080516020614ac0833981519152910990600080516020614ac0833981519152910890600080516020614ac0833981519152910990600080516020614ac0833981519152910890600080516020614ac0833981519152910990600080516020614ac0833981519152910890600080516020614ac0833981519152910990600080516020614ac0833981519152910890600080516020614ac0833981519152910990600080516020614ac0833981519152910890600080516020614ac0833981519152910990600080516020614ac0833981519152910890600080516020614ac0833981519152910990600080516020614ac0833981519152910890600080516020614ac0833981519152910990600080516020614ac0833981519152910890600080516020614ac0833981519152910990600080516020614ac0833981519152910890600080516020614ac0833981519152910990600080516020614ac0833981519152910890600080516020614ac0833981519152910990600080516020614ac0833981519152910890600080516020614ac0833981519152910990600080516020614ac0833981519152910890600080516020614ac0833981519152910990600080516020614ac0833981519152910890600080516020614ac0833981519152910990600080516020614ac0833981519152910890600080516020614ac0833981519152910990600080516020614ac0833981519152910890600080516020614ac0833981519152910990600080516020614ac0833981519152910890600080516020614ac0833981519152910990600080516020614ac0833981519152910890600080516020614ac0833981519152910990600080516020614ac0833981519152910890600080516020614ac0833981519152910990600080516020614ac0833981519152910890600080516020614ac0833981519152910990600080516020614ac0833981519152910890600080516020614ac0833981519152910990600080516020614ac0833981519152910890600080516020614ac0833981519152910990600080516020614ac0833981519152910890600080516020614ac0833981519152910990600080516020614ac0833981519152910890600080516020614ac0833981519152910990600080516020614ac0833981519152910890600080516020614ac0833981519152910990600080516020614ac0833981519152910890600080516020614ac0833981519152910990600080516020614ac0833981519152910890600080516020614ac08339815191529109610fe0526103a4356000526103c435602052610364905b816102641061481b57826000516110005260205161102052600080516020614ac08339815191528080610e205181808061072051816107405180988188819997829896839709610420528061040052828282096103e0520909090909096103c052610e80516104406103c0905b6104c081106147f757836104605161048051906104a05180600080516020614ac083398151915284840990600080516020614ac083398151915291096104c0526104405191826104e0528260005281600080516020614ac083398151915282850990600080516020614ac08339815191529109610500528061052052600080516020614ac083398151915281840961054052600080516020614ac0833981519152828409610560526103e0519161040051938161042051918483600080516020614ac083398151915203600080516020614ac0833981519152908808600080516020614ac0833981519152898103890890600080516020614ac0833981519152910990600080516020614ac0833981519152910960205287600080516020614ac08339815191528481038908600080516020614ac08339815191528881038a0890600080516020614ac0833981519152910990600080516020614ac0833981519152910960405281600080516020614ac08339815191528881038508600080516020614ac0833981519152888103860890600080516020614ac0833981519152910990600080516020614ac08339815191529109606052600080516020614ac0833981519152886001096080526103c05190600080516020614ac08339815191528481038308600080516020614ac0833981519152898103840890600080516020614ac0833981519152910990600080516020614ac0833981519152910960a052600080516020614ac0833981519152038783600080516020614ac083398151915203600080516020614ac0833981519152908908600080516020614ac0833981519152838a0890600080516020614ac0833981519152910990600080516020614ac0833981519152910960c052600080516020614ac0833981519152878103840890600080516020614ac083398151915290840890600080516020614ac0833981519152910990600080516020614ac0833981519152910960e05285600080516020614ac0833981519152828103870890600080516020614ac083398151915291096101005284600080516020614ac083398151915203600080516020614ac0833981519152910890600080516020614ac0833981519152910961012052600080516020614ac0833981519152838103830890600080516020614ac0833981519152910961014052600080516020614ac083398151915203600080516020614ac0833981519152910890600080516020614ac0833981519152910961016052613fff9061023c565b600051806104e0526105005b61058081106147d957610e40516020516040516060518693600080516020614ac083398151915280610424358409818681868187818b81806103e43583099781808080806104a43586099a610444359009956104043590099261048435900960000808080908080861058052608051600080516020614ac083398151915280610fe05183098184818061062435870960000809086106e45b80610624106147b457506106045b806104a41061478f575061050051908380600080516020614ac083398151915261046435860992600080516020614ac083398151915261082435870991600080516020614ac0833981519152910990600080516020614ac0833981519152910890600080516020614ac0833981519152910990600080516020614ac0833981519152910890600080516020614ac083398151915291096105a05260a05160c05160e051926105205161072435600080516020614ac0833981519152908609600080516020614ac0833981519152610704358509600080516020614ac0833981519152610744358709600080516020614ac08339815191529060000890600080516020614ac0833981519152910890600080516020614ac0833981519152910890600080516020614ac083398151915291096105c05261010051956101205195610540519061078435600080516020614ac083398151915290890990600080516020614ac0833981519152610764358b0990600080516020614ac08339815191526107c4358b09600080516020614ac08339815191526107a4358d09600080516020614ac08339815191529060000890600080516020614ac0833981519152910890600080516020614ac0833981519152910990600080516020614ac0833981519152910890600080516020614ac0833981519152910890600080516020614ac083398151915291096105e05261014051986101605198610560516107e435600080516020614ac0833981519152908c09600080516020614ac0833981519152610804358e09600080516020614ac08339815191529060000890600080516020614ac0833981519152910890600080516020614ac0833981519152910961060052600080516020614ac0833981519152910890600080516020614ac083398151915291086106205261064052600080516020614ac0833981519152910890600080516020614ac0833981519152910861066052600080516020614ac0833981519152910861068052600080516020614ac083398151915291086106a05261062060005b60a0811061477f576143c483610320565b600080516020614ac08339815191526106005160805109610e6051919060606105e05b60a08210614754578461444c61443d61442561441888886110405260a43560005260c435602052610e405190610419565b6084359060643590610402565b610264356080526102843560a052610e405190610442565b6110205190611000519061042c565b610d605b80610a201061472a5761467861461961453c6145f161453c6145c961453c89600080516020614ac0833981519152806145a861453c61459b61458c8f61456c61453c8761454961453c8c8361452f6145216144db6145126144db6145036144db6144f4889f6144e56144db6144cc6144db93610e405190610442565b6109c051906109a0519061042c565b610e405190610442565b6109805190610960519061042c565b610a405190610a20519061042c565b610a0051906109e0519061042c565b6101843590610164359061042c565b610104359060e4359061042c565b9161050051900990610442565b60a0519060805190610402565b9a610e60519009996101a4356080526101c43560a05283610520518c0990610442565b97610e6051900996610224356080526102443560a052610e405190610442565b61020435906101e4359061042c565b8361054051870990610442565b92610e60519009610124356080526101443560a05261056051900990610442565b610820516080526108405160a05261104051600080516020614ac08339815191520390610442565b610844356080526108643560a0526104c051600080516020614ac08339815191520390610442565b610884358060805261463a61453c6108a435938460a052610e805190610442565b906000519161106091838352602051611080948186526110a0968388526110c0938185526107a05161468d575b505050505193519251915190610455565b1561468857600160005260206000f35b600080fd5b9161470b9391614716959693610ea051600052610ec051602052610ee0938451604052610f0093845160605260805260a05260c05260e0526146f36146e8600080516020614ac0833981519152610100600020068095610419565b895190895190610402565b91600051885260205189525160005251602052610419565b825190865190610402565b906000518552602051815286808080614667565b9061473c61474a91610e405190610442565b60208301519083519061042c565b90603f1901614450565b9091600080516020614ac083398151915290818681855187510992090891601f1990810191016143e7565b81518152602091820191016143b3565b90600080516020614ac0833981519152908185818535870992090890601f19016140b1565b90600080516020614ac0833981519152908185818535870992090890601f19016140a3565b80600080516020614ac083398151915283602093510981520161400b565b60208091600080516020614ac0833981519152845181038608815201910190613c56565b909161482a8261483892610419565b602084013590843590610402565b91603f190190613be9565b9091946020600080516020614ac0833981519152819281893586510990089601929101610da9565b9190600080516020614ac083398151915260209183519008910191610d8e565b600080516020614ac0833981519152838282806020958751098809855209910190610d7a565b60209087600080516020614ac083398151915291828181038608865209920191610d0d565b610f4001935086610d07565b9092600080516020614ac08339815191528160019209930190610ce0565b90506107e0519061080051916107c05160051b806108e401918235926108e48260051b840101356108e48360061b85010135906108e460038560051b02860101359588965b846108e48760051b89010181101561499957906020808c93019384358b1b0194818960051b890101358b1b0195818960061b890101358b1b019660038960051b02010135891b019701969392919093614945565b50979450975093509350507f30644e72e131a029b85045b68181585d97816a916871ca8d3c208c16d87cfd4790816003818087800987090882868009149180600381808a80098a09089084800914161693610ea052610ec052610ee052610f005281610cca565b9160208181923595600080516020614ac083398151915287101695875201940191939193610c81565b92614a33926100af565b9092610c68565b9291614a45926100af565b9192909190610c4f565b939291614a5b926100af565b929391929091610c2b565b9091614a71926100af565b919091610bfb565b9060208091600080516020614ac083398151915284351016928035855201920191610bed56fe066f6f85d6f68a85ec10345351a23a3aaf07f38af8c952a7bceca70bd2af7ad530644e72e131a029b85045b68181585d2833e84879b9709143e1f593f00000011274e649a32ed355a31a6ed69724e1adade857e86eb5c3a121bcd147943203c80cc57cdbb08507d62bf67a4493cc262fb6c09d557013fff1f573f431221f8ff92b9d4b4110c9ae997782e1509b1d0fdb20a7c02bbd8bea7305462b9f8125b1e809226b6e22c6f0ca64ec26aad4c86e715b5f898e5e963f25870e56bbe533e9a2a2646970667358221220a0e58ae7dd3fb0f443e0d062395c088c727c1d4c080852f27a12ca461cdb486d64736f6c63430008120033","linkReferences":{},"deployedLinkReferences":{}}