{"_format":"hh-sol-artifact-1","contractName":"Verifier","sourceName":"src/InclusionVerifier.sol","abi":[{"inputs":[{"internalType":"uint256[]","name":"pubInputs","type":"uint256[]"},{"internalType":"bytes","name":"proof","type":"bytes"}],"name":"verify","outputs":[{"internalType":"bool","name":"","type":"bool"}],"stateMutability":"view","type":"function"}],"bytecode":"0x608060405234801561001057600080fd5b5061563680620000216000396000f3fe608060405234801561001057600080fd5b506004361061002b5760003560e01c8063bd205a9014610030575b600080fd5b61004361003e3660046154f8565b610057565b604051901515815260200160405180910390f35b60006001610063615421565b6000805160206155e18339815191526100d9565b6000805160206155c183398151915280831081831016908380096000805160206155c18339815191528384096000805160206155c183398151915284820990506000805160206155c18339815191526003820891909114919091169392505050565b8060208701510660208301528060408701510660408301528060608701510660608301528060808701510660808301527f101e32209fbc2afdda2eab08eed3e3e9323ecd92e5c6b9508204b948de1ae5f3600083015260208501518060a084015260408601518060c0850152846101508284610077565b169450505060608501518060e0840152608086015180610100850152846101778284610077565b169450505060a08501518061012084015260c0860151806101408501528461019f8284610077565b16945050506101606000830120610160830152610160820151818106610180840152806101a08401525060e0850151806101c0840152610100860151806101e0850152846101ed8284610077565b16945050506101208501518061020084015261014086015180610220850152846102178284610077565b60a06101a0870120610240870181905285810661026088015261028087015216945060019150506102a083015360216102808301206102a083018190528181066102c08401526102e0830152610160850151610300830181905261018086015161032084018190528461028a8284610077565b16945050506101a0850151806103408401526101c086015180610360850152846102b48284610077565b16945050506101e085015180610380840152610200860151806103a0850152846102de8284610077565b1694505050610220850151806103c0840152610240860151806103e0850152846103088284610077565b16945050506101206102e083012061040083015261040082015181810661042084015280610440840152506102608501518061046084015261028086015180610480850152846103588284610077565b16945050506102a0850151806104a08401526102c0860151806104c0850152846103828284610077565b16945050506102e0850151806104e084015261030086015180610500850152846103ac8284610077565b16945050506103208501518061052084015261034086015180610540850152846103d68284610077565b16945050506103608501518061056084015261038086015180610580850152846104008284610077565b16945050506101606104408301206105a08301526105a08201518181066105c0840152806105e084015250806103a086015106610600830152806103c086015106610620830152806103e0860151066106408301528061040086015106610660830152806104208601510661068083015280610440860151066106a083015280610460860151066106c083015280610480860151066106e0830152806104a086015106610700830152806104c086015106610720830152806104e0860151066107408301528061050086015106610760830152806105208601510661078083015280610540860151066107a083015280610560860151066107c083015280610580860151066107e0830152806105a086015106610800830152806105c086015106610820830152806105e0860151066108408301528061060086015106610860830152806106208601510661088083015280610640860151066108a083015280610660860151066108c083015280610680860151066108e0830152806106a086015106610900830152806106c086015106610920830152806106e0860151066109408301528061070086015106610960830152806107208601510661098083015280610740860151066109a083015280610760860151066109c083015280610780860151066109e0830152806107a086015106610a00830152806107c086015106610a20830152806107e086015106610a408301526104806105e0830120610a60830152610a60820151818106610a8084015280610aa0840152506001610ac08301536021610aa0830120610ac08301819052818106610ae0840152610b00830152610800850151610b208301819052610820860151610b408401819052846106898284610077565b16945050506060610b00830120610b60830152610b60820151818106610b8084015280610ba08401525061084085015180610bc084015261086086015180610be0850152846106d88284610077565b1694505050806105c08301516105c084015109610c00830181905281908009610c20830181905281908009610c40830181905281908009610c60830181905281908009610c80830181905281908009610ca0830181905281908009610cc0830181905281908009610ce0830181905281908009610d00830181905281908009610d20830181905281908009610d40830152807f30644e72e131a029b85045b68181585d2833e84879b9709143e1f593f0000000610d4084015108610d60830152807f305e41e912d579f5b3193badcab128321c8ee1cb70aa396331b979553d820001610d6084015109610d80830152807f22b55603586d5fc42c6c14c2fc27a028c207da8b2c71cb33d549fa4a2be5d302610d8084015109610da0830152807f0daef86f88c440658be430f38559b834662c0dbd4d47a55d6e97fb49c41a2cff6105c084015108610dc0830152807f2498c2d3affa1baaf6419dbccb6a054bb87359c02eade5aeacd86c84757b9051610d8084015109610de0830152807f0bcb8b9f3137847ec20ea7f9b61753116fc08e884b0b8ae29709890f7a846fb06105c084015108610e00830152807f096b9f8b8598b7c387fb69abf236b0d5e04e24d275ee98244443eda5d3bc4035610d8084015109610e20830152807f26f8aee75b98e8663054dc0a8f4aa78747e5c37603cad86cff9e07ee1c43bfcc6105c084015108610e40830152807f28771071ab1633014eae27cfc16d5ebe08a8fe2fc9e85044e4a45f82c14cd825610d8084015109610e60830152807f07ed3e01361b6d2869a21de6c013f99f1f8aea18afd1204c5f3d96112eb327dc6105c084015108610e80830152807f0ae3c95fc03c0a5f2de8a8f46c03ccdfdfed2bb98c9e4ae0b10b15eda4e3b1e3610d8084015109610ea0830152807f2580851320f595ca8a679cc2157d8b7d4846bc8eed1b25b092d6dfa64b1c4e1e6105c084015108610ec0830152807f2afd4e77273f1cb3434a4a667929058c156b21573c3f1efc882e708597d7161a610d8084015109610ee0830152807f0566fffbb9f283767505fb50085852d112c8c6f13d7a5194bbb3850e5828e9e76105c084015108610f00830152806001610d8084015109610f20830152807f30644e72e131a029b85045b68181585d2833e84879b9709143e1f593f00000006105c084015108610f40830152807f14c60185e75885d674db4b3f7d4a5694fa6c01aa0f53557b060bc04a4172705f610d8084015109610f60830152807f1b9e4cecf9d91a534374fa77043701c82dc7e69e6a661b163dd63549ae8d8fa26105c084015108610f80830152807f2ad9021ed07c42ab19f77c5cf2cbd2deb135ea330f1b1573bd08d99309c4bb7d610d8084015109610fa0830152807f058b4c5410b55d7e9e58c9598eb5857e76fdfe156a9e5b1d86d91c00e63b44846105c084015108610fc0830152807f1908597d2fc3bc1da312efa344e0fc8a7079300238f2ee35774f117e66fd4467610d8084015109610fe0830152807f175bf4f5b16de40c153d56133ca05bd2b7bab84640c6825bcc92e4158902bb9a6105c084015108611000830152610dc08201518181610e00850151099050806110208401528181610e40850151099050806110408401528181610e80850151099050806110608401528181610ec0850151099050806110808401528181610f00850151099050806110a08401528181610f40850151099050806110c08401528181610f80850151099050806110e08401528181610fc0850151099050806111008401528181611000850151099050806111208401528181610d608501510990508061114084015250602061118083015260206111a083015260206111c08301526111408201516111e08301527f30644e72e131a029b85045b68181585d2833e84879b9709143e1f593efffffff6112008301526000805160206155e18339815191526112208301528260016020611160850160c0611180870160055afa141692506111608201516000610d608401519050828261112086015109610d608501528282820991506110008401519050828261110086015109611000850152828282099150610fc0840151905082826110e086015109610fc0850152828282099150610f80840151905082826110c086015109610f80850152828282099150610f40840151905082826110a086015109610f40850152828282099150610f008401519050828261108086015109610f00850152828282099150610ec08401519050828261106086015109610ec0850152828282099150610e808401519050828261104086015109610e80850152828282099150610e408401519050828261102086015109610e40850152828282099150610e0084015190508282610dc086015109610e0085015282828209610dc08501819052610da08501518493509091500961124083015280610e00830151610de08401510961126083015280610e40830151610e208401510961128083015280610e80830151610e60840151096112a083015280610ec0830151610ea0840151096112c083015280610f00830151610ee0840151096112e083015280610f40830151610f208401510961130083015280610f80830151610f608401510961132083015280610fc0830151610fa08401510961134083015280611000830151610fe084015109611360830152806020830151611300840151098181836040860151611320870151090890508181836060860151611340870151090890508181836080860151611360870151090861138084015250610720820151610600830151829190086113a08301819052819080096113c08301819052819080096113e0830152806113e08301516113a084015109611400830152807f066f6f85d6f68a85ec10345351a23a3aaf07f38af8c952a7bceca70bd2af7ad561140084015109611420830152806107408301516106208401510861144083018190528190800961146083018190528190800961148083015280611480830151611440840151096114a0830152807f2b9d4b4110c9ae997782e1509b1d0fdb20a7c02bbd8bea7305462b9f8125b1e86114a0840151096114c0830152806114c0830151611420840151086114e08301528061064083015182036114e08401510861150083018190526107c08301518291096115208301528061152083015161042084015109611540830152807f0cc57cdbb08507d62bf67a4493cc262fb6c09d557013fff1f573f431221f8ff961140084015109611560830152807f1274e649a32ed355a31a6ed69724e1adade857e86eb5c3a121bcd147943203c86114a08401510961158083015280611580830151611560840151086115a08301528061066083015182036115a0840151086115c083018190526107c08301518291096115e0830152806115e08301516115408401510861160083015280611600830151610420840151096116208301528061068083015182036114008401510861164083018190526107e0830151829109611660830152806116608301516116208401510861168083015280611680830151610420840151096116a0830152807f066f6f85d6f68a85ec10345351a23a3aaf07f38af8c952a7bceca70bd2af7ad5610680840151096116c0830152807f2b9d4b4110c9ae997782e1509b1d0fdb20a7c02bbd8bea7305462b9f8125b1e8611440840151096116e0830152806116e08301516116c08401510861170083018190526106e08301518291086117208301819052819080096117408301819052819080096117608301528061176083015161172084015109611780830152807f13abec390ada7f4370819ab1c7846f210554569d9b29d1ea8dbebd0fa8c53e66610640840151096117a0830152807f1eb9e1dc19a33a624c9862a1d97d1510bd521ead5dfe0345aaf6185b1a1e60fe610660840151096117c0830152806117c08301516117a0840151086117e0830152806117e083015182036117808401510861180083018190526107e0830151829109611820830152806118208301516116a0840151086118408301528061184083015161042084015109611860830152807f0cc57cdbb08507d62bf67a4493cc262fb6c09d557013fff1f573f431221f8ff961068084015109611880830152807f1274e649a32ed355a31a6ed69724e1adade857e86eb5c3a121bcd147943203c8611440840151096118a0830152806118a0830151611880840151086118c083018190526107008301518291086118e0830152807f0fc1c9394db89bb2601abc49fdad4f038ce5169030a2ad69763f7875036bcb0261064084015109611900830152807f16a9e98c493a902b9502054edc03e7b22b7eac34345961bc8abced6bd147c8be6106608401510961192083015280611920830151611900840151086119408301528061194083015182036118e08401510861196083018190526107e083015182910961198083015280611980830151611860840151086119a0830152806119a0830151610420840151096119c0830152806107a083015182036001086119e083018190526107a0830151829109611a00830152806107a08301518203600208611a208301819052611a00830151829109611a40830152806107a08301518203600408611a608301819052611a40830151829109611a80830152806106008301516106c084015108611aa0830152806106408301518203611aa084015108611ac08301819052611a80830151829109611ae083015280611ae08301516119c084015108611b0083015280611b0083015161042084015109611b208301528061066083015182036106a084015108611b408301819052611a80830151829109611b6083015280611b60830151611b2084015108611b8083015280611b8083015161042084015109611ba08301528061080083015161150084015109611bc083015280611bc0830151611ba084015108611be083015280611be083015161042084015109611c00830152806108008301516115c084015109611c2083015280611c20830151611c0084015108611c4083015280611c4083015161042084015109611c608301528061082083015161164084015109611c8083015280611c80830151611c6084015108611ca083015280611ca083015161042084015109611cc08301528061082083015161180084015109611ce083015280611ce0830151611cc084015108611d0083015280611d0083015161042084015109611d208301528061082083015161196084015109611d4083015280611d40830151611d2084015108611d6083015280611d6083015161042084015109611d80830152806107a08301518203600308611da08301819052611a40830151829109611dc083015280611dc0830151611ac084015109611de083015280611de0830151611d8084015108611e0083015280611e0083015161042084015109611e2083015280611dc0830151611b4084015109611e4083015280611e40830151611e2084015108611e6083015280611e6083015161042084015109611e80830152806107a0830151611a2084015109611ea083015280611ea0830151611da084015109611ec083015280611ec0830151611a6084015109611ee083015280611ee083015161068084015109611f00830152806106808301518203600108611f208301819052611f00830151829109611f4083015280611f40830151611e8084015108611f6083015280611f6083015161042084015109611f8083015280610600830151820361062084015108611fa083015280611fa083015161068084015109611fc08301819052610600830151829108611fe0830152806106408301518203611fe0840151086120008301819052611ee083015182910961202083015280612020830151611f808401510861204083015280612040830151610420840151096120608301528061062083015182036106008401510861208083015280612080830151610680840151096120a083018190526106208301518291086120c08301528061066083015182036120c0840151086120e08301819052611ee08301518291096121008301528061210083015161206084015108612120830152806121208301516104208401510961214083015280611a00830151611da08401510961216083015280612160830151611a608401510961218083015280610620830151610600840151086121a08301528061068083015182036121a0840151086121c083018190526121808301518291096121e0830152806121e083015161214084015108612200830152806122008301516104208401510961222083018190526121e0830151829108612240830152806122408301516104208401510961226083015280610920830151820360010861228083018190526113008301518291096122a0830152806122a0830151612260840151086122c0830152806122c0830151610420840151096122e083015261098082015181908009612300830152806109808301518203612300840151086123208301819052611240830151829109612340830152806123408301516122e0840151086123608301528061236083015161042084015109612380830152806109608301518203610980840151086123a083018190526113008301518291096123c0830152806123c0830151612380840151086123e0830152806123e083015161042084015109612400830152806112408301518203600108612420830152806112808301516112608401510861244083018190526112a083015182910861246083018190526112c083015182910861248083018190526112e08301518291086124a0830152806124a08301518203612420840151086124c083015280610260830151610860840151096124e0830152806124e08301516106e08401510861250083018190526102c08301518291086125208301528061026083015161088084015109612540830152806125408301516106008401510861256083018190526102c083015182910861258083018190526125208301518291096125a0830152806102608301516108a0840151096125c0830152806125c0830151610620840151086125e083018190526102c083015182910861260083018190526125a0830151829109612620830152806102608301516108c084015109612640830152806126408301516107008401510861266083018190526102c083015182910861268083018190526126208301518291096126a083018190526109408301518291096126c0830152806102608301516001096126e0830152806126e08301516105c084015109612700830152806127008301516106e08401510861272083018190526102c0830151829108612740830152806102608301517f09226b6e22c6f0ca64ec26aad4c86e715b5f898e5e963f25870e56bbe533e9a209612760830152806127608301516105c08401510961278083015280612780830151610600840151086127a083018190526102c08301518291086127c083018190526127408301518291096127e0830152806102608301517f13b360d4e82fe915fed16081038f98c211427b87a281bd733c277dbadf10372b09612800830152806128008301516105c084015109612820830152806128208301516106208401510861284083018190526102c083015182910861286083018190526127e0830151829109612880830152806102608301517f18afdf23e9bd9302673fc1e076a492d4d65bd18ebc4d854ed189139bab313e52096128a0830152806128a08301516105c0840151096128c0830152806128c0830151610700840151086128e083018190526102c0830151829108612900830181905261288083015182910961292083018190526109208301518291096129408301528061294083015182036126c08401510861296083018190526124c083015182910961298083015280612980830151612400840151086129a0830152806129a0830151610420840151096129c0830152806102608301516108e0840151096129e0830152806129e083015161068084015108612a0083018190526102c0830151829108612a208301528061026083015161090084015109612a4083015280612a4083015161138084015108612a6083018190526102c0830151829108612a808301819052612a20830151829109612aa083018190526109a0830151829109612ac0830152806102608301517ea136ba13afa6c83eb7b82fb370e228e74155e48fb8f1c1cfc33fb0da8afb4209612ae083015280612ae08301516105c084015109612b0083015280612b0083015161068084015108612b2083018190526102c0830151829108612b40830152806102608301517f2eb9750dce545f17d492058dd201a1251ff3d9077864583d44eaf9be9008699d09612b6083015280612b608301516105c084015109612b8083015280612b8083015161138084015108612ba083018190526102c0830151829108612bc08301819052612b40830151829109612be08301819052610980830151829109612c0083015280612c008301518203612ac084015108612c2083018190526124c0830151829109612c4083015280612c408301516129c084015108612c6083015280612c6083015161042084015109612c80830152806109c08301518203600108612ca08301819052611300830151829109612cc083015280612cc0830151612c8084015108612ce083015280612ce083015161042084015109612d008301526109c082015181908009612d20830152806109c08301518203612d2084015108612d408301819052611240830151829109612d6083015280612d60830151612d0084015108612d8083015280612d8083015161042084015109612da083015280610260830151610a0084015108612dc083018190526109e0830151829109612de0830152806102c0830151610a4084015108612e008301819052612de0830151829109612e208301528061064083015161010009612e4083015280612e40830151820361060084015108612e608301819052610780830151829109612e808301819052610260830151829108612ea083018190526109c0830151829109612ec0830152806102c083015161076084015108612ee08301819052612ec0830151829109612f0083015280612f008301518203612e2084015108612f2083018190526124c0830151829109612f4083015280612f40830151612da084015108612f6083015280612f6083015161042084015109612f8083015280610a408301518203610a0084015108612fa08301819052611300830151829109612fc083015280612fc0830151612f8084015108612fe083015280612fe083015161042084015109613000830152806124c0830151612fa08401510961302083015280610a208301518203610a008401510861304083018190526130208301518291096130608301528061306083015161300084015108613080830152610d40820151819080096130a08301819052610d408301518291096130c08301819052610d408301518291096130e08301819052610d4083015182910961310083015280610d40830151600109613120830152806130a0830151600109613140830152806130c0830151600109613160830152806130e083015160010961318083015280610d60830151613080840151096131a0830152806105c0830151610c00840151096131c08301528060016105c0840151096131e0830152806131e08301518203610b8084015108613200830152807f14c60185e75885d674db4b3f7d4a5694fa6c01aa0f53557b060bc04a4172705f6105c084015109613220830152806132208301518203610b8084015108613240830152807f22b55603586d5fc42c6c14c2fc27a028c207da8b2c71cb33d549fa4a2be5d3026105c084015109613260830152806132608301518203610b8084015108613280830152807f2afd4e77273f1cb3434a4a667929058c156b21573c3f1efc882e708597d7161a6105c0840151096132a0830152806132a08301518203610b80840151086132c083015280817f21054ce8b3cb9dc9b87af5c70c8f54994090ad8fa7e06caaf989ba5806b6798b610c0085015109610b8084015109818183847f0f5f018a2d66025fffd54fef74f203c3e7a33ab8d1d903e64a583b3be9498676610c00880151096105c087015109089050806132e08401525080817f10ac009d2f31395e301635cd6d292978a4012197c24d6e63fb49943a70296136610c0085015109610b8084015109818183847f2696aa2788110c63ebbfd7f92b352ce93b28bbdae57b7cb94bc5885ee439e774610c00880151096105c087015109089050806133008401525080817f2510cae1618713ac17c9ef83f1a67645ed21f454d96bf1f072ca5b463e7f0c28610c0085015109610b8084015109818183847f0d6a07653c64f4112284cb8b23bf73adecaf4ee0fef51998549526f07b6defd7610c00880151096105c08701510908613320840152506132008201518190600109613340830181905261324083015182910961336083018190526132c0830151829109613380830152806001610b80840151098181837f30644e72e131a029b85045b68181585d2833e84879b9709143e1f593f00000006105c087015109089050806133a08401525080817f1d81b9bd5165d63a0d4a8370d37966eb243365d36ca235911564a783f8234cf2610c0085015109610b8084015109818183847f12e294b58fcbc9efab05c245ae07f172040082750d173b002e7d4e0ff7dcb30f610c00880151096105c087015109089050806133c08401525080817f142f93c8919700eddb46a823a63f1726c05e6953fd8ba57ddf6ea70e7ebc8dcf610c0085015109610b8084015109818183847f2707d3cc5788c2cfc0ee9e5f5638da3b90cb6d8b97224a4521073ec9f10826fb610c00880151096105c087015109089050806133e08401525080817f13d3d4db83b42c4d48afa6b5c9cbe3f49703d0caf1fdc301b0d4d3743ab60833610c0085015109610b8084015109818183847f223ed99d38075819043fa85ed3c54f3bfb5d62312139562ca82d9903b1b52e27610c00880151096105c08701510908613400840152506132808201516133608301518291900961342083015280817f1b9e4cecf9d91a534374fa77043701c82dc7e69e6a661b163dd63549ae8d8fa36105c085015109610b8084015109818183847f14c60185e75885d674db4b3f7d4a5694fa6c01aa0f53557b060bc04a4172705e6105c0880151096105c087015109089050806134408401525080817f14c60185e75885d674db4b3f7d4a5694fa6c01aa0f53557b060bc04a4172705e6105c085015109610b8084015109818183847f1a514dd9f80de355133414990bffdc137169ffbf79f1b0988ce4dc4b27adb4e36105c0880151096105c087015109089050806134608401525080817f0566fffbb9f283767505fb50085852d112c8c6f13d7a5194bbb3850e5828e9e86105c085015109610b8084015109818183847f2afd4e77273f1cb3434a4a667929058c156b21573c3f1efc882e708597d716196105c0880151096105c087015109089050806134808401525080817f2afd4e77273f1cb3434a4a667929058c156b21573c3f1efc882e708597d716196105c085015109610b8084015109818183847f20198517670312541561a1720d2538ac357df59dafa0d41bd7235a97f2f364376105c0880151096105c087015109086134a0840152506132c0820151613340830151829190096134c08301526132e08201518181613300850151099050806134e084015281816133208501510990508061350084015281816133a08501510990508061352084015281816133408501510990508061354084015281816133c08501510990508061356084015281816133e0850151099050806135808401528181613400850151099050806135a08401528181613420850151099050806135c08401528181613440850151099050806135e084015281816134608501510990508061360084015281816133608501510990508061362084015281816134808501510990508061364084015281816134a08501510990508061366084015281816134c0850151099050806136808401525060206136c083015260206136e083015260206137008301526136808201516137208301527f30644e72e131a029b85045b68181585d2833e84879b9709143e1f593efffffff6137408301526000805160206155e183398151915261376083015282600160206136a0850160c06136c0870160055afa141692506136a082015160006134c084015190508282613660860151096134c08501528282820991506134a084015190508282613640860151096134a085015282828209915061348084015190508282613620860151096134808501528282820991506133608401519050828261360086015109613360850152828282099150613460840151905082826135e086015109613460850152828282099150613440840151905082826135c086015109613440850152828282099150613420840151905082826135a08601510961342085015282828209915061340084015190508282613580860151096134008501528282820991506133e084015190508282613560860151096133e08501528282820991506133c084015190508282613540860151096133c085015282828209915061334084015190508282613520860151096133408501528282820991506133a084015190508282613500860151096133a0850152828282099150613320840151905082826134e086015109613320850152828282099150613300840151905082826132e086015109613300850152828282096132e08501819052613300850151909250839150829008905081816133208501510861378084015250613340820151613380830151829190096137a08301526133a0820151806137c08401525080613420830151613380840151096137e08301526133c082015181816133e08501510890508181613400850151086138008401525061336082015161338083015182919009613820830152613440820151818161346085015108613840840152506134c08201516133808301518291900961386083015261348082015181816134a085015108613880840152506137808201516137c083015182908290099050806138a08401528181613800850151099050806138c08401528181613840850151099050806138e0840152818161388085015109905080613900840152506020613940830152602061396083015260206139808301526139008201516139a08301527f30644e72e131a029b85045b68181585d2833e84879b9709143e1f593efffffff6139c08301526000805160206155e18339815191526139e08301528260016020613920850160c0613940870160055afa141692506139208201516000613880840151905082826138e086015109613880850152828282099150613840840151905082826138c086015109613840850152828282099150613800840151905082826138a0860151096138008501528282820991506137c084015190508282613780860151096137c08501528282820961378085015250506137c08201516137a083015182919009613a00830152806138008301516137e084015109613a208301528061384083015161382084015109613a408301528061388083015161386084015109613a60830152610a8082015181908009613a808301819052610a80830151829109613aa08301819052610a80830151829109613ac08301819052610a80830151829109613ae08301819052610a80830151829109613b008301819052610a80830151829109613b208301819052610a80830151829109613b408301819052610a80830151829109613b608301819052610a80830151829109613b808301819052610a80830151829109613ba08301819052610a80830151829109613bc08301819052610a80830151829109613be08301819052610a80830151829109613c008301819052610a80830151829109613c208301819052610a80830151829109613c408301819052610a80830151829109613c608301819052610a80830151829109613c808301819052610a80830151829109613ca08301819052610a80830151829109613cc08301819052610a80830151829109613ce0830152610ae082015181908009613d008301819052610ae0830151829109613d208301819052610ae0830151829109613d408301819052610ae0830151829109613d60830152806132e083015161060084015109818183613300860151610640870151090890508181836133208601516106c08701510908613d8084018190526137808401518392509009613da0830152806001613da0840151830309613dc0830152806132e083015161062084015109818183613300860151610660870151090890508181836133208601516106a08701510908613de084018190526137808401518392509009613e008301819052610a808301518291820309613e2083015280610a80830151600109613e4083015280613e20830151613dc084015108613e60830152806001613e6084015109613e80830152806001613e4084015109613ea0830152806137a0830151600109613ec0830152806133a083015161068084015109613ee08301819052613a00830151829109613f00830152806001613f00840151830309613f20830152806001613ec084015109613f40830152806133a0830151610a4084015109613f608301819052613a00830151829109613f808301819052610a808301518291820309613fa083015280610a80830151613ec084015109613fc083015280613fa0830151613f2084015108613fe0830152806133a08301516106e0840151096140008301819052613a008301518291096140208301819052613a80830151829182030961404083015280613a80830151613ec08401510961406083015280614040830151613fe084015108614080830152806133a0830151610700840151096140a08301819052613a008301518291096140c08301819052613aa083015182918203096140e083015280613aa0830151613ec084015109614100830152806140e083015161408084015108614120830152806133a0830151610720840151096141408301819052613a008301518291096141608301819052613ac0830151829182030961418083015280613ac0830151613ec0840151096141a083015280614180830151614120840151086141c0830152806133a0830151610740840151096141e08301819052613a008301518291096142008301819052613ae0830151829182030961422083015280613ae0830151613ec084015109614240830152806142208301516141c084015108614260830152806133a0830151610760840151096142808301819052613a008301518291096142a08301819052613b0083015182918203096142c083015280613b00830151613ec0840151096142e0830152806142c083015161426084015108614300830152806133a0830151610780840151096143208301819052613a008301518291096143408301819052613b20830151829182030961436083015280613b20830151613ec08401510961438083015280614360830151614300840151086143a0830152806133a08301516107a0840151096143c08301819052613a008301518291096143e08301819052613b40830151829182030961440083015280613b40830151613ec084015109614420830152806144008301516143a084015108614440830152806133a08301516107c0840151096144608301819052613a008301518291096144808301819052613b6083015182918203096144a083015280613b60830151613ec0840151096144c0830152806144a0830151614440840151086144e0830152806133a08301516107e0840151096145008301819052613a008301518291096145208301819052613b80830151829182030961454083015280613b80830151613ec084015109614560830152806145408301516144e084015108614580830152806133a0830151610800840151096145a08301819052613a008301518291096145c08301819052613ba083015182918203096145e083015280613ba0830151613ec084015109614600830152806145e083015161458084015108614620830152806133a0830151610820840151096146408301819052613a008301518291096146608301819052613bc0830151829182030961468083015280613bc0830151613ec0840151096146a083015280614680830151614620840151086146c0830152806133a0830151610860840151096146e08301819052613a008301518291096147008301819052613be0830151829182030961472083015280613be0830151613ec084015109614740830152806147208301516146c084015108614760830152806133a0830151610880840151096147808301819052613a008301518291096147a08301819052613c0083015182918203096147c083015280613c00830151613ec0840151096147e0830152806147c083015161476084015108614800830152806133a08301516108a0840151096148208301819052613a008301518291096148408301819052613c20830151829182030961486083015280613c20830151613ec08401510961488083015280614860830151614800840151086148a0830152806133a08301516108c0840151096148c08301819052613a008301518291096148e08301819052613c40830151829182030961490083015280613c40830151613ec084015109614920830152806149008301516148a084015108614940830152806133a08301516108e0840151096149608301819052613a008301518291096149808301819052613c6083015182918203096149a083015280613c60830151613ec0840151096149c0830152806149a0830151614940840151086149e0830152806133a083015161090084015109614a008301819052613a00830151829109614a208301819052613c808301518291820309614a4083015280613c80830151613ec084015109614a6083015280614a408301516149e084015108614a80830152806137a083015161312084015109614aa0830152806137a083015161314084015109614ac0830152806137a083015161316084015109614ae0830152806137a083015161318084015109614b00830152806133a08301516131a084015109614b208301819052613a00830151829109614b408301819052613ca08301518291820309614b6083015280613ca0830151613ec084015109614b8083015280613ca0830151614aa084015109614ba083015280613ca0830151614ac084015109614bc083015280613ca0830151614ae084015109614be083015280613ca0830151614b0084015109614c0083015280614b60830151614a8084015108614c20830152806133a083015161084084015109614c408301819052613a00830151829109614c608301819052613cc08301518291820309614c8083015280613cc0830151613ec084015109614ca083015280614c80830151614c2084015108614cc08301819052610ae0830151829109614ce083015280610ae0830151613f4084015109614d0083015280610ae0830151613fc084015109614d2083015280610ae083015161406084015109614d4083015280610ae083015161410084015109614d6083015280610ae08301516141a084015109614d8083015280610ae083015161424084015109614da083015280610ae08301516142e084015109614dc083015280610ae083015161438084015109614de083015280610ae083015161442084015109614e0083015280610ae08301516144c084015109614e2083015280610ae083015161456084015109614e4083015280610ae083015161460084015109614e6083015280610ae08301516146a084015109614e8083015280610ae083015161474084015109614ea083015280610ae08301516147e084015109614ec083015280610ae083015161488084015109614ee083015280610ae083015161492084015109614f0083015280610ae08301516149c084015109614f2083015280610ae0830151614a6084015109614f4083015280610ae0830151614b8084015109614f6083015280610ae0830151614ba084015109614f8083015280610ae0830151614bc084015109614fa083015280610ae0830151614be084015109614fc083015280610ae0830151614c0084015109614fe083015280610ae0830151614ca08401510961500083015280614ce0830151613e8084015108615020830152806137e0830151600109615040830152806133c0830151610920840151098181836133e08601516109408701510908905081818361340086015161096087015109086150608401819052613a2084015183925090096150808301528060016150808401518303096150a0830152806001615040840151096150c083015280613d008301516150a0840151096150e083015280613d008301516150c084015109615100830152806150e0830151615020840151086151208301528061382083015160010961514083015280613440830151610980840151098181836134608601516109a087015109086151608401819052613a4084015183925090096151808301528060016151808401518303096151a0830152806001615140840151096151c0830152806134408301516109c0840151098181836134608601516109e087015109086151e08401819052613a4084015183925090096152008301819052610a80830151829182030961522083015280610a8083015161514084015109615240830152806152208301516151a0840151086152608301819052613d2083015182910961528083015280613d208301516151c0840151096152a083015280613d20830151615240840151096152c083015280615280830151615120840151086152e08301528061386083015160010961530083015280613480830151610a00840151098181836134a0860151610a2087015109086153208401819052613a6084015183925090096153408301528060016153408401518303096153608301528060016153008401510961538083015280613d40830151615360840151096153a083015280613d40830151615380840151096153c0830152806153a08301516152e0840151086153e08301528061338083015160010961540083015280610b808301516001096154208301526001615440830181815260026154608501526153e084015161548085015284919060409060608160075afa141692506154408201516154a08301526154608201516154c083015260a08201516154e083015260c082015161550083015282600160406154a0850160806154a0870160065afa1416925060e0820151615520830152610100820151615540830152613ea0820151615560830152826001604061552085016060615520870160075afa141692506154a08201516155808301526154c08201516155a08301526155208201516155c08301526155408201516155e0830152826001604061558085016080615580870160065afa14169250610120820151615600830152610140820151615620830152614d00820151615640830152826001604061560085016060615600870160075afa141692506155808201516156608301526155a08201516156808301526156008201516156a08301526156208201516156c0830152826001604061566085016080615660870160065afa141692506102008201516156e0830152610220820151615700830152614d2082015161572083015282600160406156e0850160606156e0870160075afa141692506156608201516157408301526156808201516157608301526156e08201516157808301526157008201516157a0830152826001604061574085016080615740870160065afa141692507f299b12e65399dcea3f1e0ce046cf5f93ce7ba9f779bfa39e7f0c6d4c19628a906157c08301527f21c577122a3d1f4d019b93e724d981b0653ed94f492eafec50945231935f9a956157e0830152614d4082015161580083015282600160406157c0850160606157c0870160075afa141692506157408201516158208301526157608201516158408301526157c08201516158608301526157e0820151615880830152826001604061582085016080615820870160065afa141692507f19d9220141bef25921d474c6e634d06dfb7d7904e59a4ec486a148b00bfd38a36158a08301527f2f38511e53688056b693c84ef69a7ae2b9ab482906dc46ae9d9522fd3ce098b66158c0830152614d608201516158e083015282600160406158a0850160606158a0870160075afa141692506158208201516159008301526158408201516159208301526158a08201516159408301526158c0820151615960830152826001604061590085016080615900870160065afa141692507f17e7cb6a30c4ce9a3d8de604dbaf517b1f23e440acb9e7345938ff5b245a403e6159808301527f1c31a42d7da360cce8262e21fb9a5ef26a23ebbcf6995ccab89aee400c2e994b6159a0830152614d808201516159c0830152826001604061598085016060615980870160075afa141692506159008201516159e0830152615920820151615a00830152615980820151615a208301526159a0820151615a4083015282600160406159e0850160806159e0870160065afa141692507f05591c7faa2c9eaf1c9573a84bddec303219abf496af0899ed438853227dd056615a608301527f2cfa24fde576750b4036dffe40105e6b7244f63843ec74d9d0aad48ba413287c615a80830152614da0820151615aa08301528260016040615a6085016060615a60870160075afa141692506159e0820151615ac0830152615a00820151615ae0830152615a60820151615b00830152615a80820151615b208301528260016040615ac085016080615ac0870160065afa141692507f22e1cdbfffcfcf4f18cf4342edf1fb26c3b6e52ace3d5fadcf5cc2614333baa4615b408301527f0e28df72dcc69cc6442d72f693661997480a913ac353890efd63a873959727c0615b60830152614dc0820151615b808301528260016040615b4085016060615b40870160075afa14169250615ac0820151615ba0830152615ae0820151615bc0830152615b40820151615be0830152615b60820151615c008301528260016040615ba085016080615ba0870160065afa141692507f19206bebc5cc4a5b692c58bc61e7aec6d3fbb8344e39a133699f74e6f40ec2a8615c208301527f0678c7bdd141bd26cbe9336f5dcf1c5a8cf21a5927afd1b2f393152ee02a6a78615c40830152614de0820151615c608301528260016040615c2085016060615c20870160075afa14169250615ba0820151615c80830152615bc0820151615ca0830152615c20820151615cc0830152615c40820151615ce08301528260016040615c8085016080615c80870160065afa141692507f1c6e2343333783b4f48ae7d2681afb3cdf6a4dfbc83a500cb06db3265ad3e5d5615d008301527f1a3d836d4325ff30144c1e2038a4d4025fd0f01af24cfd8dfd54018e64f3b098615d20830152614e00820151615d408301528260016040615d0085016060615d00870160075afa14169250615c80820151615d60830152615ca0820151615d80830152615d00820151615da0830152615d20820151615dc08301528260016040615d6085016080615d60870160065afa141692507f203b21a648fbfb96459640bbc5b41852dd1efc1209c89b635ba638dcb929da6b615de08301527f04e7002f06f2091a44afcd311e93c22f46dd9f3207b5bcc34f0ca7652098f097615e00830152614e20820151615e208301528260016040615de085016060615de0870160075afa14169250615d60820151615e40830152615d80820151615e60830152615de0820151615e80830152615e00820151615ea08301528260016040615e4085016080615e40870160065afa141692507f20ab7490b42f3f7b2b0bbe601a09d72ee93f924801d597f48cf2d443751d5f91615ec08301527f2bca2f1762946a05fb1632550c6cb12c02d18d9bee5bdd4212ca7342888720fd615ee0830152614e40820151615f008301528260016040615ec085016060615ec0870160075afa14169250615e40820151615f20830152615e60820151615f40830152615ec0820151615f60830152615ee0820151615f808301528260016040615f2085016080615f20870160065afa141692507f09e3303245e3b00aca894e9fba3d5184ff3739c664e363f205d42feee327b6aa615fa08301527f13ce92283cc6f648bdda86182d91852aab5c6088ab008d9cdb5522fcbf5c6289615fc0830152614e60820151615fe08301528260016040615fa085016060615fa0870160075afa14169250615f20820151616000830152615f40820151616020830152615fa0820151616040830152615fc0820151616060830152826001604061600085016080616000870160065afa141692507f08a503e7a16684a81991dbfc5ec84c9f4b0f7a506ddf26b67d305ebfc0f817436160808301527f08a2d8e1760ffb16f70147f8b44e781ced65a1e677a786cdd8bc9f947b36131c6160a0830152614e808201516160c0830152826001604061608085016060616080870160075afa141692506160008201516160e08301526160208201516161008301526160808201516161208301526160a082015161614083015282600160406160e0850160806160e0870160065afa141692507f25632bc8012c6cbc6ddda661a9729f544c54620700c3840c01ca5b57e61a1ffe6161608301527f2ba5764c663a4b2892343c303da0f5664e3f620dd6b851a711781704292fd11a616180830152614ea08201516161a0830152826001604061616085016060616160870160075afa141692506160e08201516161c08301526161008201516161e083015261616082015161620083015261618082015161622083015282600160406161c0850160806161c0870160065afa141692507f07cfe4f3152b1996e8eafd718451356c2044e4c239fcc29eb3a81d392e1b44ad6162408301527f255673e224a594e53fd5b1b4dcd46329e72a04e16056dea3d5a17e31291a9960616260830152614ec0820151616280830152826001604061624085016060616240870160075afa141692506161c08201516162a08301526161e08201516162c08301526162408201516162e083015261626082015161630083015282600160406162a0850160806162a0870160065afa141692507f136cb14b351f3b43b5e618c5c49022588edd48550f4e7d69309442e8b83d0d226163208301527f0ee9bbdfce93815e79aabfc5ec92a52346c46a45e17bc5bc9ad8155e982c9cac616340830152614ee0820151616360830152826001604061632085016060616320870160075afa141692506162a08201516163808301526162c08201516163a08301526163208201516163c08301526163408201516163e0830152826001604061638085016080616380870160065afa141692507f0743ea40f14084db2673217283aa053f986896ee7c181f52118442e99c4529746164008301527f0203e3493a2594ece57d22cc75dd081ac68271ec7c758153cfd2152bfb5c19e3616420830152614f00820151616440830152826001604061640085016060616400870160075afa141692506163808201516164608301526163a08201516164808301526164008201516164a08301526164208201516164c0830152826001604061646085016080616460870160065afa141692507f1f5d69f8adc7def353cac5301331f66a6aa12c3bdc46ba8509d81c1922944c1e6164e08301527f050a358c8ee74901afd6bebdda35a25be99ba631232abec0bb7df23428e219eb616500830152614f2082015161652083015282600160406164e0850160606164e0870160075afa141692506164608201516165408301526164808201516165608301526164e08201516165808301526165008201516165a0830152826001604061654085016080616540870160065afa141692507f1ddbf91ceeed88a8c66e9bf8d089b3098dc083f15790870796a7267f25cf9bf06165c08301527f0ab4e80b0091cd40070294f754e54b127e2000572c0344c2838aeeaf251eb3916165e0830152614f4082015161660083015282600160406165c0850160606165c0870160075afa141692506165408201516166208301526165608201516166408301526165c08201516166608301526165e0820151616680830152826001604061662085016080616620870160065afa141692506104608201516166a08301526104808201516166c0830152614f608201516166e083015282600160406166a0850160606166a0870160075afa141692506166208201516167008301526166408201516167208301526166a08201516167408301526166c0820151616760830152826001604061670085016080616700870160065afa141692506104a08201516167808301526104c08201516167a0830152614f808201516167c0830152826001604061678085016060616780870160075afa141692506167008201516167e08301526167208201516168008301526167808201516168208301526167a082015161684083015282600160406167e0850160806167e0870160065afa141692506104e0820151616860830152610500820151616880830152614fa08201516168a0830152826001604061686085016060616860870160075afa141692506167e08201516168c08301526168008201516168e083015261686082015161690083015261688082015161692083015282600160406168c0850160806168c0870160065afa14169250610520820151616940830152610540820151616960830152614fc0820151616980830152826001604061694085016060616940870160075afa141692506168c08201516169a08301526168e08201516169c08301526169408201516169e0830152616960820151616a0083015282600160406169a0850160806169a0870160065afa14169250610560820151616a20830152610580820151616a40830152614fe0820151616a608301528260016040616a2085016060616a20870160075afa141692506169a0820151616a808301526169c0820151616aa0830152616a20820151616ac0830152616a40820151616ae08301528260016040616a8085016080616a80870160065afa141692506103c0820151616b008301526103e0820151616b20830152615000820151616b408301528260016040616b0085016060616b00870160075afa14169250616a80820151616b60830152616aa0820151616b80830152616b00820151616ba0830152616b20820151616bc08301528260016040616b6085016080616b60870160065afa14169250610300820151616be0830152610320820151616c00830152615100820151616c208301528260016040616be085016060616be0870160075afa14169250616b60820151616c40830152616b80820151616c60830152616be0820151616c80830152616c00820151616ca08301528260016040616c4085016080616c40870160065afa14169250610340820151616cc0830152610360820151616ce08301526152a0820151616d008301528260016040616cc085016060616cc0870160075afa14169250616c40820151616d20830152616c60820151616d40830152616cc0820151616d60830152616ce0820151616d808301528260016040616d2085016080616d20870160065afa14169250610380820151616da08301526103a0820151616dc08301526152c0820151616de08301528260016040616da085016060616da0870160075afa14169250616d20820151616e00830152616d40820151616e20830152616da0820151616e40830152616dc0820151616e608301528260016040616e0085016080616e00870160065afa141692506101c0820151616e808301526101e0820151616ea08301526153c0820151616ec08301528260016040616e8085016060616e80870160075afa14169250616e00820151616ee0830152616e20820151616f00830152616e80820151616f20830152616ea0820151616f408301528260016040616ee085016080616ee0870160065afa14169250610b20820151616f60830152610b40820151616f808301526154008201518103616fa0830152508160016040616f6084016060616f60860160075afa14169150616ee0810151616fc0820152616f00810151616fe0820152616f60810151617000820152616f808101516170208201528160016040616fc084016080616fc0860160065afa14169150610bc0810151617040820152610be0810151617060820152615420810151617080820152816001604061704084016060617040860160075afa14169150616fc08101516170a0820152616fe08101516170c08201526170408101516170e082015261706081015161710082015281600160406170a0840160806170a0860160065afa141691506170a08101516171208201526170c08101516171408201527f198e9393920d483a7260bfb731fb5d25f1aa493335a9e71297e485b7aef312c26171608201527f1800deef121f1e76426a00665e5c4479674322d4f75edadd46debd5cd992f6ed6171808201527f090689d0585ff075ec9e99ad690c3395bc4b313370b38ef355acdadcd122975b6171a08201527f12c85ea5db8c6deb4aab71808dcb408fe3d1e7690c43d37b4ce6cc0166fa7daa6171c0820152610bc08101516171e0820152610be08101516172008201527f26186a2d65ee4d2f9c9a5b91f86597d35f192cd120caf7e935d8443d1938e23d6172208201527f30441fd1b5d3370482c42152a8899027716989a6996c2535bc9f7fee8aaef79e6172408201527f16f363f103c80d7bbc8ad3c6867e0822bbc6000be91a4689755c7df40221c1456172608201527f2b1cbb3e521edf5a622d82762a44a5e63f1e50b332d71154a4a7958d6011deff61728082015281600160206171208401610180617120860160085afa61712093909301516001149214161691505092915050565b604051806172800160405280610394906020820280368337509192915050565b634e487b7160e01b600052604160045260246000fd5b604051601f8201601f1916810167ffffffffffffffff8111828210171561548057615480615441565b604052919050565b600082601f83011261549957600080fd5b813567ffffffffffffffff8111156154b3576154b3615441565b6154c6601f8201601f1916602001615457565b8181528460208386010111156154db57600080fd5b816020850160208301376000918101602001919091529392505050565b6000806040838503121561550b57600080fd5b823567ffffffffffffffff8082111561552357600080fd5b818501915085601f83011261553757600080fd5b813560208282111561554b5761554b615441565b8160051b61555a828201615457565b928352848101820192828101908a85111561557457600080fd5b958301955b8487101561559257863582529583019590830190615579565b97505050860135925050808211156155a957600080fd5b506155b685828601615488565b915050925092905056fe30644e72e131a029b85045b68181585d97816a916871ca8d3c208c16d87cfd4730644e72e131a029b85045b68181585d2833e84879b9709143e1f593f0000001a2646970667358221220433d439b616c9b0984aa273d65d03bbc910a575c3fc62a9c5097577b1baffcd564736f6c63430008120033","linkReferences":{},"deployedLinkReferences":{}}