{"_format":"hh-sol-artifact-1","contractName":"InclusionVerifier","sourceName":"src/InclusionVerifier.sol","abi":[{"inputs":[{"internalType":"address","name":"vk","type":"address"},{"internalType":"bytes","name":"proofs","type":"bytes"},{"internalType":"uint256[]","name":"challenges","type":"uint256[]"},{"internalType":"uint256[]","name":"values","type":"uint256[]"}],"name":"verifyProof","outputs":[{"internalType":"bool","name":"","type":"bool"}],"stateMutability":"view","type":"function"}],"bytecode":"0x608060405234801561001057600080fd5b50610459806100206000396000f3fe608060405234801561001057600080fd5b506004361061002b5760003560e01c806347f6b5aa14610030575b600080fd5b61004361003e36600461033c565b610057565b604051901515815260200160405180910390f35b6000610135565b6020820135838110833585811084169190911691856003818085800985090886828309148316925050509392505050565b8160c0528260e05260006040608080608060065afa9091169392505050565b8160c0526000604060806060608060075afa90911692915050565b8160005282602052610280516040526102a0516060526102c0516080526102e05160a0528360c0528460e0526103005161010052610320516101205261034051610140526103605161016052600060206000610180600060085afa600051921690911695945050505050565b7f30644e72e131a029b85045b68181585d97816a916871ca8d3c208c16d87cfd477f30644e72e131a029b85045b68181585d2833e84879b9709143e1f593f0000001600160c06101606102408d3c60843560808106600014821691508161019b57600080fd5b6020816084010180356004811484169350836101b657600080fd5b6020820135610300526040820135610320526060820135610340526080820135610360526020808202830101915050803560208102830460041484169350836101fe57600080fd5b60005b818110156102e257610240516080526102605160a052602081810284010135860360c08190526040820261023582886100ae565b871696508661024357600080fd5b806002870460a40101915061025989838961005e565b96508661026557600080fd5b6020820135913561027783828a61008f565b9750508661028457600080fd5b6080516102005260a0516102205260a40190506102a288828861005e565b9550856102ae57600080fd5b8035602082013591506102ca828261022051610200518b6100c9565b871696505050846102da57600080fd5b600101610201565b505050508060005260206000f35b60008083601f84011261030257600080fd5b50813567ffffffffffffffff81111561031a57600080fd5b6020830191508360208260051b850101111561033557600080fd5b9250929050565b60008060008060008060006080888a03121561035757600080fd5b87356001600160a01b038116811461036e57600080fd5b9650602088013567ffffffffffffffff8082111561038b57600080fd5b818a0191508a601f83011261039f57600080fd5b8135818111156103ae57600080fd5b8b60208285010111156103c057600080fd5b6020830198508097505060408a01359150808211156103de57600080fd5b6103ea8b838c016102f0565b909650945060608a013591508082111561040357600080fd5b506104108a828b016102f0565b989b979a5095985093969295929350505056fea26469706673582212207e5e1287edc06ab08a7594afbc051dee662a5f5969372ab655cac10baa4d2fb264736f6c63430008120033","linkReferences":{},"deployedLinkReferences":{}}