{"_format":"hh-sol-artifact-1","contractName":"Verifier","sourceName":"src/SnarkVerifier.sol","abi":[{"inputs":[{"internalType":"address","name":"vk","type":"address"},{"internalType":"bytes","name":"proof","type":"bytes"},{"internalType":"uint256[]","name":"instances","type":"uint256[]"}],"name":"verifyProof","outputs":[{"internalType":"bool","name":"","type":"bool"}],"stateMutability":"view","type":"function"}],"bytecode":"0x608060405234801561001057600080fd5b5061226b806100206000396000f3fe608060405234801561001057600080fd5b506004361061002b5760003560e01c8063af83a18d14610030575b600080fd5b61004361003e366004612178565b610057565b604051901515815260200160405180910390f35b6000610263565b60008060008435602086013588821086169450888110851694508860038a8b858609850908898283099289526020890191909152149290921696604094850196509390940193505050565b60016020536021600090812092830682529190915260200190565b6000838351602085015b602087038110156100f0578781518309808452602093840193909250016100ce565b8781518309915060208352602080840152602060408401528160608401526002880360808401528760a084015260208360c08560055afa851693508251915085602081016020850394505b828110156101635789855185098a84518609908452601f19958601959094509092019161013b565b8981518509945089825185099490915292909252509095945050505050565b81604052826060526000604060006080600060065afa9091169392505050565b816040526000604060006060600060075afa90911692915050565b8160c0528260e05260006040608080608060065afa9091169392505050565b8160c0526000604060806060608060075afa90911692915050565b8160005282602052610c2051604052610c4051606052610c6051608052610c805160a0528360c0528460e052610ca05161010052610cc05161012052610ce05161014052610d005161016052600060206000610180600060085afa600051921690911695945050505050565b7f30644e72e131a029b85045b68181585d97816a916871ca8d3c208c16d87cfd477f30644e72e131a029b85045b68181585d2833e84879b9709143e1f593f000000160016105e06000610a808b3c6064356116a01481169050610b405161172435811482169150610a805160005260206117448260200281015b8082101561030057813580845286119490941693602092830192909101906102dd565b506084925061106090506103c45b8084101561032d576103228784868861005e565b94509450945061030e565b5060009182208581068252909152602090810161040083015b808410156103655761035a8784868861005e565b945094509450610346565b5060009182208581068252909152602090810161038285826100a9565b90506103c083015b808410156103a95761039e8784868861005e565b94509450945061038a565b5060009182208581068252909152602090810160c083015b808410156103e0576103d58784868861005e565b9450945094506103c1565b50600091822085810682529091526020908101610a6083015b8084101561041c57833580845286119490941693602093840193909201916103f9565b5060009182208581068252909152602090810161043985826100a9565b90506104478683858761005e565b600090812088810690945292909252935091506020905061046a8582848661005e565b9250925092505050610b60511561053757610ba051610bc0516020610b805102611744016020830260028102600382028335838501358386013583870135896020028801895b818a10156104ee5760208a0199508935811b86019550888a0135811b85019450878a0135811b84019350868a0135811b830192508a810190506104b0565b50508c60038e8f8788098709088d848509148b169a508c60038e8f8586098509088d828309148b169a5083611160528261118052816111a052806111c052505050505050505050505b8061054157600080fd5b610aa05192506110e0518060005b858110156105655784828309915060010161054f565b50610ae05194506111e06006610b4051016020028101610b4051610587576020015b610b20515b818310156105ad57868188038608835286888209905060208301925061058c565b508560018703840893508381526105cb86602083016111e0886100c4565b94506111e0915085610ac05185099350610b20515b8183101561060357868782855109860983528688820990506020830192506105e0565b5061120051965061122093506112a091505b8184101561062f5785845188089650602084019350610615565b60009150611744610b405160200281015b80821015610664578788833588510985089350602082019150602086019550610640565b5050516111e080516112a0519490915261120091909152611220526112409590955261126081905261128094909452506110c0516000937f09226b6e22c6f0ca64ec26aad4c86e715b5f898e5e963f25870e56bbe533e9a291908480610f8435830986038208955050611164358480828103818480090861122051099050848186848909089550508384610fc4358603610fe435086112605109848186848909089550508384611024358603611044350861126051098481868489090895505083846110843586036110a4350861126051098481868489090895505083846110e43586036111043508611260510984818684890908955050838461114435860361116435086112605109848186848909089550506110a05161108051610fa435610f84358788858a8b610e04358809610dc4350808830991508788858a8b610e2435880961128051080883099150876110e05184096000528788858a600051610dc4350808820990508786600051096000528788858a6000516112805108088209905087866000510960005287818903830893505050508485866112405161122051088309860382089050848186848909089550506110a0516110805161100435610fe4358788858a8b610e44358809610c44350808830991508788858a8b610e64358809610c64350808830991508788858a600051610c44350808820990508786600051096000528788858a600051610c643508088209905087866000510960005287818903830893505050508485866112405161122051088309860382089050848186848909089550506110a0516110805161106435611044358788858a8b610e84358809610c84350808830991508788858a8b610ea4358809610ca4350808830991508788858a600051610c84350808820990508786600051096000528788858a600051610ca43508088209905087866000510960005287818903830893505050508485866112405161122051088309860382089050848186848909089550506110a051611080516110c4356110a4358788858a8b610ec4358809610cc4350808830991508788858a8b610ee4358809610d04350808830991508788858a600051610cc4350808820990508786600051096000528788858a600051610d043508088209905087866000510960005287818903830893505050508485866112405161122051088309860382089050848186848909089550506110a0516110805161112435611104358788858a8b610f04358809610d24350808830991508788858a8b610f24358809610d44350808830991508788858a600051610d24350808820990508786600051096000528788858a600051610d443508088209905087866000510960005287818903830893505050508485866112405161122051088309860382089050848186848909089550506110a0516110805161118435611164358788858a8b610f44358809610d64350808830991508788858a8b610f64358809610d84350808830991508788858a600051610d64350808820990508786600051096000528788858a600051610d843508088209905087818903830893505050508485866112405161122051088309860382089050848186848909089550506112605184856111a4358703830982089050848186848909089550506112205184856111a4358703876111a4356111a43509088209905084818684890908955060009050610ce435610c4435620100008781830988039150879050818308611080516110a051919450610dc435935091508780808361122435088a856111e43508096111c4350988898a8487088b868908096111a4350994508889868b0383088a8b6112205161124051088c03600108099450505050508481868489090895505083846112243586036111e435086112605109848186848909089550508384856112043587036111e43508866112243588036111e43508098586611220516112405108870360010809848186848909089550506112605184856112443587038309820890508481868489090895505061122051848561124435870387611244356112443509088209905084818684890908955060009050610c4435610c6435620100008781830988039150879050818308611080516110a051919450610dc43593509150878080836112c435088a85611284350809611264350988898a8487088b86890809611244350994508889868b0383088a8b6112205161124051088c03600108099450505050508481868489090895505083846112c435860361128435086112605109848186848909089550508384856112a43587036112843508866112c43588036112843508098586611220516112405108870360010809848186848909089550506112605184856112e4358703830982089050848186848909089550506112205184856112e4358703876112e4356112e43509088209905084818684890908955060009050610c6435610c8435620100008781830988039150879050818308611080516110a051919450610dc435935091508780808361136435088a85611324350809611304350988898a8487088b868908096112e4350994508889868b0383088a8b6112205161124051088c036001080994505050505084818684890908955050838461136435860361132435086112605109848186848909089550508384856113443587036113243508866113643588036113243508098586611220516112405108870360010809848186848909089550506112605184856113843587038309820890508481868489090895505061122051848561138435870387611384356113843509088209905084818684890908955060009050610c8435610ca435620100008781830988039150879050818308611080516110a051919450610dc435935091508780808361140435088a856113c43508096113a4350988898a8487088b86890809611384350994508889868b0383088a8b6112205161124051088c03600108099450505050508481868489090895505083846114043586036113c435086112605109848186848909089550508384856113e43587036113c43508866114043588036113c43508098586611220516112405108870360010809848186848909089550506112605184856114243587038309820890508481868489090895505061122051848561142435870387611424356114243509088209905084818684890908955060009050610da435610d0435620100008781830988039150879050818308611080516110a051919450610dc43593509150878080836114a435088a85611464350809611444350988898a8487088b86890809611424350994508889868b0383088a8b6112205161124051088c03600108099450505050508481868489090895505083846114a435860361146435086112605109848186848909089550508384856114843587036114643508866114a43588036114643508098586611220516112405108870360010809848186848909089550506112605184856114c4358703830982089050848186848909089550506112205184856114c4358703876114c4356114c43509088209905084818684890908955060009050610d0435610d2435620100008781830988039150879050818308611080516110a051919450610dc435935091508780808361154435088a856115043508096114e4350988898a8487088b868908096114c4350994508889868b0383088a8b6112205161124051088c036001080994505050505084818684890908955050838461154435860361150435086112605109848186848909089550508384856115243587036115043508866115443588036115043508098586611220516112405108870360010809848186848909089550506112605184856115643587038309820890508481868489090895505061122051848561156435870387611564356115643509088209905084818684890908955060009050610d2435610d4435620100008781830988039150879050818308611080516110a051919450610dc43593509150878080836115e435088a856115a4350809611584350988898a8487088b86890809611564350994508889868b0383088a8b6112205161124051088c03600108099450505050508481868489090895505083846115e43586036115a435086112605109848186848909089550508384856115c43587036115a43508866115e43588036115a43508098586611220516112405108870360010809848186848909089550506112605184856116043587038309820890508481868489090895505061122051848561160435870387611604356116043509088209905084818684890908955060009050610d4435610d6435620100008781830988039150879050818308611080516110a051919450610dc435935091508780808361168435088a85611644350809611624350988898a8487088b86890809611604350994508889868b0383088a8b6112205161124051088c036001080994505050505084818684890908955050838461168435860361164435086112605109848186848909089550508384856116643587036116443508866116843588036116443508098586611220516112405108870360010809848186848909089550505050816112005184096112a052610c0435600052610c24356020526111e0519250610bc4610b445b818110156113f4576113d585846101a2565b92506113e76020830135833585610182565b92506040820391506113c3565b50506000516112c0526020516112e0526110e0519250610ae051610b0051838286099150816103605284610340528381860991508161032052838183099150838183099150838183099150838183099150838183099150508061030052506111405192506103806104006103005b8183101561147f5784815186038708835260209283019201611462565b50506103c0516104005250610380516103a051909350829084099250816103e05184096104208190526000526103a0516104408190526103805193508290840961046052610380516103e05190935082908409610480526103c0516001935082908409602052610300516103405161036051919450906000848381038708905084858387038808820990508461038051820990508060405284868603840890508485838703850882099050846103c051820990508060605284868603830890508485848703840882099050846103e051820960805250506103405161036051909450905060008382810386089050836103c051820990508060a0528385850383089050836103e051820960c0525050610320516103405190935060008382810386089050836103a051820990508060e0528385850383089050836103c051820961010052506115d59050826101206000846100c4565b9050600051925082610420526104406104a05b8082101561160257838583510982526020820191506115e8565b505060205192506111005160008384610de43587098208905083828209905083846112a051870982089050610f64610de45b818110156116545785868335890987868609089250602082039150611634565b50508382820990508384610dc43587098208905083828209905083846116843587098208905083828209905083846115e43587098208905083828209905083846115443587098208905083828209905083846114a43587098208905083828209905083846114043587098208905083828209905083846113643587098208905083828209905083846112c435870982089050838282099050838461122435870982089050610da4610c245b8181101561171f57858683358909878686090892506020820391506116ff565b5050806104a0525050611100519250600082836111443560405109820890508283611104356060510982089050828361112435608051098208905082848209905082836110e435604051098208905082836110a435606051098208905082836110c435608051098208905082848209905082836110843560405109820890508283611044356060510982089050828361106435608051098208905082848209905082836110243560405109820890508283610fe435606051098208905082836110043560805109820890508284820990508283610fc43560405109820890508283610f843560605109820890508283610fa4356080510982089050826104405182099050806104c05250611100519250600082836116043560a051098208905082836116243560c051098208905082848209905082836115643560a051098208905082836115843560c051098208905082848209905082836114c43560a051098208905082836114e43560c051098208905082848209905082836114243560a051098208905082836114443560c051098208905082848209905082836113843560a051098208905082836113a43560c051098208905082848209905082836112e43560a051098208905082836113043560c051098208905082848209905082836112443560a051098208905082836112643560c051098208905082848209905082836111a43560a051098208905082836111c43560c051098208905082848209905082836111643560a051098208905082836111843560c0510982089050826104605182099050806104e05250611100519250600082836116643560e051098208905082836116443561010051098208905082848209905082836115c43560e051098208905082836115a43561010051098208905082848209905082836115243560e051098208905082836115043561010051098208905082848209905082836114843560e051098208905082836114643561010051098208905082848209905082836113e43560e051098208905082836113c43561010051098208905082848209905082836113443560e051098208905082836113243561010051098208905082848209905082836112a43560e051098208905082836112843561010051098208905082848209905082836112043560e051098208905082836111e435610100510982089050826104805182096105005250602051610520526040516060519093508290840892508160805184086105405260a05160c051909350829084086105605260e0516101005190935082908408610580526000925060806105205b81851015611af7578051855260209485019401611adf565b5050611b078260806000846100c4565b90508161050051606051099250604060806104e05b81831015611b45578461112051870995508485825185510987089550601f199283019201611b1c565b5050508261130052611120519250610b4435600052610b6435602052611b6e61110051826101a2565b9050611b816112e0516112c05183610182565b9050611020610ce05b81811015611bbe57611b9f61110051846101a2565b9250611bb16020830151835185610182565b9250604082039150611b8a565b5050611bcd61110051826101a2565b9050611be06107a4356107843583610182565b9050611bef61110051826101a2565b9050611c02610724356107043583610182565b9050611c1161110051826101a2565b9050611c246106a4356106843583610182565b9050611c3361110051826101a2565b9050611c46610624356106043583610182565b9050611c5561110051826101a2565b9050611c686105a4356105843583610182565b9050611c7761110051826101a2565b9050611c8a610524356105043583610182565b9050611c9961110051826101a2565b9050611cac6104a4356104843583610182565b9050611cbb61110051826101a2565b9050611cce610424356104043583610182565b9050611cdd61110051826101a2565b9050611cf0610124356101043583610182565b90506103846102445b81811015611d2d57611d0e61110051846101a2565b9250611d206020830135833585610182565b9250604082039150611cf9565b5050611d3c61110051826101a2565b9050611d4d60e43560c43583610182565b90506102446101045b81811015611d8a57611d6b61110051846101a2565b9250611d7d6020830135833585610182565b9250604082039150611d56565b50506108c4356080526108e43560a0526108846107845b81811015611dd557611db661110051846101dc565b9250611dc860208301358335856101bd565b9250604082039150611da1565b5050611de782610440518509826101dc565b9050611df860a05160805183610182565b9050816111205184099250610b0435608052610b243560a052610ac46108c45b81811015611e4c57611e2d61110051846101dc565b9250611e3f60208301358335856101bd565b9250604082039150611e18565b5050611e5e82610460518509826101dc565b9050611e6f60a05160805183610182565b9050816111205184099250610744356080526107643560a052611e9561110051826101dc565b9050611ea86106e4356106c435836101bd565b9050611eb761110051826101dc565b9050611eca6106643561064435836101bd565b9050611ed961110051826101dc565b9050611eec6105e4356105c435836101bd565b9050611efb61110051826101dc565b9050611f0e6105643561054435836101bd565b9050611f1d61110051826101dc565b9050611f306104e4356104c435836101bd565b9050611f3f61110051826101dc565b9050611f526104643561044435836101bd565b9050611f6161110051826101dc565b9050611f746103e4356103c435836101bd565b9050611f8682610480518509826101dc565b9050611f9760a05160805183610182565b9050610be051608052610c005160a052611fb6611300518303826101dc565b9050611fc760a05160805183610182565b90506116a4356080526116c43560a052611fe6610400518303826101dc565b9050611ff760a05160805183610182565b90506116e4356080526117043560a05261201461114051826101dc565b905061202560a05160805183610182565b905060005161132052602051611340526116e435611360526117043561138052610b6051156120f95761116051600052611180516020526111a0516040526111c051606052611320516080526113405160a0526113605160c0526113805160e0528161010060002006925061209a83826101a2565b90506120ad611340516113205183610182565b905060005161132052602051611340526111a0516000526111c0516020526120d583826101a2565b90506120e8611380516113605183610182565b905060005161136052602051611380525b61211261138051611360516113405161132051856101f7565b90508061211e57600080fd5b505050600160005260206000f35b60008083601f84011261213e57600080fd5b50813567ffffffffffffffff81111561215657600080fd5b6020830191508360208260051b850101111561217157600080fd5b9250929050565b60008060008060006060868803121561219057600080fd5b85356001600160a01b03811681146121a757600080fd5b9450602086013567ffffffffffffffff808211156121c457600080fd5b818801915088601f8301126121d857600080fd5b8135818111156121e757600080fd5b8960208285010111156121f957600080fd5b60208301965080955050604088013591508082111561221757600080fd5b506122248882890161212c565b96999598509396509294939250505056fea2646970667358221220edbb0fb9f77375dd45eebd2a0418b6d3472cffee60819acacae6b096f78f283c64736f6c63430008120033","linkReferences":{},"deployedLinkReferences":{}}