{"_format":"hh-sol-artifact-1","contractName":"Verifier","sourceName":"src/SolvencyVerifier.sol","abi":[{"inputs":[{"internalType":"uint256[]","name":"pubInputs","type":"uint256[]"},{"internalType":"bytes","name":"proof","type":"bytes"}],"name":"verify","outputs":[{"internalType":"bool","name":"","type":"bool"}],"stateMutability":"view","type":"function"}],"bytecode":"0x608060405234801561001057600080fd5b50615012806100206000396000f3fe608060405234801561001057600080fd5b506004361061002b5760003560e01c8063bd205a9014610030575b600080fd5b61004361003e366004614ed4565b610057565b604051901515815260200160405180910390f35b60006001610063614dfd565b600080516020614fbd8339815191526100d9565b600080516020614f9d8339815191528083108183101690838009600080516020614f9d833981519152838409600080516020614f9d8339815191528482099050600080516020614f9d8339815191526003820891909114919091169392505050565b8060208701510660208301528060408701510660408301528060608701510660608301527f162698bb2e5742e2b979910eff5bafabe8cc6b6c6eababb6a53627888c03be856000830152602085015180608084015260408601518060a0850152846101448284610077565b169450505060608501518060c084015260808601518060e08501528461016a8284610077565b169450505060a08501518061010084015260c086015180610120850152846101928284610077565b16945050506101406000830120610140830152610140820151818106610160840152806101808401525060e0850151806101a0840152610100860151806101c0850152846101e08284610077565b1694505050610120850151806101e0840152610140860151806102008501528461020a8284610077565b60a061018087012061022087018190528581066102408801526102608701521694506001915050610280830153602161026083012061028083018190528181066102a08401526102c08301526101608501516102e0830181905261018086015161030084018190528461027d8284610077565b16945050506101a0850151806103208401526101c086015180610340850152846102a78284610077565b16945050506101e08501518061036084015261020086015180610380850152846102d18284610077565b1694505050610220850151806103a0840152610240860151806103c0850152846102fb8284610077565b16945050506101206102c08301206103e08301526103e0820151818106610400840152806104208401525061026085015180610440840152610280860151806104608501528461034b8284610077565b16945050506102a0850151806104808401526102c0860151806104a0850152846103758284610077565b16945050506102e0850151806104c0840152610300860151806104e08501528461039f8284610077565b16945050506103208501518061050084015261034086015180610520850152846103c98284610077565b16945050506103608501518061054084015261038086015180610560850152846103f38284610077565b16945050506101606104208301206105808301526105808201518181066105a0840152806105c084015250806103a0860151066105e0830152806103c086015106610600830152806103e08601510661062083015280610400860151066106408301528061042086015106610660830152806104408601510661068083015280610460860151066106a083015280610480860151066106c0830152806104a0860151066106e0830152806104c086015106610700830152806104e08601510661072083015280610500860151066107408301528061052086015106610760830152806105408601510661078083015280610560860151066107a083015280610580860151066107c0830152806105a0860151066107e0830152806105c086015106610800830152806105e08601510661082083015280610600860151066108408301528061062086015106610860830152806106408601510661088083015280610660860151066108a083015280610680860151066108c0830152806106a0860151066108e0830152806106c086015106610900830152806106e08601510661092083015280610700860151066109408301528061072086015106610960830152806107408601510661098083015280610760860151066109a083015280610780860151066109c0830152806107a0860151066109e08301526104406105c0830120610a00830152610a00820151818106610a2084015280610a40840152506001610a608301536021610a40830120610a608301819052818106610a80840152610aa08301526107c0850151610ac083018190526107e0860151610ae08401819052846106608284610077565b16945050506060610aa0830120610b00830152610b00820151818106610b2084015280610b408401525061080085015180610b6084015261082086015180610b80850152846106af8284610077565b1694505050806105a08301516105a084015109610ba0830181905281908009610bc0830181905281908009610be0830181905281908009610c00830181905281908009610c20830181905281908009610c40830181905281908009610c60830181905281908009610c80830181905281908009610ca0830181905281908009610cc0830152807f30644e72e131a029b85045b68181585d2833e84879b9709143e1f593f0000000610cc084015108610ce0830152807f3058355f447953c1ade231a513e0f80710e9db4e679b02351f90fd168b040001610ce084015109610d00830152807f15f79db9c39181bc3e31c83f9291da76eedf1b23c410add7e9098464aaa4fb26610d0084015109610d20830152807f1a6cb0b91da01e6d7a1e7d76eeef7de63954cd24b5a8c2b95ad8712f455b04db6105a084015108610d40830152807f03b743d74fd9ddb41f920179ac30e04b0ebd93e580b9c0b50061087904110bd4610d0084015109610d60830152807f2cad0a9b9157c27598be443cd550781219765462f8ffafdc4380ed1aebeef42d6105a084015108610d80830152807f1f4d7180df5014849825f3c9b0e89d79432c51f48eb5846ae63b433f28aba10b610d0084015109610da0830152807f1116dcf201e18ba5202a51ecd098bae3e5079653eb03ec265da6b254c7545ef66105a084015108610dc0830152807f22b55603586d5fc42c6c14c2fc27a028c207da8b2c71cb33d549fa4a2be5d302610d0084015109610de0830152807f0daef86f88c440658be430f38559b834662c0dbd4d47a55d6e97fb49c41a2cff6105a084015108610e00830152807f096b9f8b8598b7c387fb69abf236b0d5e04e24d275ee98244443eda5d3bc4035610d0084015109610e20830152807f26f8aee75b98e8663054dc0a8f4aa78747e5c37603cad86cff9e07ee1c43bfcc6105a084015108610e40830152807f0ae3c95fc03c0a5f2de8a8f46c03ccdfdfed2bb98c9e4ae0b10b15eda4e3b1e3610d0084015109610e60830152807f2580851320f595ca8a679cc2157d8b7d4846bc8eed1b25b092d6dfa64b1c4e1e6105a084015108610e80830152806001610d0084015109610ea0830152807f30644e72e131a029b85045b68181585d2833e84879b9709143e1f593f00000006105a084015108610ec0830152807f2ad9021ed07c42ab19f77c5cf2cbd2deb135ea330f1b1573bd08d99309c4bb7d610d0084015109610ee0830152807f058b4c5410b55d7e9e58c9598eb5857e76fdfe156a9e5b1d86d91c00e63b44846105a084015108610f00830152807f0dd30b9ad8c173555d2a33029bc807ac165b61281e9054a173af7ff4e4fc88fc610d0084015109610f20830152807f229142d808702cd45b2612b3e5b950b111d887205b291befd032759f0b0377056105a084015108610f40830152610d408201518181610d8085015109905080610f608401528181610dc085015109905080610f808401528181610e0085015109905080610fa08401528181610e4085015109905080610fc08401528181610e8085015109905080610fe08401528181610ec0850151099050806110008401528181610f00850151099050806110208401528181610f40850151099050806110408401528181610ce0850151099050806110608401525060206110a083015260206110c083015260206110e08301526110608201516111008301527f30644e72e131a029b85045b68181585d2833e84879b9709143e1f593efffffff611120830152600080516020614fbd8339815191526111408301528260016020611080850160c06110a0870160055afa141692506110808201516000610ce08401519050828261104086015109610ce0850152828282099150610f408401519050828261102086015109610f40850152828282099150610f008401519050828261100086015109610f00850152828282099150610ec084015190508282610fe086015109610ec0850152828282099150610e8084015190508282610fc086015109610e80850152828282099150610e4084015190508282610fa086015109610e40850152828282099150610e0084015190508282610f8086015109610e00850152828282099150610dc084015190508282610f6086015109610dc0850152828282099150610d8084015190508282610d4086015109610d8085015282828209610d408501819052610d208501518493509091500961116083015280610d80830151610d608401510961118083015280610dc0830151610da0840151096111a083015280610e00830151610de0840151096111c083015280610e40830151610e20840151096111e083015280610e80830151610e608401510961120083015280610ec0830151610ea08401510961122083015280610f00830151610ee08401510961124083015280610f40830151610f20840151096112608301528060208301516112208401510981818360408601516112408701510908905081818360608601516112608701510908611280840152506107208201516105e0830151829190086112a08301819052819080096112c08301819052819080096112e0830152806112e08301516112a084015109611300830152807f066f6f85d6f68a85ec10345351a23a3aaf07f38af8c952a7bceca70bd2af7ad561130084015109611320830152806107408301516106008401510861134083018190528190800961136083018190528190800961138083015280611380830151611340840151096113a0830152807f2b9d4b4110c9ae997782e1509b1d0fdb20a7c02bbd8bea7305462b9f8125b1e86113a0840151096113c0830152806113c0830151611320840151086113e08301528061062083015182036113e08401510861140083018190526107a08301518291096114208301528061142083015161040084015109611440830152807f0cc57cdbb08507d62bf67a4493cc262fb6c09d557013fff1f573f431221f8ff961130084015109611460830152807f1274e649a32ed355a31a6ed69724e1adade857e86eb5c3a121bcd147943203c86113a08401510961148083015280611480830151611460840151086114a08301528061064083015182036114a0840151086114c083018190526107a08301518291096114e0830152806114e08301516114408401510861150083015280611500830151610400840151096115208301528061066083015182036113008401510861154083018190526107c0830151829109611560830152806115608301516115208401510861158083015280611580830151610400840151096115a0830152807f066f6f85d6f68a85ec10345351a23a3aaf07f38af8c952a7bceca70bd2af7ad5610660840151096115c0830152807f2b9d4b4110c9ae997782e1509b1d0fdb20a7c02bbd8bea7305462b9f8125b1e8611340840151096115e0830152806115e08301516115c08401510861160083018190526106e08301518291086116208301819052819080096116408301819052819080096116608301528061166083015161162084015109611680830152807f13abec390ada7f4370819ab1c7846f210554569d9b29d1ea8dbebd0fa8c53e66610620840151096116a0830152807f1eb9e1dc19a33a624c9862a1d97d1510bd521ead5dfe0345aaf6185b1a1e60fe610640840151096116c0830152806116c08301516116a0840151086116e0830152806116e083015182036116808401510861170083018190526107c0830151829109611720830152806117208301516115a0840151086117408301528061174083015161040084015109611760830152807f0cc57cdbb08507d62bf67a4493cc262fb6c09d557013fff1f573f431221f8ff961066084015109611780830152807f1274e649a32ed355a31a6ed69724e1adade857e86eb5c3a121bcd147943203c8611340840151096117a0830152806117a0830151611780840151086117c083018190526107008301518291086117e0830152807f0fc1c9394db89bb2601abc49fdad4f038ce5169030a2ad69763f7875036bcb0261062084015109611800830152807f16a9e98c493a902b9502054edc03e7b22b7eac34345961bc8abced6bd147c8be6106408401510961182083015280611820830151611800840151086118408301528061184083015182036117e08401510861186083018190526107c083015182910961188083015280611880830151611760840151086118a0830152806118a0830151610400840151096118c08301528061078083015182036001086118e0830181905261078083015182910961190083015280610780830151820360020861192083018190526119008301518291096119408301528061078083015182036003086119608301819052611940830151829109611980830152806105e08301516106a0840151086119a08301528061062083015182036119a0840151086119c083018190526119808301518291096119e0830152806119e08301516118c084015108611a0083015280611a0083015161040084015109611a2083015280610640830151820361068084015108611a408301819052611980830151829109611a6083015280611a60830151611a2084015108611a8083015280611a8083015161040084015109611aa08301528061078083015161192084015109611ac083015280611ac083015161196084015109611ae0830152806107808301518203600408611b008301819052611ae0830151829109611b2083015280611b2083015161066084015109611b40830152806106608301518203600108611b608301819052611b40830151829109611b8083015280611b80830151611aa084015108611ba083015280611ba083015161040084015109611bc083015280610660830151600209611be0830152806105e0830151820361060084015108611c008301819052611be0830151829109611c20830152806105e0830151820361062084015108611c4083015280611c408301518203611c2084015108611c6083015280610640830151820361060084015108611c8083015280611c808301518203611c6084015108611ca08301819052611b20830151829109611cc083015280611cc0830151611bc084015108611ce083015280611ce083015161040084015109611d008301528061190083015161196084015109611d2083015280611d20830151611b0084015109611d40830152806106008301516105e084015108611d60830152806106608301518203611d6084015108611d808301819052611d40830151829109611da083015280611da0830151611d0084015108611dc083015280611dc083015161040084015109611de08301819052611da0830151829108611e0083015280611e0083015161040084015109611e2083015280611940830151611b0084015109611e408301528061060083015182036105e084015108611e6083015280600160701b611e6084015108611e80830152806106608301518203611e8084015108611ea08301819052611e40830151829109611ec083015280611ec0830151611e2084015108611ee083015280611ee083015161040084015109611f00830152806108c08301518203600108611f208301819052611220830151829109611f4083015280611f40830151611f0084015108611f6083015280611f6083015161040084015109611f8083015261092082015181908009611fa0830152806109208301518203611fa084015108611fc08301819052611160830151829109611fe083015280611fe0830151611f80840151086120008301528061200083015161040084015109612020830152806109008301518203610920840151086120408301819052611220830151829109612060830152806120608301516120208401510861208083015280612080830151610400840151096120a08301528061116083015182036001086120c0830152806111a0830151611180840151086120e083018190526111c083015182910861210083018190526111e083015182910861212083018190526112008301518291086121408301528061214083015182036120c0840151086121608301528061024083015161080084015109612180830152806121808301516106e0840151086121a083018190526102a08301518291086121c083015280610240830151610820840151096121e0830152806121e08301516105e08401510861220083018190526102a083015182910861222083018190526121c08301518291096122408301528061024083015161084084015109612260830152806122608301516106008401510861228083018190526102a08301518291086122a083018190526122408301518291096122c083015280610240830151610860840151096122e0830152806122e08301516107008401510861230083018190526102a083015182910861232083018190526122c083015182910961234083018190526108e083015182910961236083015280610240830151600109612380830152806123808301516105a0840151096123a0830152806123a08301516106e0840151086123c083018190526102a08301518291086123e0830152806102408301517f09226b6e22c6f0ca64ec26aad4c86e715b5f898e5e963f25870e56bbe533e9a209612400830152806124008301516105a084015109612420830152806124208301516105e08401510861244083018190526102a083015182910861246083018190526123e0830151829109612480830152806102408301517f13b360d4e82fe915fed16081038f98c211427b87a281bd733c277dbadf10372b096124a0830152806124a08301516105a0840151096124c0830152806124c0830151610600840151086124e083018190526102a08301518291086125008301819052612480830151829109612520830152806102408301517f18afdf23e9bd9302673fc1e076a492d4d65bd18ebc4d854ed189139bab313e5209612540830152806125408301516105a084015109612560830152806125608301516107008401510861258083018190526102a08301518291086125a083018190526125208301518291096125c083018190526108c08301518291096125e0830152806125e08301518203612360840151086126008301819052612160830151829109612620830152806126208301516120a0840151086126408301528061264083015161040084015109612660830152806102408301516108808401510961268083015280612680830151610660840151086126a083018190526102a08301518291086126c0830152806102408301516108a0840151096126e0830152806126e08301516112808401510861270083018190526102a083015182910861272083018190526126c08301518291096127408301819052610940830151829109612760830152806102408301517ea136ba13afa6c83eb7b82fb370e228e74155e48fb8f1c1cfc33fb0da8afb4209612780830152806127808301516105a0840151096127a0830152806127a0830151610660840151086127c083018190526102a08301518291086127e0830152806102408301517f2eb9750dce545f17d492058dd201a1251ff3d9077864583d44eaf9be9008699d09612800830152806128008301516105a084015109612820830152806128208301516112808401510861284083018190526102a083015182910861286083018190526127e083015182910961288083018190526109208301518291096128a0830152806128a08301518203612760840151086128c083018190526121608301518291096128e0830152806128e08301516126608401510861290083015280612900830151610400840151096129208301528061096083015182036001086129408301819052611220830151829109612960830152806129608301516129208401510861298083015280612980830151610400840151096129a0830152610960820151819080096129c08301528061096083015182036129c0840151086129e08301819052611160830151829109612a0083015280612a008301516129a084015108612a2083015280612a2083015161040084015109612a40830152806102408301516109a084015108612a608301819052610980830151829109612a80830152806102a08301516109e084015108612aa08301819052612a80830151829109612ac0830152806106c083015161010009612ae083015280612ae0830151820361066084015108612b008301819052610760830151829109612b208301819052610240830151829108612b408301819052610960830151829109612b60830152806102a083015161072084015108612b808301819052612b60830151829109612ba083015280612ba08301518203612ac084015108612bc08301819052612160830151829109612be083015280612be0830151612a4084015108612c0083015280612c0083015161040084015109612c20830152806109e083015182036109a084015108612c408301819052611220830151829109612c6083015280612c60830151612c2084015108612c8083015280612c8083015161040084015109612ca083015280612160830151612c4084015109612cc0830152806109c083015182036109a084015108612ce08301819052612cc0830151829109612d0083015280612d00830151612ca084015108612d20830152610cc082015181908009612d408301819052610cc0830151829109612d608301819052610cc0830151829109612d808301819052610cc0830151829109612da083015280610cc0830151600109612dc083015280612d40830151600109612de083015280612d60830151600109612e0083015280612d80830151600109612e2083015280610ce0830151612d2084015109612e40830152806105a0830151610ba084015109612e608301528060016105a084015109612e8083015280612e808301518203610b2084015108612ea0830152807f0ae3c95fc03c0a5f2de8a8f46c03ccdfdfed2bb98c9e4ae0b10b15eda4e3b1e36105a084015109612ec083015280612ec08301518203610b2084015108612ee0830152807f15f79db9c39181bc3e31c83f9291da76eedf1b23c410add7e9098464aaa4fb266105a084015109612f0083015280612f008301518203610b2084015108612f20830152807f2ad9021ed07c42ab19f77c5cf2cbd2deb135ea330f1b1573bd08d99309c4bb7d6105a084015109612f4083015280612f408301518203610b2084015108612f6083015280817f2b0bd16731aaf34928c0661ba43310fbbf44baa457b980ce19affba7315792a4610ba085015109610b2084015109818183847f05587d0baf86ace08f8fdf9add4e476168ef2da421ffefc32a31f9ecbea86d5d610ba0880151096105a08701510908905080612f808401525080817f1e42214ea9b2db33296ba55096815a0a6d468af715ccfa9fab93b1e3701b7f62610ba085015109610b2084015109818183847f1648cc055b11af4e0f62923d9627e377b1d413c0864af4963a826fcc6a0231fa610ba0880151096105a08701510908905080612fa08401525080817f2960d84a95d8f00f740a3d1478feb6d4b196e34bf86b62b75041b14b389d49ce610ba085015109610b2084015109818183847f21fe615ace99028841c84393e39435ea26675e494fd4886263e6fedd3cba1f16610ba0880151096105a08701510908612fc084015250612ea08201518190600109612fe08301819052612f608301518291096130008301819052612ee083015182910961302083015280817f058b4c5410b55d7e9e58c9598eb5857e76fdfe156a9e5b1d86d91c00e63b44856105a085015109610b2084015109818183847f2ad9021ed07c42ab19f77c5cf2cbd2deb135ea330f1b1573bd08d99309c4bb7c6105a0880151096105a087015109089050806130408401525080817f2ad9021ed07c42ab19f77c5cf2cbd2deb135ea330f1b1573bd08d99309c4bb7c6105a085015109610b2084015109818183847f1d05f683f7bacf55bccd495a5703cb329ada890af08ac0d24959599e24c832816105a0880151096105a087015109089050806130608401525080817f23af40e47e2f59a03809484a29d5e3afbf105f1fa100de8be21295a92fa75534610ba085015109610b2084015109818183847f0cb50d8e630246898046fd6c57ab74ad69238928d8b8920561cf5feac058aacd610ba0880151096105a087015109089050806130808401525080817f259eb1d15d2e74dc1a22c32210de87566d7ae67bcc859ce1e33117e171cbbcd2610ba085015109610b2084015109818183847f0705f7901a0ba3736dff0830a813cdc7350ce79c852ba2d86353d0ff84d80bb5610ba0880151096105a087015109089050806130a08401525080817f2a6bbeb56332f220c30fcaac737fd885c3596480f0ca2ff07d2733561911b7bd610ba085015109610b2084015109818183847f26a0f84d76444b5e0a60f8966cc6c88c09cf0713bd044ba9fe6c9b2e8b6263b7610ba0880151096105a087015109086130c084015250612f20820151613000830151829190096130e083015280817f2580851320f595ca8a679cc2157d8b7d4846bc8eed1b25b092d6dfa64b1c4e1f6105a085015109610b2084015109818183847f0ae3c95fc03c0a5f2de8a8f46c03ccdfdfed2bb98c9e4ae0b10b15eda4e3b1e26105a0880151096105a087015109089050806131008401525080817f0ae3c95fc03c0a5f2de8a8f46c03ccdfdfed2bb98c9e4ae0b10b15eda4e3b1e26105a085015109610b2084015109818183847f017829d43aa3529ba5ed3f4879cd1c09ff9f06e716afb2bc6cc72847d12771ae6105a0880151096105a0870151090861312084015250612ee0820151612fe083015182919009613140830152806001610b20840151098181837f30644e72e131a029b85045b68181585d2833e84879b9709143e1f593f00000006105a0870151090861316084015250612f80820151612fa083015182908290099050806131808401528181612fc0850151099050806131a08401528181613040850151099050806131c08401528181613060850151099050806131e084015281816130008501510990508061320084015281816130808501510990508061322084015281816130a08501510990508061324084015281816130c08501510990508061326084015281816130e0850151099050806132808401528181613100850151099050806132a08401528181613120850151099050806132c08401528181613140850151099050806132e08401528181613160850151099050806133008401528181612fe085015109905080613320840152506020613360830152602061338083015260206133a08301526133208201516133c08301527f30644e72e131a029b85045b68181585d2833e84879b9709143e1f593efffffff6133e0830152600080516020614fbd8339815191526134008301528260016020613340850160c0613360870160055afa141692506133408201516000612fe08401519050828261330086015109612fe0850152828282099150613160840151905082826132e086015109613160850152828282099150613140840151905082826132c086015109613140850152828282099150613120840151905082826132a08601510961312085015282828209915061310084015190508282613280860151096131008501528282820991506130e084015190508282613260860151096130e08501528282820991506130c084015190508282613240860151096130c08501528282820991506130a084015190508282613220860151096130a08501528282820991506130808401519050828261320086015109613080850152828282099150613000840151905082826131e086015109613000850152828282099150613060840151905082826131c086015109613060850152828282099150613040840151905082826131a086015109613040850152828282099150612fc08401519050828261318086015109612fc0850152828282099150612fa084015190508282612f8086015109612fa085015282828209612f808501819052612fa085015190925083915082900890508181612fc0850151086134208401525061300082015161302083015182919009613440830152613040820151818161306085015108613460840152506130e08201516130208301518291900961348083015261308082015181816130a085015108905081816130c0850151086134a084015250613140820151613020830151829190096134c08301526131008201518181613120850151086134e084015250612fe082015161302083015182919009613500830152613160820151806135208401525061342082015181816134608501510990508061354084015281816134a08501510990508061356084015281816134e0850151099050806135808401528181613520850151099050806135a08401525060206135e0830152602061360083015260206136208301526135a08201516136408301527f30644e72e131a029b85045b68181585d2833e84879b9709143e1f593efffffff613660830152600080516020614fbd83398151915261368083015282600160206135c0850160c06135e0870160055afa141692506135c0820151600061352084015190508282613580860151096135208501528282820991506134e084015190508282613560860151096134e08501528282820991506134a084015190508282613540860151096134a08501528282820991506134608401519050828261342086015109613460850152828282096134208501525050613460820151613440830151829190096136a0830152806134a0830151613480840151096136c0830152806134e08301516134c0840151096136e08301528061352083015161350084015109613700830152610a20820151819080096137208301819052610a208301518291096137408301819052610a208301518291096137608301819052610a208301518291096137808301819052610a208301518291096137a08301819052610a208301518291096137c08301819052610a208301518291096137e08301819052610a208301518291096138008301819052610a208301518291096138208301819052610a208301518291096138408301819052610a208301518291096138608301819052610a208301518291096138808301819052610a208301518291096138a08301819052610a208301518291096138c08301819052610a208301518291096138e08301819052610a20830151829109613900830152610a80820151819080096139208301819052610a808301518291096139408301819052610a808301518291096139608301819052610a8083015182910961398083015280612f808301516105e084015109818183612fa086015161062087015109089050818183612fc08601516106a087015109086139a0840181905261342084015183925090096139c08301528060016139c08401518303096139e083015280612f8083015161060084015109818183612fa086015161064087015109089050818183612fc08601516106808701510908613a0084018190526134208401518392509009613a208301819052610a208301518291820309613a4083015280610a20830151600109613a6083015280613a408301516139e084015108613a80830152806001613a8084015109613aa0830152806001613a6084015109613ac083015280613440830151600109613ae083015280613040830151610660840151098181836130608601516106c08701510908613b0084018190526136a08401518392509009613b20830152806001613b20840151830309613b40830152806001613ae084015109613b6083015280613040830151610920840151098181836130608601516109408701510908613b8084018190526136a08401518392509009613ba08301819052610a208301518291820309613bc083015280610a20830151613ae084015109613be083015280613bc0830151613b4084015108613c0083015280613040830151610960840151098181836130608601516109808701510908613c2084018190526136a08401518392509009613c4083018190526137208301518291820309613c6083015280613720830151613ae084015109613c8083015280613c60830151613c0084015108613ca08301819052610a80830151829109613cc083015280610a80830151613b6084015109613ce083015280610a80830151613be084015109613d0083015280610a80830151613c8084015109613d2083015280613cc0830151613aa084015108613d4083015280613480830151600109613d60830152806130808301516108c0840151098181836130a08601516108e0870151090890508181836130c08601516109008701510908613d8084018190526136c08401518392509009613da0830152806001613da0840151830309613dc0830152806001613d6084015109613de083015280613920830151613dc084015109613e0083015280613920830151613de084015109613e2083015280613e00830151613d4084015108613e40830152806134c0830151600109613e60830152806131008301516109a0840151098181836131208601516109c08701510908613e8084018190526136e08401518392509009613ea0830152806001613ea0840151830309613ec0830152806001613e6084015109613ee083015280613940830151613ec084015109613f0083015280613940830151613ee084015109613f2083015280613f00830151613e4084015108613f4083015280613500830151600109613f60830152806131608301516109e084015109613f808301819052613700830151829109613fa0830152806001613fa0840151830309613fc0830152806001613f6084015109613fe0830152806131608301516106e08401510961400083018190526137008301518291096140208301819052610a20830151829182030961404083015280610a20830151613f608401510961406083015280614040830151613fc08401510861408083015280613160830151610700840151096140a083018190526137008301518291096140c0830181905261372083015182918203096140e083015280613720830151613f6084015109614100830152806140e083015161408084015108614120830152806131608301516107208401510961414083018190526137008301518291096141608301819052613740830151829182030961418083015280613740830151613f60840151096141a083015280614180830151614120840151086141c083015280613160830151610740840151096141e083018190526137008301518291096142008301819052613760830151829182030961422083015280613760830151613f6084015109614240830152806142208301516141c084015108614260830152806131608301516107608401510961428083018190526137008301518291096142a0830181905261378083015182918203096142c083015280613780830151613f60840151096142e0830152806142c0830151614260840151086143008301528061316083015161078084015109614320830181905261370083015182910961434083018190526137a08301518291820309614360830152806137a0830151613f608401510961438083015280614360830151614300840151086143a0830152806131608301516107a0840151096143c083018190526137008301518291096143e083018190526137c08301518291820309614400830152806137c0830151613f6084015109614420830152806144008301516143a084015108614440830152806131608301516107c084015109614460830181905261370083015182910961448083018190526137e083015182918203096144a0830152806137e0830151613f60840151096144c0830152806144a0830151614440840151086144e0830152806131608301516108008401510961450083018190526137008301518291096145208301819052613800830151829182030961454083015280613800830151613f6084015109614560830152806145408301516144e08401510861458083015280613160830151610820840151096145a083018190526137008301518291096145c0830181905261382083015182918203096145e083015280613820830151613f6084015109614600830152806145e083015161458084015108614620830152806131608301516108408401510961464083018190526137008301518291096146608301819052613840830151829182030961468083015280613840830151613f60840151096146a083015280614680830151614620840151086146c083015280613160830151610860840151096146e083018190526137008301518291096147008301819052613860830151829182030961472083015280613860830151613f6084015109614740830152806147208301516146c084015108614760830152806131608301516108808401510961478083018190526137008301518291096147a0830181905261388083015182918203096147c083015280613880830151613f60840151096147e0830152806147c083015161476084015108614800830152806131608301516108a084015109614820830181905261370083015182910961484083018190526138a08301518291820309614860830152806138a0830151613f608401510961488083015280614860830151614800840151086148a083015280613500830151612dc0840151096148c083015280613500830151612de0840151096148e083015280613500830151612e008401510961490083015280613500830151612e208401510961492083015280613160830151612e4084015109614940830181905261370083015182910961496083018190526138c08301518291820309614980830152806138c0830151613f60840151096149a0830152806138c08301516148c0840151096149c0830152806138c08301516148e0840151096149e0830152806138c083015161490084015109614a00830152806138c083015161492084015109614a20830152806149808301516148a084015108614a40830152806131608301516107e084015109614a608301819052613700830151829109614a8083018190526138e08301518291820309614aa0830152806138e0830151613f6084015109614ac083015280614aa0830151614a4084015108614ae08301819052613960830151829109614b0083015280613960830151613fe084015109614b208301528061396083015161406084015109614b408301528061396083015161410084015109614b60830152806139608301516141a084015109614b808301528061396083015161424084015109614ba0830152806139608301516142e084015109614bc08301528061396083015161438084015109614be08301528061396083015161442084015109614c00830152806139608301516144c084015109614c208301528061396083015161456084015109614c408301528061396083015161460084015109614c60830152806139608301516146a084015109614c808301528061396083015161474084015109614ca0830152806139608301516147e084015109614cc08301528061396083015161488084015109614ce0830152806139608301516149a084015109614d00830152806139608301516149c084015109614d20830152806139608301516149e084015109614d4083015280613960830151614a0084015109614d6083015280613960830151614a2084015109614d8083015280613960830151614ac084015109614da083015280614b00830151613f4084015108614dc083015280613020830151600109614de083015280610b20830151600109614e008301526001614e2083018181526002614e40850152614dc0840151614e6085015284919060409060608160075afa14169250614e20820151614e80830152614e40820151614ea08301526080820151614ec083015260a0820151614ee08301528260016040614e8085016080614e80870160065afa1416925060c0820151614f0083015260e0820151614f20830152613ac0820151614f408301528260016040614f0085016060614f00870160075afa14169250614e80820151614f60830152614ea0820151614f80830152614f00820151614fa0830152614f20820151614fc08301528260016040614f6085016080614f60870160065afa14169250610100820151614fe0830152610120820151615000830152613ce08201516150208301528260016040614fe085016060614fe0870160075afa14169250614f60820151615040830152614f80820151615060830152614fe08201516150808301526150008201516150a0830152826001604061504085016080615040870160065afa141692506103208201516150c08301526103408201516150e0830152613d0082015161510083015282600160406150c0850160606150c0870160075afa141692506150408201516151208301526150608201516151408301526150c08201516151608301526150e0820151615180830152826001604061512085016080615120870160065afa141692506103608201516151a08301526103808201516151c0830152613d208201516151e083015282600160406151a0850160606151a0870160075afa141692506151208201516152008301526151408201516152208301526151a08201516152408301526151c0820151615260830152826001604061520085016080615200870160065afa141692506102e08201516152808301526103008201516152a0830152613e208201516152c0830152826001604061528085016060615280870160075afa141692506152008201516152e08301526152208201516153008301526152808201516153208301526152a082015161534083015282600160406152e0850160806152e0870160065afa141692506101a08201516153608301526101c0820151615380830152613f208201516153a0830152826001604061536085016060615360870160075afa141692506152e08201516153c08301526153008201516153e083015261536082015161540083015261538082015161542083015282600160406153c0850160806153c0870160065afa141692506101e0820151615440830152610200820151615460830152614b20820151615480830152826001604061544085016060615440870160075afa141692506153c08201516154a08301526153e08201516154c08301526154408201516154e083015261546082015161550083015282600160406154a0850160806154a0870160065afa141692507f07da112d9d1619e15dc5963b63e21f1b5690a96ec64a50b61e715262239875166155208301527f1bd864cde2c40ad753c9196372d23b4f5e3d0056bac48fe99c665f98ba6b82bf615540830152614b40820151615560830152826001604061552085016060615520870160075afa141692506154a08201516155808301526154c08201516155a08301526155208201516155c08301526155408201516155e0830152826001604061558085016080615580870160065afa141692507f18ade563194fd8e50151f082c39e7130b67343136a7f5692fbd36d1dff7c3cbb6156008301527f2e43b8cec89aabd908d49017ae7779040a4f58e18473710e468b30c267f32031615620830152614b60820151615640830152826001604061560085016060615600870160075afa141692506155808201516156608301526155a08201516156808301526156008201516156a08301526156208201516156c0830152826001604061566085016080615660870160065afa141692507f279bb1b1a84827f08b5a6b1afe82453d687fb716da1a5670e7ea1725330f298f6156e08301527f1fb3ef44499d47fa6fe79760d3295b2492983695632cc805d7a1f2ffcc814d0c615700830152614b8082015161572083015282600160406156e0850160606156e0870160075afa141692506156608201516157408301526156808201516157608301526156e08201516157808301526157008201516157a0830152826001604061574085016080615740870160065afa141692507f1327a71d31491e1437b1994899267b11c3abbad0340b47fe256d4f91fef92fee6157c08301527f1440ebb88ec12e71b3dcf84ac66229ddca0d2d6570cf1ffb7927c2ebc09f8d8e6157e0830152614ba082015161580083015282600160406157c0850160606157c0870160075afa141692506157408201516158208301526157608201516158408301526157c08201516158608301526157e0820151615880830152826001604061582085016080615820870160065afa141692507f1825601cf3db8549d6b0c0ba6ce4bb7661f81fc7de4fbb3b4a8293ff0938c8e56158a08301527f1a03983f233b00c3a96ae5552c74957f9285b641a9502397fc10ef067e6399706158c0830152614bc08201516158e083015282600160406158a0850160606158a0870160075afa141692506158208201516159008301526158408201516159208301526158a08201516159408301526158c0820151615960830152826001604061590085016080615900870160065afa141692507f11d03b31084d49e49e40902891439047cc277aa97e8b2e3a3c5b2e80dac5c3646159808301527f151e9540ac7dd9f60a5033876ad0183c4af24f7d12cd8ebe98e71513939a8cc06159a0830152614be08201516159c0830152826001604061598085016060615980870160075afa141692506159008201516159e0830152615920820151615a00830152615980820151615a208301526159a0820151615a4083015282600160406159e0850160806159e0870160065afa141692507f23d01f8bb44c10b4dd7962ca558169300c7535dc2321c483251841b9dd533c0f615a608301527f1599ae56c0c8434fbfc5eec62917dfa3f0a9e2dbe7c77409ec0f3a004b14cf99615a80830152614c00820151615aa08301528260016040615a6085016060615a60870160075afa141692506159e0820151615ac0830152615a00820151615ae0830152615a60820151615b00830152615a80820151615b208301528260016040615ac085016080615ac0870160065afa141692507f2876b4cb304a71b1eb97c0a33fad6c2567a18f4333d282878103a8a52f9a44dd615b408301527f1cf03a9e7d9f1689bad060e3c93dd13d434e6fc7534b662ba0030f864c9ef982615b60830152614c20820151615b808301528260016040615b4085016060615b40870160075afa14169250615ac0820151615ba0830152615ae0820151615bc0830152615b40820151615be0830152615b60820151615c008301528260016040615ba085016080615ba0870160065afa141692507f09d6b1ef89008418dc31e48ddc1123f06623183c2ca3be3f87c61c4cd416cb07615c208301527f19a196c98c173b7d399c14be13eaa0e3ebf3afdc80b6bb5431a396b7860f8876615c40830152614c40820151615c608301528260016040615c2085016060615c20870160075afa14169250615ba0820151615c80830152615bc0820151615ca0830152615c20820151615cc0830152615c40820151615ce08301528260016040615c8085016080615c80870160065afa141692507f0c353a2d3fb9de5a63ae20c29d28031efeaf502224c752372f07969d272ea88b615d008301527f2a66e2b2fc4c41f54f231c0536a3f249d7bac03ab25773c01799f38a9ec2fd2c615d20830152614c60820151615d408301528260016040615d0085016060615d00870160075afa14169250615c80820151615d60830152615ca0820151615d80830152615d00820151615da0830152615d20820151615dc08301528260016040615d6085016080615d60870160065afa141692507f09fb582fffb06e472ce594ff04530c9f33d70312b9b8e54ebc70097d415d6b82615de08301527f1045a2adc4faf395b26431d86bdf7604651e06f97cbae9ed8e00676147fe9f83615e00830152614c80820151615e208301528260016040615de085016060615de0870160075afa14169250615d60820151615e40830152615d80820151615e60830152615de0820151615e80830152615e00820151615ea08301528260016040615e4085016080615e40870160065afa141692507f304c7a0ed7b07d72da0bfd0a63908355b825669b5a62b99b775ee19f940b9114615ec08301527f02fcb2e6131131677facbbc28b73ee6c4571a1d49034a85f72719cd11f922d0b615ee0830152614ca0820151615f008301528260016040615ec085016060615ec0870160075afa14169250615e40820151615f20830152615e60820151615f40830152615ec0820151615f60830152615ee0820151615f808301528260016040615f2085016080615f20870160065afa141692507e347e8e9332a177dba1b65fd1a8a17450521792a7fbac3e0297ebde6e7838e4615fa08301527f289d406011aae1118ff4d86b716d4b9660f5c270ea5b5247a1cc71fc0745c4c7615fc0830152614cc0820151615fe08301528260016040615fa085016060615fa0870160075afa14169250615f20820151616000830152615f40820151616020830152615fa0820151616040830152615fc0820151616060830152826001604061600085016080616000870160065afa141692507f238289053176d6ee7aaa36d98249c7dde4fee7f4dc90316f64f92b24ef9f987e6160808301527f0c4e25e98208315fdedc6bde1545533eee6c7c4b89cfa44f764eb39a129d9ba46160a0830152614ce08201516160c0830152826001604061608085016060616080870160075afa141692506160008201516160e08301526160208201516161008301526160808201516161208301526160a082015161614083015282600160406160e0850160806160e0870160065afa14169250610440820151616160830152610460820151616180830152614d008201516161a0830152826001604061616085016060616160870160075afa141692506160e08201516161c08301526161008201516161e083015261616082015161620083015261618082015161622083015282600160406161c0850160806161c0870160065afa141692506104808201516162408301526104a0820151616260830152614d20820151616280830152826001604061624085016060616240870160075afa141692506161c08201516162a08301526161e08201516162c08301526162408201516162e083015261626082015161630083015282600160406162a0850160806162a0870160065afa141692506104c08201516163208301526104e0820151616340830152614d40820151616360830152826001604061632085016060616320870160075afa141692506162a08201516163808301526162c08201516163a08301526163208201516163c08301526163408201516163e0830152826001604061638085016080616380870160065afa14169250610500820151616400830152610520820151616420830152614d60820151616440830152826001604061640085016060616400870160075afa141692506163808201516164608301526163a08201516164808301526164008201516164a08301526164208201516164c0830152826001604061646085016080616460870160065afa141692506105408201516164e0830152610560820151616500830152614d8082015161652083015282600160406164e0850160606164e0870160075afa141692506164608201516165408301526164808201516165608301526164e08201516165808301526165008201516165a0830152826001604061654085016080616540870160065afa141692506103a08201516165c08301526103c08201516165e0830152614da082015161660083015282600160406165c0850160606165c0870160075afa141692506165408201516166208301526165608201516166408301526165c08201516166608301526165e0820151616680830152826001604061662085016080616620870160065afa14169250610ac08201516166a0830152610ae08201516166c0830152614de082015181036166e08301525081600160406166a0840160606166a0860160075afa141691506166208101516167008201526166408101516167208201526166a08101516167408201526166c0810151616760820152816001604061670084016080616700860160065afa14169150610b60810151616780820152610b808101516167a0820152614e008101516167c0820152816001604061678084016060616780860160075afa141691506167008101516167e08201526167208101516168008201526167808101516168208201526167a081015161684082015281600160406167e0840160806167e0860160065afa141691506167e08101516168608201526168008101516168808201527f198e9393920d483a7260bfb731fb5d25f1aa493335a9e71297e485b7aef312c26168a08201527f1800deef121f1e76426a00665e5c4479674322d4f75edadd46debd5cd992f6ed6168c08201527f090689d0585ff075ec9e99ad690c3395bc4b313370b38ef355acdadcd122975b6168e08201527f12c85ea5db8c6deb4aab71808dcb408fe3d1e7690c43d37b4ce6cc0166fa7daa616900820152610b60810151616920820152610b808101516169408201527f249b89133f51f707a562a9b69acaad642bd08c9179aa90c8188f40b5205dad436169608201527f2981bdcac7171f8537f1064de061b5ce5e18dd2fc4a4e4430eb5087506e8ed826169808201527f1305f9ff4409c8d36208d7529987ea2438c22d017090ac2841b3d4fb36a6ea6f6169a08201527f14ed363012c9eb27ba479ea030fd6467e9a1f4e86d78097f3b37a7e91f7011dc6169c082015281600160206168608401610180616860860160085afa61686093909301516001149214161691505092915050565b604051806169c0016040528061034e906020820280368337509192915050565b634e487b7160e01b600052604160045260246000fd5b604051601f8201601f1916810167ffffffffffffffff81118282101715614e5c57614e5c614e1d565b604052919050565b600082601f830112614e7557600080fd5b813567ffffffffffffffff811115614e8f57614e8f614e1d565b614ea2601f8201601f1916602001614e33565b818152846020838601011115614eb757600080fd5b816020850160208301376000918101602001919091529392505050565b60008060408385031215614ee757600080fd5b823567ffffffffffffffff80821115614eff57600080fd5b818501915085601f830112614f1357600080fd5b8135602082821115614f2757614f27614e1d565b8160051b614f36828201614e33565b928352848101820192828101908a851115614f5057600080fd5b958301955b84871015614f6e57863582529583019590830190614f55565b9750505086013592505080821115614f8557600080fd5b50614f9285828601614e64565b915050925092905056fe30644e72e131a029b85045b68181585d97816a916871ca8d3c208c16d87cfd4730644e72e131a029b85045b68181585d2833e84879b9709143e1f593f0000001a264697066735822122089ff0909a8ffc531a289c6e89318c6162ebefc3e419bb173f52b9a069f81ca8464736f6c63430008120033","linkReferences":{},"deployedLinkReferences":{}}