{"_format":"hh-sol-artifact-1","contractName":"Summa","sourceName":"src/Summa.sol","abi":[{"inputs":[{"internalType":"address","name":"_verificationKey","type":"address"},{"internalType":"contract IVerifier","name":"_polynomialEncodingVerifier","type":"address"},{"internalType":"uint16","name":"currenciesCount","type":"uint16"},{"internalType":"uint8","name":"balanceByteRange","type":"uint8"}],"stateMutability":"nonpayable","type":"constructor"},{"anonymous":false,"inputs":[{"components":[{"internalType":"string","name":"cexAddress","type":"string"},{"internalType":"string","name":"chain","type":"string"},{"internalType":"bytes","name":"signature","type":"bytes"},{"internalType":"bytes","name":"message","type":"bytes"}],"indexed":false,"internalType":"struct Summa.AddressOwnershipProof[]","name":"addressOwnershipProofs","type":"tuple[]"}],"name":"AddressOwnershipProofSubmitted","type":"event"},{"anonymous":false,"inputs":[{"indexed":true,"internalType":"uint256","name":"timestamp","type":"uint256"},{"indexed":false,"internalType":"bytes","name":"proof","type":"bytes"},{"components":[{"internalType":"string","name":"name","type":"string"},{"internalType":"string","name":"chain","type":"string"}],"indexed":false,"internalType":"struct Summa.Cryptocurrency[]","name":"cryptocurrencies","type":"tuple[]"}],"name":"LiabilitiesCommitmentSubmitted","type":"event"},{"anonymous":false,"inputs":[{"indexed":true,"internalType":"address","name":"previousOwner","type":"address"},{"indexed":true,"internalType":"address","name":"newOwner","type":"address"}],"name":"OwnershipTransferred","type":"event"},{"inputs":[{"internalType":"uint256","name":"","type":"uint256"}],"name":"addressOwnershipProofs","outputs":[{"internalType":"string","name":"cexAddress","type":"string"},{"internalType":"string","name":"chain","type":"string"},{"internalType":"bytes","name":"signature","type":"bytes"},{"internalType":"bytes","name":"message","type":"bytes"}],"stateMutability":"view","type":"function"},{"inputs":[{"internalType":"uint256","name":"","type":"uint256"}],"name":"commitments","outputs":[{"internalType":"bytes","name":"proof","type":"bytes"}],"stateMutability":"view","type":"function"},{"inputs":[],"name":"config","outputs":[{"internalType":"uint16","name":"currenciesCount","type":"uint16"},{"internalType":"uint8","name":"balanceByteRange","type":"uint8"}],"stateMutability":"view","type":"function"},{"inputs":[{"internalType":"bytes32","name":"addressHash","type":"bytes32"}],"name":"getAddressOwnershipProof","outputs":[{"components":[{"internalType":"string","name":"cexAddress","type":"string"},{"internalType":"string","name":"chain","type":"string"},{"internalType":"bytes","name":"signature","type":"bytes"},{"internalType":"bytes","name":"message","type":"bytes"}],"internalType":"struct Summa.AddressOwnershipProof","name":"","type":"tuple"}],"stateMutability":"view","type":"function"},{"inputs":[],"name":"owner","outputs":[{"internalType":"address","name":"","type":"address"}],"stateMutability":"view","type":"function"},{"inputs":[],"name":"renounceOwnership","outputs":[],"stateMutability":"nonpayable","type":"function"},{"inputs":[{"internalType":"bytes","name":"proof","type":"bytes"},{"components":[{"internalType":"string","name":"name","type":"string"},{"internalType":"string","name":"chain","type":"string"}],"internalType":"struct Summa.Cryptocurrency[]","name":"cryptocurrencies","type":"tuple[]"},{"internalType":"uint256","name":"timestamp","type":"uint256"}],"name":"submitCommitment","outputs":[],"stateMutability":"nonpayable","type":"function"},{"inputs":[{"components":[{"internalType":"string","name":"cexAddress","type":"string"},{"internalType":"string","name":"chain","type":"string"},{"internalType":"bytes","name":"signature","type":"bytes"},{"internalType":"bytes","name":"message","type":"bytes"}],"internalType":"struct Summa.AddressOwnershipProof[]","name":"_addressOwnershipProofs","type":"tuple[]"}],"name":"submitProofOfAddressOwnership","outputs":[],"stateMutability":"nonpayable","type":"function"},{"inputs":[{"internalType":"address","name":"newOwner","type":"address"}],"name":"transferOwnership","outputs":[],"stateMutability":"nonpayable","type":"function"},{"inputs":[],"name":"verificationKey","outputs":[{"internalType":"address","name":"","type":"address"}],"stateMutability":"view","type":"function"}],"bytecode":"0x60a06040523480156200001157600080fd5b5060405162001bcf38038062001bcf8339810160408190526200003491620001d7565b6200003f336200016e565b6001600160a01b0384166200009b5760405162461bcd60e51b815260206004820152601d60248201527f496e76616c696420766572696679696e67206b6579206164647265737300000060448201526064015b60405180910390fd5b600280546001600160a01b0319166001600160a01b03868116919091179091558316620001205760405162461bcd60e51b815260206004820152602c60248201527f496e76616c696420706f6c796e6f6d69616c20656e636f64696e67207665726960448201526b66696572206164647265737360a01b606482015260840162000092565b6001600160a01b039092166080526040805180820190915261ffff90911680825260ff9092166020909101819052600180546201000090920262ffffff19909216909217179055506200024a565b600080546001600160a01b038381166001600160a01b0319831681178455604051919092169283917f8be0079c531659141344cd1fd0a4f28419497f9722a3daafe3b4186f6b6457e09190a35050565b6001600160a01b0381168114620001d457600080fd5b50565b60008060008060808587031215620001ee57600080fd5b8451620001fb81620001be565b60208601519094506200020e81620001be565b604086015190935061ffff811681146200022757600080fd5b606086015190925060ff811681146200023f57600080fd5b939692955090935050565b6080516119696200026660003960006105e701526119696000f3fe608060405234801561001057600080fd5b506004361061009e5760003560e01c80637ddc907d116100665780637ddc907d1461013e5780638da5cb5b14610169578063a3c4bcf81461017a578063c7ddca0e1461019d578063f2fde38b146101b057600080fd5b806319b33968146100a357806343f9ec07146100cc57806349ce8997146100e1578063715018a61461010157806379502c5514610109575b600080fd5b6100b66100b13660046110b3565b6101c3565b6040516100c39190611187565b60405180910390f35b6100df6100da3660046112c8565b6104db565b005b6100f46100ef3660046110b3565b610920565b6040516100c39190611403565b6100df6109be565b6001546101229061ffff81169062010000900460ff1682565b6040805161ffff909316835260ff9091166020830152016100c3565b600254610151906001600160a01b031681565b6040516001600160a01b0390911681526020016100c3565b6000546001600160a01b0316610151565b61018d6101883660046110b3565b6109d2565b6040516100c39493929190611416565b6100df6101ab36600461146e565b610c32565b6100df6101be3660046115c8565b610ed3565b6101ee6040518060800160405280606081526020016060815260200160608152602001606081525090565b6000828152600560205260409020546102455760405162461bcd60e51b81526020600482015260146024820152731059191c995cdcc81b9bdd081d995c9a599a595960621b60448201526064015b60405180910390fd5b60008281526005602052604090205460039061026390600190611607565b8154811061027357610273611620565b906000526020600020906004020160405180608001604052908160008201805461029c90611636565b80601f01602080910402602001604051908101604052809291908181526020018280546102c890611636565b80156103155780601f106102ea57610100808354040283529160200191610315565b820191906000526020600020905b8154815290600101906020018083116102f857829003601f168201915b5050505050815260200160018201805461032e90611636565b80601f016020809104026020016040519081016040528092919081815260200182805461035a90611636565b80156103a75780601f1061037c576101008083540402835291602001916103a7565b820191906000526020600020905b81548152906001019060200180831161038a57829003601f168201915b505050505081526020016002820180546103c090611636565b80601f01602080910402602001604051908101604052809291908181526020018280546103ec90611636565b80156104395780601f1061040e57610100808354040283529160200191610439565b820191906000526020600020905b81548152906001019060200180831161041c57829003601f168201915b5050505050815260200160038201805461045290611636565b80601f016020809104026020016040519081016040528092919081815260200182805461047e90611636565b80156104cb5780601f106104a0576101008083540402835291602001916104cb565b820191906000526020600020905b8154815290600101906020018083116104ae57829003601f168201915b5050505050815250509050919050565b6104e3610f4c565b82516115001461052c5760405162461bcd60e51b8152602060048201526014602482015273092dcecc2d8d2c840e0e4dedecc40d8cadccee8d60631b604482015260640161023c565b600082511161058b5760405162461bcd60e51b815260206004820152602560248201527f43727970746f63757272656e63696573206c6973742063616e6e6f7420626520604482015264656d70747960d81b606482015260840161023c565b604080516001808252818301909252600091602080830190803683370190505090506001816000815181106105c2576105c2611620565b602090810291909101015260025460405163af83a18d60e01b81526001600160a01b037f000000000000000000000000000000000000000000000000000000000000000081169263af83a18d9261062492919091169088908690600401611670565b602060405180830381865afa158015610641573d6000803e3d6000fd5b505050506040513d601f19601f8201168201806040525081019061066591906116d6565b6106a15760405162461bcd60e51b815260206004820152600d60248201526c24b73b30b634b210383937b7b360991b604482015260640161023c565b6000835167ffffffffffffffff8111156106bd576106bd6111a1565b6040519080825280602002602001820160405280156106f057816020015b60608152602001906001900390816106db5790505b5090506000845167ffffffffffffffff81111561070f5761070f6111a1565b60405190808252806020026020018201604052801561074257816020015b606081526020019060019003908161072d5790505b50905060005b855181101561086d5785818151811061076357610763611620565b6020026020010151602001515160001415801561079f575085818151811061078d5761078d611620565b60200260200101516000015151600014155b6107e45760405162461bcd60e51b8152602060048201526016602482015275496e76616c69642063727970746f63757272656e637960501b604482015260640161023c565b8581815181106107f6576107f6611620565b60200260200101516000015183828151811061081457610814611620565b602002602001018190525085818151811061083157610831611620565b60200260200101516020015182828151811061084f5761084f611620565b60200260200101819052508080610865906116f8565b915050610748565b506040805160608101825287815260208082018590528183018490526000878152600490915291909120815181906108a59082611760565b5060208281015180516108be9260018501920190610ff6565b50604082015180516108da916002840191602090910190610ff6565b50905050837f2b16813e2ba6c759e7f19e9a8ae9f18dc303e5b86eebc77a8d5c869d75eafdd28787604051610910929190611820565b60405180910390a2505050505050565b60046020526000908152604090208054819061093b90611636565b80601f016020809104026020016040519081016040528092919081815260200182805461096790611636565b80156109b45780601f10610989576101008083540402835291602001916109b4565b820191906000526020600020905b81548152906001019060200180831161099757829003601f168201915b5050505050905081565b6109c6610f4c565b6109d06000610fa6565b565b600381815481106109e257600080fd5b9060005260206000209060040201600091509050806000018054610a0590611636565b80601f0160208091040260200160405190810160405280929190818152602001828054610a3190611636565b8015610a7e5780601f10610a5357610100808354040283529160200191610a7e565b820191906000526020600020905b815481529060010190602001808311610a6157829003601f168201915b505050505090806001018054610a9390611636565b80601f0160208091040260200160405190810160405280929190818152602001828054610abf90611636565b8015610b0c5780601f10610ae157610100808354040283529160200191610b0c565b820191906000526020600020905b815481529060010190602001808311610aef57829003601f168201915b505050505090806002018054610b2190611636565b80601f0160208091040260200160405190810160405280929190818152602001828054610b4d90611636565b8015610b9a5780601f10610b6f57610100808354040283529160200191610b9a565b820191906000526020600020905b815481529060010190602001808311610b7d57829003601f168201915b505050505090806003018054610baf90611636565b80601f0160208091040260200160405190810160405280929190818152602001828054610bdb90611636565b8015610c285780601f10610bfd57610100808354040283529160200191610c28565b820191906000526020600020905b815481529060010190602001808311610c0b57829003601f168201915b5050505050905084565b610c3a610f4c565b60005b8151811015610e98576000828281518110610c5a57610c5a611620565b602002602001015160000151604051602001610c7691906118b5565b60408051601f198184030181529181528151602092830120600081815260059093529120549091508015610cec5760405162461bcd60e51b815260206004820152601860248201527f4164647265737320616c72656164792076657269666965640000000000000000604482015260640161023c565b6003848481518110610d0057610d00611620565b60209081029190910181015182546001810184556000938452919092208251600490920201908190610d329082611760565b5060208201516001820190610d479082611760565b5060408201516002820190610d5c9082611760565b5060608201516003820190610d719082611760565b5050600354600084815260056020526040902055508351849084908110610d9a57610d9a611620565b60200260200101516000015151600014158015610dd65750838381518110610dc457610dc4611620565b60200260200101516020015151600014155b8015610e015750838381518110610def57610def611620565b60200260200101516040015151600014155b8015610e2c5750838381518110610e1a57610e1a611620565b60200260200101516060015151600014155b610e835760405162461bcd60e51b815260206004820152602260248201527f496e76616c69642070726f6f66206f662061646472657373206f776e65727368604482015261069760f41b606482015260840161023c565b50508080610e90906116f8565b915050610c3d565b507f382315d4d56a6035e1899bffe77d9becefaf5f2650e4323b27854857a045465881604051610ec891906118d1565b60405180910390a150565b610edb610f4c565b6001600160a01b038116610f405760405162461bcd60e51b815260206004820152602660248201527f4f776e61626c653a206e6577206f776e657220697320746865207a65726f206160448201526564647265737360d01b606482015260840161023c565b610f4981610fa6565b50565b6000546001600160a01b031633146109d05760405162461bcd60e51b815260206004820181905260248201527f4f776e61626c653a2063616c6c6572206973206e6f7420746865206f776e6572604482015260640161023c565b600080546001600160a01b038381166001600160a01b0319831681178455604051919092169283917f8be0079c531659141344cd1fd0a4f28419497f9722a3daafe3b4186f6b6457e09190a35050565b82805482825590600052602060002090810192821561103c579160200282015b8281111561103c578251829061102c9082611760565b5091602001919060010190611016565b5061104892915061104c565b5090565b808211156110485760006110608282611069565b5060010161104c565b50805461107590611636565b6000825580601f10611085575050565b601f016020900490600052602060002090810190610f4991905b80821115611048576000815560010161109f565b6000602082840312156110c557600080fd5b5035919050565b60005b838110156110e75781810151838201526020016110cf565b50506000910152565b600081518084526111088160208601602086016110cc565b601f01601f19169290920160200192915050565b600081516080845261113160808501826110f0565b90506020830151848203602086015261114a82826110f0565b9150506040830151848203604086015261116482826110f0565b9150506060830151848203606086015261117e82826110f0565b95945050505050565b60208152600061119a602083018461111c565b9392505050565b634e487b7160e01b600052604160045260246000fd5b6040805190810167ffffffffffffffff811182821017156111da576111da6111a1565b60405290565b6040516080810167ffffffffffffffff811182821017156111da576111da6111a1565b604051601f8201601f1916810167ffffffffffffffff8111828210171561122c5761122c6111a1565b604052919050565b600082601f83011261124557600080fd5b813567ffffffffffffffff81111561125f5761125f6111a1565b611272601f8201601f1916602001611203565b81815284602083860101111561128757600080fd5b816020850160208301376000918101602001919091529392505050565b600067ffffffffffffffff8211156112be576112be6111a1565b5060051b60200190565b6000806000606084860312156112dd57600080fd5b833567ffffffffffffffff808211156112f557600080fd5b61130187838801611234565b945060209150818601358181111561131857600080fd5b8601601f8101881361132957600080fd5b803561133c611337826112a4565b611203565b81815260059190911b8201840190848101908a83111561135b57600080fd5b8584015b838110156113ec5780358681111561137657600080fd5b85016040818e03601f1901121561138d5760008081fd5b6113956111b7565b88820135888111156113a75760008081fd5b6113b58f8b83860101611234565b8252506040820135888111156113cb5760008081fd5b6113d98f8b83860101611234565b828b01525084525091860191860161135f565b50979a979950505050604095909501359450505050565b60208152600061119a60208301846110f0565b60808152600061142960808301876110f0565b828103602084015261143b81876110f0565b9050828103604084015261144f81866110f0565b9050828103606084015261146381856110f0565b979650505050505050565b6000602080838503121561148157600080fd5b823567ffffffffffffffff8082111561149957600080fd5b818501915085601f8301126114ad57600080fd5b81356114bb611337826112a4565b81815260059190911b830184019084810190888311156114da57600080fd5b8585015b838110156115bb578035858111156114f557600080fd5b86016080818c03601f1901121561150c5760008081fd5b6115146111e0565b88820135878111156115265760008081fd5b6115348d8b83860101611234565b8252506040808301358881111561154b5760008081fd5b6115598e8c83870101611234565b8b84015250606080840135898111156115725760008081fd5b6115808f8d83880101611234565b8385015250608084013591508882111561159a5760008081fd5b6115a88e8c84870101611234565b90830152508452509186019186016114de565b5098975050505050505050565b6000602082840312156115da57600080fd5b81356001600160a01b038116811461119a57600080fd5b634e487b7160e01b600052601160045260246000fd5b8181038181111561161a5761161a6115f1565b92915050565b634e487b7160e01b600052603260045260246000fd5b600181811c9082168061164a57607f821691505b60208210810361166a57634e487b7160e01b600052602260045260246000fd5b50919050565b6001600160a01b038416815260606020808301829052600091611695908401866110f0565b838103604085015284518082528286019183019060005b818110156116c8578351835292840192918401916001016116ac565b509098975050505050505050565b6000602082840312156116e857600080fd5b8151801515811461119a57600080fd5b60006001820161170a5761170a6115f1565b5060010190565b601f82111561175b57600081815260208120601f850160051c810160208610156117385750805b601f850160051c820191505b8181101561175757828155600101611744565b5050505b505050565b815167ffffffffffffffff81111561177a5761177a6111a1565b61178e816117888454611636565b84611711565b602080601f8311600181146117c357600084156117ab5750858301515b600019600386901b1c1916600185901b178555611757565b600085815260208120601f198616915b828110156117f2578886015182559484019460019091019084016117d3565b50858210156118105787850151600019600388901b60f8161c191681555b5050505050600190811b01905550565b60006040808352611833818401866110f0565b6020848203818601528186518084528284019150828160051b85010183890160005b838110156118a557868303601f19018552815180518985526118798a8601826110f0565b91880151858303868a015291905061189181836110f0565b968801969450505090850190600101611855565b50909a9950505050505050505050565b600082516118c78184602087016110cc565b9190910192915050565b6000602080830181845280855180835260408601915060408160051b870101925083870160005b8281101561192657603f1988860301845261191485835161111c565b945092850192908501906001016118f8565b509297965050505050505056fea26469706673582212200ed4ad21f905c376a3c27857f45ee78009a7f56fe814b973cbb8d8e3de91f77b64736f6c63430008120033","linkReferences":{},"deployedLinkReferences":{}}