{"_format":"hh-sol-artifact-1","contractName":"Summa","sourceName":"src/Summa.sol","abi":[{"inputs":[{"internalType":"contract IVerifier","name":"_verifier","type":"address"}],"stateMutability":"nonpayable","type":"constructor"},{"anonymous":false,"inputs":[{"components":[{"internalType":"string","name":"cexAddress","type":"string"},{"internalType":"string","name":"chain","type":"string"},{"internalType":"bytes","name":"signature","type":"bytes"},{"internalType":"bytes","name":"message","type":"bytes"}],"indexed":false,"internalType":"struct Summa.AddressOwnershipProof[]","name":"addressOwnershipProofs","type":"tuple[]"}],"name":"AddressOwnershipProofSubmitted","type":"event"},{"anonymous":false,"inputs":[{"indexed":true,"internalType":"address","name":"previousOwner","type":"address"},{"indexed":true,"internalType":"address","name":"newOwner","type":"address"}],"name":"OwnershipTransferred","type":"event"},{"anonymous":false,"inputs":[{"indexed":true,"internalType":"uint256","name":"timestamp","type":"uint256"},{"indexed":false,"internalType":"uint256","name":"mstRoot","type":"uint256"},{"components":[{"internalType":"string","name":"assetName","type":"string"},{"internalType":"string","name":"chain","type":"string"},{"internalType":"uint256","name":"amount","type":"uint256"}],"indexed":false,"internalType":"struct Summa.Asset[]","name":"assets","type":"tuple[]"}],"name":"SolvencyProofSubmitted","type":"event"},{"inputs":[{"internalType":"uint256","name":"","type":"uint256"}],"name":"addressOwnershipProofs","outputs":[{"internalType":"string","name":"cexAddress","type":"string"},{"internalType":"string","name":"chain","type":"string"},{"internalType":"bytes","name":"signature","type":"bytes"},{"internalType":"bytes","name":"message","type":"bytes"}],"stateMutability":"view","type":"function"},{"inputs":[{"internalType":"uint256","name":"timestamp","type":"uint256"}],"name":"getProofOfSolvency","outputs":[{"components":[{"internalType":"bytes","name":"proof","type":"bytes"},{"internalType":"uint256[]","name":"publicInputs","type":"uint256[]"}],"internalType":"struct Summa.ZKProof","name":"","type":"tuple"}],"stateMutability":"view","type":"function"},{"inputs":[],"name":"owner","outputs":[{"internalType":"address","name":"","type":"address"}],"stateMutability":"view","type":"function"},{"inputs":[{"internalType":"bytes32","name":"","type":"bytes32"}],"name":"ownershipProofByAddress","outputs":[{"internalType":"string","name":"cexAddress","type":"string"},{"internalType":"string","name":"chain","type":"string"},{"internalType":"bytes","name":"signature","type":"bytes"},{"internalType":"bytes","name":"message","type":"bytes"}],"stateMutability":"view","type":"function"},{"inputs":[],"name":"renounceOwnership","outputs":[],"stateMutability":"nonpayable","type":"function"},{"inputs":[{"internalType":"uint256","name":"","type":"uint256"}],"name":"solvencyProofs","outputs":[{"internalType":"bytes","name":"proof","type":"bytes"}],"stateMutability":"view","type":"function"},{"inputs":[{"components":[{"internalType":"string","name":"cexAddress","type":"string"},{"internalType":"string","name":"chain","type":"string"},{"internalType":"bytes","name":"signature","type":"bytes"},{"internalType":"bytes","name":"message","type":"bytes"}],"internalType":"struct Summa.AddressOwnershipProof[]","name":"_addressOwnershipProofs","type":"tuple[]"}],"name":"submitProofOfAddressOwnership","outputs":[],"stateMutability":"nonpayable","type":"function"},{"inputs":[{"internalType":"uint256","name":"mstRoot","type":"uint256"},{"components":[{"internalType":"string","name":"assetName","type":"string"},{"internalType":"string","name":"chain","type":"string"},{"internalType":"uint256","name":"amount","type":"uint256"}],"internalType":"struct Summa.Asset[]","name":"assets","type":"tuple[]"},{"internalType":"bytes","name":"proof","type":"bytes"},{"internalType":"uint256","name":"timestamp","type":"uint256"}],"name":"submitProofOfSolvency","outputs":[],"stateMutability":"nonpayable","type":"function"},{"inputs":[{"internalType":"address","name":"newOwner","type":"address"}],"name":"transferOwnership","outputs":[],"stateMutability":"nonpayable","type":"function"},{"inputs":[{"internalType":"bytes","name":"proof","type":"bytes"},{"internalType":"uint256[]","name":"publicInputs","type":"uint256[]"}],"name":"verifyZkProof","outputs":[{"internalType":"bool","name":"","type":"bool"}],"stateMutability":"view","type":"function"}],"bytecode":"0x60a060405234801561001057600080fd5b5060405161186138038061186183398101604081905261002f91610099565b61003833610049565b6001600160a01b03166080526100c9565b600080546001600160a01b038381166001600160a01b0319831681178455604051919092169283917f8be0079c531659141344cd1fd0a4f28419497f9722a3daafe3b4186f6b6457e09190a35050565b6000602082840312156100ab57600080fd5b81516001600160a01b03811681146100c257600080fd5b9392505050565b60805161177d6100e46000396000610be4015261177d6000f3fe608060405234801561001057600080fd5b506004361061009e5760003560e01c80638da5cb5b116100665780638da5cb5b1461012c578063a3c4bcf814610147578063c7ddca0e1461015a578063e691ad331461016d578063f2fde38b1461019057600080fd5b806306f80681146100a357806323eb94a0146100cc57806331f3baf1146100ef578063413a9f2d1461010f578063715018a614610124575b600080fd5b6100b66100b1366004610de8565b6101a3565b6040516100c39190610e47565b60405180910390f35b6100df6100da366004610de8565b610241565b6040516100c39493929190610e5a565b6101026100fd366004610de8565b610489565b6040516100c39190610eb2565b61012261011d366004611041565b6105a5565b005b610122610870565b6000546040516001600160a01b0390911681526020016100c3565b6100df610155366004610de8565b610884565b610122610168366004611195565b6108b7565b61018061017b3660046112ef565b610bca565b60405190151581526020016100c3565b61012261019e3660046113aa565b610c65565b6003602052600090815260409020805481906101be906113da565b80601f01602080910402602001604051908101604052809291908181526020018280546101ea906113da565b80156102375780601f1061020c57610100808354040283529160200191610237565b820191906000526020600020905b81548152906001019060200180831161021a57829003601f168201915b5050505050905081565b60026020526000908152604090208054819061025c906113da565b80601f0160208091040260200160405190810160405280929190818152602001828054610288906113da565b80156102d55780601f106102aa576101008083540402835291602001916102d5565b820191906000526020600020905b8154815290600101906020018083116102b857829003601f168201915b5050505050908060010180546102ea906113da565b80601f0160208091040260200160405190810160405280929190818152602001828054610316906113da565b80156103635780601f1061033857610100808354040283529160200191610363565b820191906000526020600020905b81548152906001019060200180831161034657829003601f168201915b505050505090806002018054610378906113da565b80601f01602080910402602001604051908101604052809291908181526020018280546103a4906113da565b80156103f15780601f106103c6576101008083540402835291602001916103f1565b820191906000526020600020905b8154815290600101906020018083116103d457829003601f168201915b505050505090806003018054610406906113da565b80601f0160208091040260200160405190810160405280929190818152602001828054610432906113da565b801561047f5780601f106104545761010080835404028352916020019161047f565b820191906000526020600020905b81548152906001019060200180831161046257829003601f168201915b5050505050905084565b60408051808201909152606080825260208201526000828152600360205260409081902081518083019092528054829082906104c4906113da565b80601f01602080910402602001604051908101604052809291908181526020018280546104f0906113da565b801561053d5780601f106105125761010080835404028352916020019161053d565b820191906000526020600020905b81548152906001019060200180831161052057829003601f168201915b505050505081526020016001820180548060200260200160405190810160405280929190818152602001828054801561059557602002820191906000526020600020905b815481526020019060010190808311610581575b5050505050815250509050919050565b60015460000361061b5760405162461bcd60e51b815260206004820152603660248201527f5468652043455820686173206e6f74207375626d697474656420616e792061646044820152756472657373206f776e6572736869702070726f6f667360501b60648201526084015b60405180910390fd5b60008351600161062b919061142a565b67ffffffffffffffff81111561064357610643610f1a565b60405190808252806020026020018201604052801561066c578160200160208202803683370190505b50905084816000815181106106835761068361143d565b60200260200101818152505060005b845181101561077e578481815181106106ad576106ad61143d565b602002602001015160200151516000141580156106e957508481815181106106d7576106d761143d565b60200260200101516000015151600014155b6107255760405162461bcd60e51b815260206004820152600d60248201526c125b9d985b1a5908185cdcd95d609a1b6044820152606401610612565b8481815181106107375761073761143d565b60200260200101516040015182826001610751919061142a565b815181106107615761076161143d565b60209081029190910101528061077681611453565b915050610692565b506107898382610bca565b6107c85760405162461bcd60e51b815260206004820152601060248201526f24b73b30b634b2102d2590383937b7b360811b6044820152606401610612565b60408051808201825284815260208082018490526000858152600390915291909120815181906107f890826114bb565b5060208281015180516108119260018501920190610d88565b50905050817f0473581c3cf437afc52207d88ce1541afbc7ce9fdb83b4d4d3b7214beed56ff58260008151811061084a5761084a61143d565b60200260200101518660405161086192919061157b565b60405180910390a25050505050565b610878610cde565b6108826000610d38565b565b6001818154811061089457600080fd5b906000526020600020906004020160009150905080600001805461025c906113da565b60005b8151811015610b8f5760008282815181106108d7576108d761143d565b6020026020010151600001516040516020016108f39190610e47565b60405160208183030381529060405280519060200120905060026000828152602001908152602001600020600201805461092c906113da565b15905061097b5760405162461bcd60e51b815260206004820152601860248201527f4164647265737320616c726561647920766572696669656400000000000000006044820152606401610612565b82828151811061098d5761098d61143d565b602090810291909101810151600083815260029092526040909120815181906109b690826114bb565b50602082015160018201906109cb90826114bb565b50604082015160028201906109e090826114bb565b50606082015160038201906109f590826114bb565b509050506001838381518110610a0d57610a0d61143d565b60209081029190910181015182546001810184556000938452919092208251600490920201908190610a3f90826114bb565b5060208201516001820190610a5490826114bb565b5060408201516002820190610a6990826114bb565b5060608201516003820190610a7e90826114bb565b505050828281518110610a9357610a9361143d565b60200260200101516000015151600014158015610acf5750828281518110610abd57610abd61143d565b60200260200101516020015151600014155b8015610afa5750828281518110610ae857610ae861143d565b60200260200101516040015151600014155b8015610b255750828281518110610b1357610b1361143d565b60200260200101516060015151600014155b610b7c5760405162461bcd60e51b815260206004820152602260248201527f496e76616c69642070726f6f66206f662061646472657373206f776e65727368604482015261069760f41b6064820152608401610612565b5080610b8781611453565b9150506108ba565b507f382315d4d56a6035e1899bffe77d9becefaf5f2650e4323b27854857a045465881604051610bbf9190611612565b60405180910390a150565b604051630bd205a960e41b81526000906001600160a01b037f0000000000000000000000000000000000000000000000000000000000000000169063bd205a9090610c1b90859087906004016116ce565b602060405180830381865afa158015610c38573d6000803e3d6000fd5b505050506040513d601f19601f82011682018060405250810190610c5c9190611725565b90505b92915050565b610c6d610cde565b6001600160a01b038116610cd25760405162461bcd60e51b815260206004820152602660248201527f4f776e61626c653a206e6577206f776e657220697320746865207a65726f206160448201526564647265737360d01b6064820152608401610612565b610cdb81610d38565b50565b6000546001600160a01b031633146108825760405162461bcd60e51b815260206004820181905260248201527f4f776e61626c653a2063616c6c6572206973206e6f7420746865206f776e65726044820152606401610612565b600080546001600160a01b038381166001600160a01b0319831681178455604051919092169283917f8be0079c531659141344cd1fd0a4f28419497f9722a3daafe3b4186f6b6457e09190a35050565b828054828255906000526020600020908101928215610dc3579160200282015b82811115610dc3578251825591602001919060010190610da8565b50610dcf929150610dd3565b5090565b5b80821115610dcf5760008155600101610dd4565b600060208284031215610dfa57600080fd5b5035919050565b6000815180845260005b81811015610e2757602081850181015186830182015201610e0b565b506000602082860101526020601f19601f83011685010191505092915050565b602081526000610c5c6020830184610e01565b608081526000610e6d6080830187610e01565b8281036020840152610e7f8187610e01565b90508281036040840152610e938186610e01565b90508281036060840152610ea78185610e01565b979650505050505050565b600060208083528351604082850152610ece6060850182610e01565b85830151858203601f19016040870152805180835290840192506000918401905b80831015610f0f5783518252928401926001929092019190840190610eef565b509695505050505050565b634e487b7160e01b600052604160045260246000fd5b6040516060810167ffffffffffffffff81118282101715610f5357610f53610f1a565b60405290565b6040516080810167ffffffffffffffff81118282101715610f5357610f53610f1a565b604051601f8201601f1916810167ffffffffffffffff81118282101715610fa557610fa5610f1a565b604052919050565b600067ffffffffffffffff821115610fc757610fc7610f1a565b5060051b60200190565b600082601f830112610fe257600080fd5b813567ffffffffffffffff811115610ffc57610ffc610f1a565b61100f601f8201601f1916602001610f7c565b81815284602083860101111561102457600080fd5b816020850160208301376000918101602001919091529392505050565b6000806000806080858703121561105757600080fd5b84359350602085013567ffffffffffffffff8082111561107657600080fd5b818701915087601f83011261108a57600080fd5b61109c6110978335610fad565b610f7c565b82358082526020808301929160051b8501018a8111156110bb57600080fd5b602085015b8181101561115d5784813511156110d657600080fd5b803586016060818e03601f190112156110ee57600080fd5b6110f6610f30565b60208201358781111561110857600080fd5b6111178f602083860101610fd1565b82525060408201358781111561112c57600080fd5b61113b8f602083860101610fd1565b60208381019190915260609390930135604083015250855293840193016110c0565b509096505050604087013591508082111561117757600080fd5b5061118487828801610fd1565b949793965093946060013593505050565b600060208083850312156111a857600080fd5b823567ffffffffffffffff808211156111c057600080fd5b818501915085601f8301126111d457600080fd5b81356111e261109782610fad565b81815260059190911b8301840190848101908883111561120157600080fd5b8585015b838110156112e25780358581111561121c57600080fd5b86016080818c03601f190112156112335760008081fd5b61123b610f59565b888201358781111561124d5760008081fd5b61125b8d8b83860101610fd1565b825250604080830135888111156112725760008081fd5b6112808e8c83870101610fd1565b8b84015250606080840135898111156112995760008081fd5b6112a78f8d83880101610fd1565b838501525060808401359150888211156112c15760008081fd5b6112cf8e8c84870101610fd1565b9083015250845250918601918601611205565b5098975050505050505050565b6000806040838503121561130257600080fd5b823567ffffffffffffffff8082111561131a57600080fd5b61132686838701610fd1565b935060209150818501358181111561133d57600080fd5b85019050601f8101861361135057600080fd5b803561135e61109782610fad565b81815260059190911b8201830190838101908883111561137d57600080fd5b928401925b8284101561139b57833582529284019290840190611382565b80955050505050509250929050565b6000602082840312156113bc57600080fd5b81356001600160a01b03811681146113d357600080fd5b9392505050565b600181811c908216806113ee57607f821691505b60208210810361140e57634e487b7160e01b600052602260045260246000fd5b50919050565b634e487b7160e01b600052601160045260246000fd5b80820180821115610c5f57610c5f611414565b634e487b7160e01b600052603260045260246000fd5b60006001820161146557611465611414565b5060010190565b601f8211156114b657600081815260208120601f850160051c810160208610156114935750805b601f850160051c820191505b818110156114b25782815560010161149f565b5050505b505050565b815167ffffffffffffffff8111156114d5576114d5610f1a565b6114e9816114e384546113da565b8461146c565b602080601f83116001811461151e57600084156115065750858301515b600019600386901b1c1916600185901b1785556114b2565b600085815260208120601f198616915b8281101561154d5788860151825594840194600190910190840161152e565b508582101561156b5787850151600019600388901b60f8161c191681555b5050505050600190811b01905550565b6000604080830185845260208281860152818651808452606093508387019150838160051b88010183890160005b8381101561160257898303605f19018552815180518885526115cd89860182610e01565b905087820151858203898701526115e48282610e01565b928b0151958b019590955250948601949250908501906001016115a9565b50909a9950505050505050505050565b60006020808301818452808551808352604092508286019150828160051b87010184880160005b838110156116c057603f1989840301855281516080815181865261165f82870182610e01565b915050888201518582038a8701526116778282610e01565b915050878201518582038987015261168f8282610e01565b915050606080830151925085820381870152506116ac8183610e01565b968901969450505090860190600101611639565b509098975050505050505050565b604080825283519082018190526000906020906060840190828701845b82811015611707578151845292840192908401906001016116eb565b5050508381038285015261171b8186610e01565b9695505050505050565b60006020828403121561173757600080fd5b815180151581146113d357600080fdfea2646970667358221220563474465cd0efa9d54a1ed93974a099230293874a9d9be43e7ff161f7dcf76164736f6c63430008120033","linkReferences":{},"deployedLinkReferences":{}}