{"_format":"hh-sol-artifact-1","contractName":"Summa","sourceName":"src/Summa.sol","abi":[{"inputs":[{"internalType":"contract IVerifier","name":"_verifier","type":"address"}],"stateMutability":"nonpayable","type":"constructor"},{"anonymous":false,"inputs":[{"components":[{"internalType":"string","name":"cexAddress","type":"string"},{"internalType":"string","name":"chain","type":"string"},{"internalType":"bytes","name":"signature","type":"bytes"},{"internalType":"bytes","name":"message","type":"bytes"}],"indexed":false,"internalType":"struct Summa.AddressOwnershipProof[]","name":"addressOwnershipProofs","type":"tuple[]"}],"name":"AddressOwnershipProofSubmitted","type":"event"},{"anonymous":false,"inputs":[{"indexed":true,"internalType":"address","name":"previousOwner","type":"address"},{"indexed":true,"internalType":"address","name":"newOwner","type":"address"}],"name":"OwnershipTransferred","type":"event"},{"anonymous":false,"inputs":[{"indexed":true,"internalType":"uint256","name":"timestamp","type":"uint256"},{"indexed":false,"internalType":"uint256","name":"mstRoot","type":"uint256"},{"components":[{"internalType":"string","name":"assetName","type":"string"},{"internalType":"string","name":"chain","type":"string"},{"internalType":"uint256","name":"amount","type":"uint256"}],"indexed":false,"internalType":"struct Summa.Asset[]","name":"assets","type":"tuple[]"}],"name":"SolvencyProofSubmitted","type":"event"},{"inputs":[{"internalType":"uint256","name":"","type":"uint256"}],"name":"addressOwnershipProofs","outputs":[{"internalType":"string","name":"cexAddress","type":"string"},{"internalType":"string","name":"chain","type":"string"},{"internalType":"bytes","name":"signature","type":"bytes"},{"internalType":"bytes","name":"message","type":"bytes"}],"stateMutability":"view","type":"function"},{"inputs":[{"internalType":"uint256","name":"timestamp","type":"uint256"}],"name":"getProofOfSolvency","outputs":[{"components":[{"internalType":"bytes","name":"proof","type":"bytes"},{"internalType":"uint256[]","name":"publicInputs","type":"uint256[]"}],"internalType":"struct Summa.ZKProof","name":"","type":"tuple"}],"stateMutability":"view","type":"function"},{"inputs":[],"name":"owner","outputs":[{"internalType":"address","name":"","type":"address"}],"stateMutability":"view","type":"function"},{"inputs":[{"internalType":"bytes32","name":"","type":"bytes32"}],"name":"ownershipProofByAddress","outputs":[{"internalType":"string","name":"cexAddress","type":"string"},{"internalType":"string","name":"chain","type":"string"},{"internalType":"bytes","name":"signature","type":"bytes"},{"internalType":"bytes","name":"message","type":"bytes"}],"stateMutability":"view","type":"function"},{"inputs":[],"name":"renounceOwnership","outputs":[],"stateMutability":"nonpayable","type":"function"},{"inputs":[{"internalType":"uint256","name":"","type":"uint256"}],"name":"solvencyProofs","outputs":[{"internalType":"bytes","name":"proof","type":"bytes"}],"stateMutability":"view","type":"function"},{"inputs":[{"components":[{"internalType":"string","name":"cexAddress","type":"string"},{"internalType":"string","name":"chain","type":"string"},{"internalType":"bytes","name":"signature","type":"bytes"},{"internalType":"bytes","name":"message","type":"bytes"}],"internalType":"struct Summa.AddressOwnershipProof[]","name":"_addressOwnershipProofs","type":"tuple[]"}],"name":"submitProofOfAddressOwnership","outputs":[],"stateMutability":"nonpayable","type":"function"},{"inputs":[{"internalType":"uint256","name":"mstRoot","type":"uint256"},{"components":[{"internalType":"string","name":"assetName","type":"string"},{"internalType":"string","name":"chain","type":"string"},{"internalType":"uint256","name":"amount","type":"uint256"}],"internalType":"struct Summa.Asset[]","name":"assets","type":"tuple[]"},{"internalType":"bytes","name":"proof","type":"bytes"},{"internalType":"uint256","name":"timestamp","type":"uint256"}],"name":"submitProofOfSolvency","outputs":[],"stateMutability":"nonpayable","type":"function"},{"inputs":[{"internalType":"address","name":"newOwner","type":"address"}],"name":"transferOwnership","outputs":[],"stateMutability":"nonpayable","type":"function"},{"inputs":[{"internalType":"bytes","name":"proof","type":"bytes"},{"internalType":"uint256[]","name":"publicInputs","type":"uint256[]"}],"name":"verifyZkProof","outputs":[{"internalType":"bool","name":"","type":"bool"}],"stateMutability":"view","type":"function"}],"bytecode":"0x60a060405234801561001057600080fd5b5060405161187838038061187883398101604081905261002f91610099565b61003833610049565b6001600160a01b03166080526100c9565b600080546001600160a01b038381166001600160a01b0319831681178455604051919092169283917f8be0079c531659141344cd1fd0a4f28419497f9722a3daafe3b4186f6b6457e09190a35050565b6000602082840312156100ab57600080fd5b81516001600160a01b03811681146100c257600080fd5b9392505050565b6080516117946100e46000396000610bfb01526117946000f3fe608060405234801561001057600080fd5b506004361061009e5760003560e01c80638da5cb5b116100665780638da5cb5b1461012c578063a3c4bcf814610147578063c7ddca0e1461015a578063e691ad331461016d578063f2fde38b1461019057600080fd5b806306f80681146100a357806323eb94a0146100cc57806331f3baf1146100ef578063413a9f2d1461010f578063715018a614610124575b600080fd5b6100b66100b1366004610dff565b6101a3565b6040516100c39190610e5e565b60405180910390f35b6100df6100da366004610dff565b610241565b6040516100c39493929190610e71565b6101026100fd366004610dff565b610489565b6040516100c39190610ec9565b61012261011d366004611058565b6105a5565b005b610122610878565b6000546040516001600160a01b0390911681526020016100c3565b6100df610155366004610dff565b61088c565b6101226101683660046111ac565b6108bf565b61018061017b366004611306565b610bda565b60405190151581526020016100c3565b61012261019e3660046113c1565b610c7c565b6003602052600090815260409020805481906101be906113f1565b80601f01602080910402602001604051908101604052809291908181526020018280546101ea906113f1565b80156102375780601f1061020c57610100808354040283529160200191610237565b820191906000526020600020905b81548152906001019060200180831161021a57829003601f168201915b5050505050905081565b60026020526000908152604090208054819061025c906113f1565b80601f0160208091040260200160405190810160405280929190818152602001828054610288906113f1565b80156102d55780601f106102aa576101008083540402835291602001916102d5565b820191906000526020600020905b8154815290600101906020018083116102b857829003601f168201915b5050505050908060010180546102ea906113f1565b80601f0160208091040260200160405190810160405280929190818152602001828054610316906113f1565b80156103635780601f1061033857610100808354040283529160200191610363565b820191906000526020600020905b81548152906001019060200180831161034657829003601f168201915b505050505090806002018054610378906113f1565b80601f01602080910402602001604051908101604052809291908181526020018280546103a4906113f1565b80156103f15780601f106103c6576101008083540402835291602001916103f1565b820191906000526020600020905b8154815290600101906020018083116103d457829003601f168201915b505050505090806003018054610406906113f1565b80601f0160208091040260200160405190810160405280929190818152602001828054610432906113f1565b801561047f5780601f106104545761010080835404028352916020019161047f565b820191906000526020600020905b81548152906001019060200180831161046257829003601f168201915b5050505050905084565b60408051808201909152606080825260208201526000828152600360205260409081902081518083019092528054829082906104c4906113f1565b80601f01602080910402602001604051908101604052809291908181526020018280546104f0906113f1565b801561053d5780601f106105125761010080835404028352916020019161053d565b820191906000526020600020905b81548152906001019060200180831161052057829003601f168201915b505050505081526020016001820180548060200260200160405190810160405280929190818152602001828054801561059557602002820191906000526020600020905b815481526020019060010190808311610581575b5050505050815250509050919050565b6105ad610cf5565b6001546000036106235760405162461bcd60e51b815260206004820152603660248201527f5468652043455820686173206e6f74207375626d697474656420616e792061646044820152756472657373206f776e6572736869702070726f6f667360501b60648201526084015b60405180910390fd5b6000835160016106339190611441565b67ffffffffffffffff81111561064b5761064b610f31565b604051908082528060200260200182016040528015610674578160200160208202803683370190505b509050848160008151811061068b5761068b611454565b60200260200101818152505060005b8451811015610786578481815181106106b5576106b5611454565b602002602001015160200151516000141580156106f157508481815181106106df576106df611454565b60200260200101516000015151600014155b61072d5760405162461bcd60e51b815260206004820152600d60248201526c125b9d985b1a5908185cdcd95d609a1b604482015260640161061a565b84818151811061073f5761073f611454565b602002602001015160400151828260016107599190611441565b8151811061076957610769611454565b60209081029190910101528061077e8161146a565b91505061069a565b506107918382610bda565b6107d05760405162461bcd60e51b815260206004820152601060248201526f24b73b30b634b2102d2590383937b7b360811b604482015260640161061a565b604080518082018252848152602080820184905260008581526003909152919091208151819061080090826114d2565b5060208281015180516108199260018501920190610d9f565b50905050817f0473581c3cf437afc52207d88ce1541afbc7ce9fdb83b4d4d3b7214beed56ff58260008151811061085257610852611454565b602002602001015186604051610869929190611592565b60405180910390a25050505050565b610880610cf5565b61088a6000610d4f565b565b6001818154811061089c57600080fd5b906000526020600020906004020160009150905080600001805461025c906113f1565b6108c7610cf5565b60005b8151811015610b9f5760008282815181106108e7576108e7611454565b6020026020010151600001516040516020016109039190610e5e565b60405160208183030381529060405280519060200120905060026000828152602001908152602001600020600201805461093c906113f1565b15905061098b5760405162461bcd60e51b815260206004820152601860248201527f4164647265737320616c72656164792076657269666965640000000000000000604482015260640161061a565b82828151811061099d5761099d611454565b602090810291909101810151600083815260029092526040909120815181906109c690826114d2565b50602082015160018201906109db90826114d2565b50604082015160028201906109f090826114d2565b5060608201516003820190610a0590826114d2565b509050506001838381518110610a1d57610a1d611454565b60209081029190910181015182546001810184556000938452919092208251600490920201908190610a4f90826114d2565b5060208201516001820190610a6490826114d2565b5060408201516002820190610a7990826114d2565b5060608201516003820190610a8e90826114d2565b505050828281518110610aa357610aa3611454565b60200260200101516000015151600014158015610adf5750828281518110610acd57610acd611454565b60200260200101516020015151600014155b8015610b0a5750828281518110610af857610af8611454565b60200260200101516040015151600014155b8015610b355750828281518110610b2357610b23611454565b60200260200101516060015151600014155b610b8c5760405162461bcd60e51b815260206004820152602260248201527f496e76616c69642070726f6f66206f662061646472657373206f776e65727368604482015261069760f41b606482015260840161061a565b5080610b978161146a565b9150506108ca565b507f382315d4d56a6035e1899bffe77d9becefaf5f2650e4323b27854857a045465881604051610bcf9190611629565b60405180910390a150565b6000610be4610cf5565b604051630bd205a960e41b81526001600160a01b037f0000000000000000000000000000000000000000000000000000000000000000169063bd205a9090610c3290859087906004016116e5565b602060405180830381865afa158015610c4f573d6000803e3d6000fd5b505050506040513d601f19601f82011682018060405250810190610c73919061173c565b90505b92915050565b610c84610cf5565b6001600160a01b038116610ce95760405162461bcd60e51b815260206004820152602660248201527f4f776e61626c653a206e6577206f776e657220697320746865207a65726f206160448201526564647265737360d01b606482015260840161061a565b610cf281610d4f565b50565b6000546001600160a01b0316331461088a5760405162461bcd60e51b815260206004820181905260248201527f4f776e61626c653a2063616c6c6572206973206e6f7420746865206f776e6572604482015260640161061a565b600080546001600160a01b038381166001600160a01b0319831681178455604051919092169283917f8be0079c531659141344cd1fd0a4f28419497f9722a3daafe3b4186f6b6457e09190a35050565b828054828255906000526020600020908101928215610dda579160200282015b82811115610dda578251825591602001919060010190610dbf565b50610de6929150610dea565b5090565b5b80821115610de65760008155600101610deb565b600060208284031215610e1157600080fd5b5035919050565b6000815180845260005b81811015610e3e57602081850181015186830182015201610e22565b506000602082860101526020601f19601f83011685010191505092915050565b602081526000610c736020830184610e18565b608081526000610e846080830187610e18565b8281036020840152610e968187610e18565b90508281036040840152610eaa8186610e18565b90508281036060840152610ebe8185610e18565b979650505050505050565b600060208083528351604082850152610ee56060850182610e18565b85830151858203601f19016040870152805180835290840192506000918401905b80831015610f265783518252928401926001929092019190840190610f06565b509695505050505050565b634e487b7160e01b600052604160045260246000fd5b6040516060810167ffffffffffffffff81118282101715610f6a57610f6a610f31565b60405290565b6040516080810167ffffffffffffffff81118282101715610f6a57610f6a610f31565b604051601f8201601f1916810167ffffffffffffffff81118282101715610fbc57610fbc610f31565b604052919050565b600067ffffffffffffffff821115610fde57610fde610f31565b5060051b60200190565b600082601f830112610ff957600080fd5b813567ffffffffffffffff81111561101357611013610f31565b611026601f8201601f1916602001610f93565b81815284602083860101111561103b57600080fd5b816020850160208301376000918101602001919091529392505050565b6000806000806080858703121561106e57600080fd5b84359350602085013567ffffffffffffffff8082111561108d57600080fd5b818701915087601f8301126110a157600080fd5b6110b36110ae8335610fc4565b610f93565b82358082526020808301929160051b8501018a8111156110d257600080fd5b602085015b818110156111745784813511156110ed57600080fd5b803586016060818e03601f1901121561110557600080fd5b61110d610f47565b60208201358781111561111f57600080fd5b61112e8f602083860101610fe8565b82525060408201358781111561114357600080fd5b6111528f602083860101610fe8565b60208381019190915260609390930135604083015250855293840193016110d7565b509096505050604087013591508082111561118e57600080fd5b5061119b87828801610fe8565b949793965093946060013593505050565b600060208083850312156111bf57600080fd5b823567ffffffffffffffff808211156111d757600080fd5b818501915085601f8301126111eb57600080fd5b81356111f96110ae82610fc4565b81815260059190911b8301840190848101908883111561121857600080fd5b8585015b838110156112f95780358581111561123357600080fd5b86016080818c03601f1901121561124a5760008081fd5b611252610f70565b88820135878111156112645760008081fd5b6112728d8b83860101610fe8565b825250604080830135888111156112895760008081fd5b6112978e8c83870101610fe8565b8b84015250606080840135898111156112b05760008081fd5b6112be8f8d83880101610fe8565b838501525060808401359150888211156112d85760008081fd5b6112e68e8c84870101610fe8565b908301525084525091860191860161121c565b5098975050505050505050565b6000806040838503121561131957600080fd5b823567ffffffffffffffff8082111561133157600080fd5b61133d86838701610fe8565b935060209150818501358181111561135457600080fd5b85019050601f8101861361136757600080fd5b80356113756110ae82610fc4565b81815260059190911b8201830190838101908883111561139457600080fd5b928401925b828410156113b257833582529284019290840190611399565b80955050505050509250929050565b6000602082840312156113d357600080fd5b81356001600160a01b03811681146113ea57600080fd5b9392505050565b600181811c9082168061140557607f821691505b60208210810361142557634e487b7160e01b600052602260045260246000fd5b50919050565b634e487b7160e01b600052601160045260246000fd5b80820180821115610c7657610c7661142b565b634e487b7160e01b600052603260045260246000fd5b60006001820161147c5761147c61142b565b5060010190565b601f8211156114cd57600081815260208120601f850160051c810160208610156114aa5750805b601f850160051c820191505b818110156114c9578281556001016114b6565b5050505b505050565b815167ffffffffffffffff8111156114ec576114ec610f31565b611500816114fa84546113f1565b84611483565b602080601f831160018114611535576000841561151d5750858301515b600019600386901b1c1916600185901b1785556114c9565b600085815260208120601f198616915b8281101561156457888601518255948401946001909101908401611545565b50858210156115825787850151600019600388901b60f8161c191681555b5050505050600190811b01905550565b6000604080830185845260208281860152818651808452606093508387019150838160051b88010183890160005b8381101561161957898303605f19018552815180518885526115e489860182610e18565b905087820151858203898701526115fb8282610e18565b928b0151958b019590955250948601949250908501906001016115c0565b50909a9950505050505050505050565b60006020808301818452808551808352604092508286019150828160051b87010184880160005b838110156116d757603f1989840301855281516080815181865261167682870182610e18565b915050888201518582038a87015261168e8282610e18565b91505087820151858203898701526116a68282610e18565b915050606080830151925085820381870152506116c38183610e18565b968901969450505090860190600101611650565b509098975050505050505050565b604080825283519082018190526000906020906060840190828701845b8281101561171e57815184529284019290840190600101611702565b505050838103828501526117328186610e18565b9695505050505050565b60006020828403121561174e57600080fd5b815180151581146113ea57600080fdfea2646970667358221220f6036fb3d712c3a249d65e78a5774bde4d78d34e34f242dae564481f82621b8264736f6c63430008120033","linkReferences":{},"deployedLinkReferences":{}}