{"_format":"hh-sol-artifact-1","contractName":"Summa","sourceName":"src/Summa.sol","abi":[{"inputs":[{"internalType":"contract IVerifier","name":"_solvencyVerifier","type":"address"},{"internalType":"contract IVerifier","name":"_inclusionVerifier","type":"address"}],"stateMutability":"nonpayable","type":"constructor"},{"anonymous":false,"inputs":[{"components":[{"internalType":"string","name":"cexAddress","type":"string"},{"internalType":"string","name":"chain","type":"string"},{"internalType":"bytes","name":"signature","type":"bytes"},{"internalType":"bytes","name":"message","type":"bytes"}],"indexed":false,"internalType":"struct Summa.AddressOwnershipProof[]","name":"addressOwnershipProofs","type":"tuple[]"}],"name":"AddressOwnershipProofSubmitted","type":"event"},{"anonymous":false,"inputs":[{"indexed":true,"internalType":"address","name":"previousOwner","type":"address"},{"indexed":true,"internalType":"address","name":"newOwner","type":"address"}],"name":"OwnershipTransferred","type":"event"},{"anonymous":false,"inputs":[{"indexed":true,"internalType":"uint256","name":"timestamp","type":"uint256"},{"indexed":false,"internalType":"uint256","name":"mstRoot","type":"uint256"},{"components":[{"internalType":"string","name":"assetName","type":"string"},{"internalType":"string","name":"chain","type":"string"},{"internalType":"uint256","name":"amount","type":"uint256"}],"indexed":false,"internalType":"struct Summa.Asset[]","name":"assets","type":"tuple[]"}],"name":"SolvencyProofSubmitted","type":"event"},{"inputs":[{"internalType":"uint256","name":"","type":"uint256"}],"name":"addressOwnershipProofs","outputs":[{"internalType":"string","name":"cexAddress","type":"string"},{"internalType":"string","name":"chain","type":"string"},{"internalType":"bytes","name":"signature","type":"bytes"},{"internalType":"bytes","name":"message","type":"bytes"}],"stateMutability":"view","type":"function"},{"inputs":[{"internalType":"uint256","name":"","type":"uint256"}],"name":"mstRoots","outputs":[{"internalType":"uint256","name":"","type":"uint256"}],"stateMutability":"view","type":"function"},{"inputs":[],"name":"owner","outputs":[{"internalType":"address","name":"","type":"address"}],"stateMutability":"view","type":"function"},{"inputs":[{"internalType":"bytes32","name":"","type":"bytes32"}],"name":"ownershipProofByAddress","outputs":[{"internalType":"uint256","name":"","type":"uint256"}],"stateMutability":"view","type":"function"},{"inputs":[],"name":"renounceOwnership","outputs":[],"stateMutability":"nonpayable","type":"function"},{"inputs":[{"components":[{"internalType":"string","name":"cexAddress","type":"string"},{"internalType":"string","name":"chain","type":"string"},{"internalType":"bytes","name":"signature","type":"bytes"},{"internalType":"bytes","name":"message","type":"bytes"}],"internalType":"struct Summa.AddressOwnershipProof[]","name":"_addressOwnershipProofs","type":"tuple[]"}],"name":"submitProofOfAddressOwnership","outputs":[],"stateMutability":"nonpayable","type":"function"},{"inputs":[{"internalType":"uint256","name":"mstRoot","type":"uint256"},{"components":[{"internalType":"string","name":"assetName","type":"string"},{"internalType":"string","name":"chain","type":"string"},{"internalType":"uint256","name":"amount","type":"uint256"}],"internalType":"struct Summa.Asset[]","name":"assets","type":"tuple[]"},{"internalType":"bytes","name":"proof","type":"bytes"},{"internalType":"uint256","name":"timestamp","type":"uint256"}],"name":"submitProofOfSolvency","outputs":[],"stateMutability":"nonpayable","type":"function"},{"inputs":[{"internalType":"address","name":"newOwner","type":"address"}],"name":"transferOwnership","outputs":[],"stateMutability":"nonpayable","type":"function"},{"inputs":[{"internalType":"bytes","name":"proof","type":"bytes"},{"internalType":"uint256[]","name":"publicInputs","type":"uint256[]"},{"internalType":"uint256","name":"timestamp","type":"uint256"}],"name":"verifyInclusionProof","outputs":[{"internalType":"bool","name":"","type":"bool"}],"stateMutability":"view","type":"function"},{"inputs":[{"internalType":"bytes","name":"proof","type":"bytes"},{"internalType":"uint256[]","name":"publicInputs","type":"uint256[]"}],"name":"verifySolvencyProof","outputs":[{"internalType":"bool","name":"","type":"bool"}],"stateMutability":"view","type":"function"}],"bytecode":"0x60c06040523480156200001157600080fd5b50604051620016f3380380620016f38339810160408190526200003491620000c4565b6200003f3362000057565b6001600160a01b039182166080521660a052620000fc565b600080546001600160a01b038381166001600160a01b0319831681178455604051919092169283917f8be0079c531659141344cd1fd0a4f28419497f9722a3daafe3b4186f6b6457e09190a35050565b80516001600160a01b0381168114620000bf57600080fd5b919050565b60008060408385031215620000d857600080fd5b620000e383620000a7565b9150620000f360208401620000a7565b90509250929050565b60805160a0516115d1620001226000396000610a850152600061045e01526115d16000f3fe608060405234801561001057600080fd5b506004361061009e5760003560e01c80638da5cb5b116100665780638da5cb5b14610136578063a3c4bcf814610151578063c7ddca0e14610174578063c8e5814714610187578063f2fde38b1461019a57600080fd5b806323eb94a0146100a3578063413a9f2d146100d65780636c7684fe146100eb578063715018a61461010e5780637f3bfb2e14610116575b600080fd5b6100c36100b1366004610c28565b60026020526000908152604090205481565b6040519081526020015b60405180910390f35b6100e96100e4366004610d68565b6101ad565b005b6100fe6100f9366004610f22565b610444565b60405190151581526020016100cd565b6100e96104df565b6100c3610124366004610c28565b60036020526000908152604090205481565b6000546040516001600160a01b0390911681526020016100cd565b61016461015f366004610c28565b6104f3565b6040516100cd9493929190610fcc565b6100e9610182366004611024565b610753565b6100fe61019536600461117e565b6109fd565b6100e96101a83660046111eb565b610b05565b6101b5610b7e565b60015460000361022b5760405162461bcd60e51b815260206004820152603660248201527f5468652043455820686173206e6f74207375626d697474656420616e792061646044820152756472657373206f776e6572736869702070726f6f667360501b60648201526084015b60405180910390fd5b60008351600161023b9190611231565b67ffffffffffffffff81111561025357610253610c41565b60405190808252806020026020018201604052801561027c578160200160208202803683370190505b509050848160008151811061029357610293611244565b60200260200101818152505060005b845181101561038e578481815181106102bd576102bd611244565b602002602001015160200151516000141580156102f957508481815181106102e7576102e7611244565b60200260200101516000015151600014155b6103355760405162461bcd60e51b815260206004820152600d60248201526c125b9d985b1a5908185cdcd95d609a1b6044820152606401610222565b84818151811061034757610347611244565b602002602001015160400151828260016103619190611231565b8151811061037157610371611244565b6020908102919091010152806103868161125a565b9150506102a2565b506103998382610444565b6103d85760405162461bcd60e51b815260206004820152601060248201526f24b73b30b634b2102d2590383937b7b360811b6044820152606401610222565b6000828152600360205260408120869055815183917f0473581c3cf437afc52207d88ce1541afbc7ce9fdb83b4d4d3b7214beed56ff59184919061041e5761041e611244565b602002602001015186604051610435929190611273565b60405180910390a25050505050565b604051630bd205a960e41b81526000906001600160a01b037f0000000000000000000000000000000000000000000000000000000000000000169063bd205a9090610495908590879060040161130a565b602060405180830381865afa1580156104b2573d6000803e3d6000fd5b505050506040513d601f19601f820116820180604052508101906104d69190611361565b90505b92915050565b6104e7610b7e565b6104f16000610bd8565b565b6001818154811061050357600080fd5b906000526020600020906004020160009150905080600001805461052690611383565b80601f016020809104026020016040519081016040528092919081815260200182805461055290611383565b801561059f5780601f106105745761010080835404028352916020019161059f565b820191906000526020600020905b81548152906001019060200180831161058257829003601f168201915b5050505050908060010180546105b490611383565b80601f01602080910402602001604051908101604052809291908181526020018280546105e090611383565b801561062d5780601f106106025761010080835404028352916020019161062d565b820191906000526020600020905b81548152906001019060200180831161061057829003601f168201915b50505050509080600201805461064290611383565b80601f016020809104026020016040519081016040528092919081815260200182805461066e90611383565b80156106bb5780601f10610690576101008083540402835291602001916106bb565b820191906000526020600020905b81548152906001019060200180831161069e57829003601f168201915b5050505050908060030180546106d090611383565b80601f01602080910402602001604051908101604052809291908181526020018280546106fc90611383565b80156107495780601f1061071e57610100808354040283529160200191610749565b820191906000526020600020905b81548152906001019060200180831161072c57829003601f168201915b5050505050905084565b61075b610b7e565b60005b81518110156109c257600082828151811061077b5761077b611244565b60200260200101516000015160405160200161079791906113bd565b60408051601f19818403018152918152815160209283012060008181526002909352912054909150801561080d5760405162461bcd60e51b815260206004820152601860248201527f4164647265737320616c726561647920766572696669656400000000000000006044820152606401610222565b610818836001611231565b600083815260026020526040902055835160019085908590811061083e5761083e611244565b60209081029190910181015182546001810184556000938452919092208251600490920201908190610870908261141f565b5060208201516001820190610885908261141f565b506040820151600282019061089a908261141f565b50606082015160038201906108af908261141f565b5050508383815181106108c4576108c4611244565b6020026020010151600001515160001415801561090057508383815181106108ee576108ee611244565b60200260200101516020015151600014155b801561092b575083838151811061091957610919611244565b60200260200101516040015151600014155b8015610956575083838151811061094457610944611244565b60200260200101516060015151600014155b6109ad5760405162461bcd60e51b815260206004820152602260248201527f496e76616c69642070726f6f66206f662061646472657373206f776e65727368604482015261069760f41b6064820152608401610222565b505080806109ba9061125a565b91505061075e565b507f382315d4d56a6035e1899bffe77d9becefaf5f2650e4323b27854857a0454658816040516109f291906114df565b60405180910390a150565b600082600181518110610a1257610a12611244565b6020026020010151600360008481526020019081526020016000205414610a6e5760405162461bcd60e51b815260206004820152601060248201526f125b9d985b1a59081354d5081c9bdbdd60821b6044820152606401610222565b604051630bd205a960e41b81526001600160a01b037f0000000000000000000000000000000000000000000000000000000000000000169063bd205a9090610abc908690889060040161130a565b602060405180830381865afa158015610ad9573d6000803e3d6000fd5b505050506040513d601f19601f82011682018060405250810190610afd9190611361565b949350505050565b610b0d610b7e565b6001600160a01b038116610b725760405162461bcd60e51b815260206004820152602660248201527f4f776e61626c653a206e6577206f776e657220697320746865207a65726f206160448201526564647265737360d01b6064820152608401610222565b610b7b81610bd8565b50565b6000546001600160a01b031633146104f15760405162461bcd60e51b815260206004820181905260248201527f4f776e61626c653a2063616c6c6572206973206e6f7420746865206f776e65726044820152606401610222565b600080546001600160a01b038381166001600160a01b0319831681178455604051919092169283917f8be0079c531659141344cd1fd0a4f28419497f9722a3daafe3b4186f6b6457e09190a35050565b600060208284031215610c3a57600080fd5b5035919050565b634e487b7160e01b600052604160045260246000fd5b6040516060810167ffffffffffffffff81118282101715610c7a57610c7a610c41565b60405290565b6040516080810167ffffffffffffffff81118282101715610c7a57610c7a610c41565b604051601f8201601f1916810167ffffffffffffffff81118282101715610ccc57610ccc610c41565b604052919050565b600067ffffffffffffffff821115610cee57610cee610c41565b5060051b60200190565b600082601f830112610d0957600080fd5b813567ffffffffffffffff811115610d2357610d23610c41565b610d36601f8201601f1916602001610ca3565b818152846020838601011115610d4b57600080fd5b816020850160208301376000918101602001919091529392505050565b60008060008060808587031215610d7e57600080fd5b84359350602085013567ffffffffffffffff80821115610d9d57600080fd5b818701915087601f830112610db157600080fd5b610dc3610dbe8335610cd4565b610ca3565b82358082526020808301929160051b8501018a811115610de257600080fd5b602085015b81811015610e84578481351115610dfd57600080fd5b803586016060818e03601f19011215610e1557600080fd5b610e1d610c57565b602082013587811115610e2f57600080fd5b610e3e8f602083860101610cf8565b825250604082013587811115610e5357600080fd5b610e628f602083860101610cf8565b6020838101919091526060939093013560408301525085529384019301610de7565b5090965050506040870135915080821115610e9e57600080fd5b50610eab87828801610cf8565b949793965093946060013593505050565b600082601f830112610ecd57600080fd5b81356020610edd610dbe83610cd4565b82815260059290921b84018101918181019086841115610efc57600080fd5b8286015b84811015610f175780358352918301918301610f00565b509695505050505050565b60008060408385031215610f3557600080fd5b823567ffffffffffffffff80821115610f4d57600080fd5b610f5986838701610cf8565b93506020850135915080821115610f6f57600080fd5b50610f7c85828601610ebc565b9150509250929050565b6000815180845260005b81811015610fac57602081850181015186830182015201610f90565b506000602082860101526020601f19601f83011685010191505092915050565b608081526000610fdf6080830187610f86565b8281036020840152610ff18187610f86565b905082810360408401526110058186610f86565b905082810360608401526110198185610f86565b979650505050505050565b6000602080838503121561103757600080fd5b823567ffffffffffffffff8082111561104f57600080fd5b818501915085601f83011261106357600080fd5b8135611071610dbe82610cd4565b81815260059190911b8301840190848101908883111561109057600080fd5b8585015b83811015611171578035858111156110ab57600080fd5b86016080818c03601f190112156110c25760008081fd5b6110ca610c80565b88820135878111156110dc5760008081fd5b6110ea8d8b83860101610cf8565b825250604080830135888111156111015760008081fd5b61110f8e8c83870101610cf8565b8b84015250606080840135898111156111285760008081fd5b6111368f8d83880101610cf8565b838501525060808401359150888211156111505760008081fd5b61115e8e8c84870101610cf8565b9083015250845250918601918601611094565b5098975050505050505050565b60008060006060848603121561119357600080fd5b833567ffffffffffffffff808211156111ab57600080fd5b6111b787838801610cf8565b945060208601359150808211156111cd57600080fd5b506111da86828701610ebc565b925050604084013590509250925092565b6000602082840312156111fd57600080fd5b81356001600160a01b038116811461121457600080fd5b9392505050565b634e487b7160e01b600052601160045260246000fd5b808201808211156104d9576104d961121b565b634e487b7160e01b600052603260045260246000fd5b60006001820161126c5761126c61121b565b5060010190565b6000604080830185845260208281860152818651808452606093508387019150838160051b88010183890160005b838110156112fa57898303605f19018552815180518885526112c589860182610f86565b905087820151858203898701526112dc8282610f86565b928b0151958b019590955250948601949250908501906001016112a1565b50909a9950505050505050505050565b604080825283519082018190526000906020906060840190828701845b8281101561134357815184529284019290840190600101611327565b505050838103828501526113578186610f86565b9695505050505050565b60006020828403121561137357600080fd5b8151801515811461121457600080fd5b600181811c9082168061139757607f821691505b6020821081036113b757634e487b7160e01b600052602260045260246000fd5b50919050565b6020815260006104d66020830184610f86565b601f82111561141a57600081815260208120601f850160051c810160208610156113f75750805b601f850160051c820191505b8181101561141657828155600101611403565b5050505b505050565b815167ffffffffffffffff81111561143957611439610c41565b61144d816114478454611383565b846113d0565b602080601f831160018114611482576000841561146a5750858301515b600019600386901b1c1916600185901b178555611416565b600085815260208120601f198616915b828110156114b157888601518255948401946001909101908401611492565b50858210156114cf5787850151600019600388901b60f8161c191681555b5050505050600190811b01905550565b60006020808301818452808551808352604092508286019150828160051b87010184880160005b8381101561158d57603f1989840301855281516080815181865261152c82870182610f86565b915050888201518582038a8701526115448282610f86565b915050878201518582038987015261155c8282610f86565b915050606080830151925085820381870152506115798183610f86565b968901969450505090860190600101611506565b50909897505050505050505056fea26469706673582212205892833baedff2908a642dc60ace741d7f4d60e2a24958e9ef1d8db67a8df3b264736f6c63430008120033","linkReferences":{},"deployedLinkReferences":{}}