{"_format":"hh-sol-artifact-1","contractName":"Summa","sourceName":"src/Summa.sol","abi":[{"inputs":[{"internalType":"contract IVerifier","name":"_verifier","type":"address"}],"stateMutability":"nonpayable","type":"constructor"},{"anonymous":false,"inputs":[{"indexed":true,"internalType":"bytes32","name":"addressType","type":"bytes32"},{"indexed":false,"internalType":"address","name":"verifier","type":"address"}],"name":"AddressVerifierSet","type":"event"},{"anonymous":false,"inputs":[{"indexed":true,"internalType":"bytes32","name":"assetType","type":"bytes32"},{"indexed":false,"internalType":"address","name":"balanceRetriever","type":"address"}],"name":"BalanceRetrieverSet","type":"event"},{"anonymous":false,"inputs":[{"components":[{"internalType":"bytes32","name":"addressType","type":"bytes32"},{"internalType":"bytes","name":"cexAddress","type":"bytes"},{"internalType":"bytes","name":"ownershipProof","type":"bytes"}],"indexed":false,"internalType":"struct Summa.OwnedAddress[]","name":"addresses","type":"tuple[]"}],"name":"ExchangeAddressesSubmitted","type":"event"},{"anonymous":false,"inputs":[{"indexed":true,"internalType":"address","name":"previousOwner","type":"address"},{"indexed":true,"internalType":"address","name":"newOwner","type":"address"}],"name":"OwnershipTransferred","type":"event"},{"anonymous":false,"inputs":[{"indexed":true,"internalType":"uint256","name":"mstRoot","type":"uint256"}],"name":"ProofOfSolvencySubmitted","type":"event"},{"inputs":[{"internalType":"bytes32","name":"","type":"bytes32"}],"name":"balanceRetriever","outputs":[{"internalType":"contract IBalanceRetriever","name":"","type":"address"}],"stateMutability":"view","type":"function"},{"inputs":[{"internalType":"bytes32","name":"","type":"bytes32"}],"name":"balanceRetrieverArgs","outputs":[{"internalType":"bytes","name":"","type":"bytes"}],"stateMutability":"view","type":"function"},{"inputs":[{"internalType":"bytes32","name":"","type":"bytes32"}],"name":"cexAddressVerifier","outputs":[{"internalType":"contract IAddressOwnershipVerifier","name":"","type":"address"}],"stateMutability":"view","type":"function"},{"inputs":[{"internalType":"bytes32","name":"","type":"bytes32"}],"name":"confirmedAddress","outputs":[{"internalType":"bool","name":"","type":"bool"}],"stateMutability":"view","type":"function"},{"inputs":[],"name":"owner","outputs":[{"internalType":"address","name":"","type":"address"}],"stateMutability":"view","type":"function"},{"inputs":[],"name":"renounceOwnership","outputs":[],"stateMutability":"nonpayable","type":"function"},{"inputs":[{"internalType":"address","name":"_verifier","type":"address"}],"name":"setAssetAddressVerifier","outputs":[],"stateMutability":"nonpayable","type":"function"},{"inputs":[{"internalType":"address","name":"retriever","type":"address"}],"name":"setBalanceRetriever","outputs":[],"stateMutability":"nonpayable","type":"function"},{"inputs":[{"components":[{"internalType":"bytes32","name":"addressType","type":"bytes32"},{"internalType":"bytes","name":"cexAddress","type":"bytes"},{"internalType":"bytes","name":"ownershipProof","type":"bytes"}],"internalType":"struct Summa.OwnedAddress[]","name":"_cexAddresses","type":"tuple[]"}],"name":"submitProofOfAccountOwnership","outputs":[],"stateMutability":"nonpayable","type":"function"},{"inputs":[{"components":[{"internalType":"bytes32","name":"assetType","type":"bytes32"},{"internalType":"uint256","name":"amountToProve","type":"uint256"},{"internalType":"bytes[]","name":"addresses","type":"bytes[]"},{"internalType":"bytes","name":"balanceRetrieverArgs","type":"bytes"}],"internalType":"struct Summa.OwnedAsset[]","name":"assets","type":"tuple[]"},{"internalType":"uint256","name":"mstRoot","type":"uint256"},{"internalType":"bytes","name":"proof","type":"bytes"},{"internalType":"uint256","name":"timestamp","type":"uint256"}],"name":"submitProofOfSolvency","outputs":[],"stateMutability":"nonpayable","type":"function"},{"inputs":[{"internalType":"address","name":"newOwner","type":"address"}],"name":"transferOwnership","outputs":[],"stateMutability":"nonpayable","type":"function"},{"inputs":[{"internalType":"bytes","name":"proof","type":"bytes"},{"internalType":"uint256[]","name":"publicInputs","type":"uint256[]"}],"name":"verifyZkProof","outputs":[{"internalType":"bool","name":"","type":"bool"}],"stateMutability":"view","type":"function"}],"bytecode":"0x60a060405234801561001057600080fd5b5060405161181738038061181783398101604081905261002f91610099565b61003833610049565b6001600160a01b03166080526100c9565b600080546001600160a01b038381166001600160a01b0319831681178455604051919092169283917f8be0079c531659141344cd1fd0a4f28419497f9722a3daafe3b4186f6b6457e09190a35050565b6000602082840312156100ab57600080fd5b81516001600160a01b03811681146100c257600080fd5b9392505050565b6080516117336100e46000396000610d9a01526117336000f3fe608060405234801561001057600080fd5b50600436106100b45760003560e01c8063715018a611610071578063715018a61461018d5780638da5cb5b14610195578063989f8de7146101a6578063e2175807146101cf578063e691ad33146101e2578063f2fde38b146101f557600080fd5b806302a5c15c146100b957806303ebe3e6146100ce5780631d6a4326146100e157806333439d65146101275780635cc04bad1461015a57806368c5ceb71461016d575b600080fd5b6100cc6100c7366004611060565b610208565b005b6100cc6100dc36600461117a565b6104dc565b61010a6100ef3660046111aa565b6004602052600090815260409020546001600160a01b031681565b6040516001600160a01b0390911681526020015b60405180910390f35b61014a6101353660046111aa565b60016020526000908152604090205460ff1681565b604051901515815260200161011e565b6100cc61016836600461117a565b610653565b61018061017b3660046111aa565b6107bf565b60405161011e9190611209565b6100cc610859565b6000546001600160a01b031661010a565b61010a6101b43660046111aa565b6002602052600090815260409020546001600160a01b031681565b6100cc6101dd36600461121c565b61086d565b61014a6101f036600461142a565b610d80565b6100cc61020336600461117a565b610e1b565b60005b81518110156104a1576000828281518110610228576102286114e4565b6020908102919091018101518101518051908201206000818152600190925260409091205490915060ff16156102a55760405162461bcd60e51b815260206004820152601860248201527f4164647265737320616c7265616479207665726966696564000000000000000060448201526064015b60405180910390fd5b60008181526001602081905260408220805460ff19169091179055835160049082908690869081106102d9576102d96114e4565b602090810291909101810151518252810191909152604001600020546001600160a01b0316036103655760405162461bcd60e51b815260206004820152603160248201527f41646472657373207665726966696572206e6f742073657420666f7220746869604482015270732074797065206f66206164647265737360781b606482015260840161029c565b6004600084848151811061037b5761037b6114e4565b602002602001015160000151815260200190815260200160002060009054906101000a90046001600160a01b03166001600160a01b03166329acc2d58484815181106103c9576103c96114e4565b6020026020010151602001518585815181106103e7576103e76114e4565b6020026020010151604001516040518363ffffffff1660e01b81526004016104109291906114fa565b602060405180830381865afa15801561042d573d6000803e3d6000fd5b505050506040513d601f19601f820116820180604052508101906104519190611528565b61048e5760405162461bcd60e51b815260206004820152600e60248201526d24b73b30b634b21039b4b3b732b960911b604482015260640161029c565b508061049981611560565b91505061020b565b507fd822ca44e30c46963cf5f7fd90caeea843d64be7b31fe761b53078abf982f21b816040516104d19190611579565b60405180910390a150565b6104e4610e94565b6001600160a01b03811661053a5760405162461bcd60e51b815260206004820152601860248201527f496e76616c696420616464726573732076657269666965720000000000000000604482015260640161029c565b60008190506000816001600160a01b031663f9f207ef6040518163ffffffff1660e01b8152600401602060405180830381865afa15801561057f573d6000803e3d6000fd5b505050506040513d601f19601f820116820180604052508101906105a3919061160a565b9050806105e95760405162461bcd60e51b8152602060048201526014602482015273496e76616c69642061646472657373207479706560601b604482015260640161029c565b60008181526004602090815260409182902080546001600160a01b0319166001600160a01b03868116919091179091559151918516825282917f5aa7d41ef19bf812183efb0c4caf427f7a24c0b7065881737f4b8765fa8fd50b91015b60405180910390a2505050565b61065b610e94565b6001600160a01b0381166106b15760405162461bcd60e51b815260206004820152601960248201527f496e76616c69642062616c616e63652072657472696576657200000000000000604482015260640161029c565b60008190506000816001600160a01b031663896317b86040518163ffffffff1660e01b8152600401602060405180830381865afa1580156106f6573d6000803e3d6000fd5b505050506040513d601f19601f8201168201806040525081019061071a919061160a565b90508061075e5760405162461bcd60e51b8152602060048201526012602482015271496e76616c6964206173736574207479706560701b604482015260640161029c565b60008181526002602090815260409182902080546001600160a01b0319166001600160a01b03868116919091179091559151918516825282917fedff21464e461253ec0b1c3d54a768bab94189d09435e2e3f39f8750b0a1574f9101610646565b600360205260009081526040902080546107d890611623565b80601f016020809104026020016040519081016040528092919081815260200182805461080490611623565b80156108515780601f1061082657610100808354040283529160200191610851565b820191906000526020600020905b81548152906001019060200180831161083457829003601f168201915b505050505081565b610861610e94565b61086b6000610eee565b565b600084516001600160401b0381111561088857610888610f3e565b6040519080825280602002602001820160405280156108b1578160200160208202803683370190505b50905060005b8551811015610c2a5760005b8682815181106108d5576108d56114e4565b60200260200101516040015151811015610b7a57600160008884815181106108ff576108ff6114e4565b602002602001015160400151838151811061091c5761091c6114e4565b60209081029190910181015180519082012082528101919091526040016000205460ff1661098c5760405162461bcd60e51b815260206004820152601e60248201527f41646472657373206f776e657273686970206e6f742076657269666965640000604482015260640161029c565b60006001600160a01b0316600260008985815181106109ad576109ad6114e4565b602090810291909101810151518252810191909152604001600020546001600160a01b031603610a385760405162461bcd60e51b815260206004820152603060248201527f42616c616e636520726574726965766572206e6f742073657420666f7220746860448201526f1a5cc81d1e5c19481bd988185cdcd95d60821b606482015260840161029c565b60026000888481518110610a4e57610a4e6114e4565b602002602001015160000151815260200190815260200160002060009054906101000a90046001600160a01b03166001600160a01b031663260c4cc6888481518110610a9c57610a9c6114e4565b6020026020010151604001518381518110610ab957610ab96114e4565b6020026020010151898581518110610ad357610ad36114e4565b602002602001015160600151876040518463ffffffff1660e01b8152600401610afe9392919061165d565b602060405180830381865afa158015610b1b573d6000803e3d6000fd5b505050506040513d601f19601f82011682018060405250810190610b3f919061160a565b838381518110610b5157610b516114e4565b60200260200101818151610b659190611693565b90525080610b7281611560565b9150506108c3565b50818181518110610b8d57610b8d6114e4565b6020026020010151868281518110610ba757610ba76114e4565b6020026020010151602001511115610c185760405162461bcd60e51b815260206004820152602e60248201527f41637475616c2062616c616e6365206973206c657373207468616e207468652060448201526d70726f76656e2062616c616e636560901b606482015260840161029c565b80610c2281611560565b9150506108b7565b50600085516001610c3b9190611693565b6001600160401b03811115610c5257610c52610f3e565b604051908082528060200260200182016040528015610c7b578160200160208202803683370190505b5090508481600081518110610c9257610c926114e4565b60200260200101818152505060005b8651811015610d0357868181518110610cbc57610cbc6114e4565b60200260200101516020015182826001610cd69190611693565b81518110610ce657610ce66114e4565b602090810291909101015280610cfb81611560565b915050610ca1565b50610d0e8482610d80565b610d4d5760405162461bcd60e51b815260206004820152601060248201526f24b73b30b634b2103d3590383937b7b360811b604482015260640161029c565b60405185907f08367c9e7de6aba412334c7e8a02be4c57a63f268945497c9d693772c7f3969390600090a2505050505050565b604051630bd205a960e41b81526000906001600160a01b037f0000000000000000000000000000000000000000000000000000000000000000169063bd205a9090610dd190859087906004016116a6565b602060405180830381865afa158015610dee573d6000803e3d6000fd5b505050506040513d601f19601f82011682018060405250810190610e129190611528565b90505b92915050565b610e23610e94565b6001600160a01b038116610e885760405162461bcd60e51b815260206004820152602660248201527f4f776e61626c653a206e6577206f776e657220697320746865207a65726f206160448201526564647265737360d01b606482015260840161029c565b610e9181610eee565b50565b6000546001600160a01b0316331461086b5760405162461bcd60e51b815260206004820181905260248201527f4f776e61626c653a2063616c6c6572206973206e6f7420746865206f776e6572604482015260640161029c565b600080546001600160a01b038381166001600160a01b0319831681178455604051919092169283917f8be0079c531659141344cd1fd0a4f28419497f9722a3daafe3b4186f6b6457e09190a35050565b634e487b7160e01b600052604160045260246000fd5b604051606081016001600160401b0381118282101715610f7657610f76610f3e565b60405290565b604051608081016001600160401b0381118282101715610f7657610f76610f3e565b604051601f8201601f191681016001600160401b0381118282101715610fc657610fc6610f3e565b604052919050565b60006001600160401b03821115610fe757610fe7610f3e565b5060051b60200190565b600082601f83011261100257600080fd5b81356001600160401b0381111561101b5761101b610f3e565b61102e601f8201601f1916602001610f9e565b81815284602083860101111561104357600080fd5b816020850160208301376000918101602001919091529392505050565b6000602080838503121561107357600080fd5b82356001600160401b038082111561108a57600080fd5b818501915085601f83011261109e57600080fd5b81356110b16110ac82610fce565b610f9e565b81815260059190911b830184019084810190888311156110d057600080fd5b8585015b8381101561116d578035858111156110ec5760008081fd5b86016060818c03601f19018113156111045760008081fd5b61110c610f54565b898301358152604080840135898111156111265760008081fd5b6111348f8d83880101610ff1565b838d01525091830135918883111561114c5760008081fd5b61115a8e8c85870101610ff1565b90820152855250509186019186016110d4565b5098975050505050505050565b60006020828403121561118c57600080fd5b81356001600160a01b03811681146111a357600080fd5b9392505050565b6000602082840312156111bc57600080fd5b5035919050565b6000815180845260005b818110156111e9576020818501810151868301820152016111cd565b506000602082860101526020601f19601f83011685010191505092915050565b602081526000610e1260208301846111c3565b6000806000806080858703121561123257600080fd5b6001600160401b038535111561124757600080fd5b85601f86358701011261125957600080fd5b6112696110ac8635870135610fce565b8535860180358083526020808401939260059290921b9091010188101561128f57600080fd5b602087358801015b87358801803560051b016020018110156113e7576001600160401b03813511156112c057600080fd5b873588018135016080818b03601f190112156112db57600080fd5b6112e3610f7c565b60208201358152604082013560208201526001600160401b036060830135111561130c57600080fd5b606082013582018b603f82011261132257600080fd5b6113326110ac6020830135610fce565b602082810135808352908201919060051b83016040018e101561135457600080fd5b604083015b6040602085013560051b8501018110156113a0576001600160401b038135111561138257600080fd5b6113928f60408335870101610ff1565b835260209283019201611359565b50604084015250506001600160401b03608083013511156113c057600080fd5b6113d38b60206080850135850101610ff1565b606082015284525060209283019201611297565b50945050602085013592506001600160401b036040860135111561140a57600080fd5b61141a8660408701358701610ff1565b9396929550929360600135925050565b6000806040838503121561143d57600080fd5b82356001600160401b038082111561145457600080fd5b61146086838701610ff1565b935060209150818501358181111561147757600080fd5b85019050601f8101861361148a57600080fd5b80356114986110ac82610fce565b81815260059190911b820183019083810190888311156114b757600080fd5b928401925b828410156114d5578335825292840192908401906114bc565b80955050505050509250929050565b634e487b7160e01b600052603260045260246000fd5b60408152600061150d60408301856111c3565b828103602084015261151f81856111c3565b95945050505050565b60006020828403121561153a57600080fd5b815180151581146111a357600080fd5b634e487b7160e01b600052601160045260246000fd5b6000600182016115725761157261154a565b5060010190565b60006020808301818452808551808352604092508286019150828160051b87010184880160005b838110156115fc57603f19898403018552815160608151855288820151818a8701526115ce828701826111c3565b915050878201519150848103888601526115e881836111c3565b9689019694505050908601906001016115a0565b509098975050505050505050565b60006020828403121561161c57600080fd5b5051919050565b600181811c9082168061163757607f821691505b60208210810361165757634e487b7160e01b600052602260045260246000fd5b50919050565b60608152600061167060608301866111c3565b828103602084015261168281866111c3565b915050826040830152949350505050565b80820180821115610e1557610e1561154a565b604080825283519082018190526000906020906060840190828701845b828110156116df578151845292840192908401906001016116c3565b505050838103828501526116f381866111c3565b969550505050505056fea2646970667358221220a6b15f759e2cb9f93632fdeba5d8a9736b1b9d9278f87ef64738e3079febbcf764736f6c63430008120033","linkReferences":{},"deployedLinkReferences":{}}