{"_format":"hh-sol-artifact-1","contractName":"Summa","sourceName":"src/Summa.sol","abi":[{"inputs":[{"internalType":"contract IVerifier","name":"_verifier","type":"address"}],"stateMutability":"nonpayable","type":"constructor"},{"anonymous":false,"inputs":[{"components":[{"internalType":"string","name":"cexAddress","type":"string"},{"internalType":"string","name":"chain","type":"string"},{"internalType":"bytes","name":"signature","type":"bytes"},{"internalType":"bytes","name":"message","type":"bytes"}],"indexed":false,"internalType":"struct Summa.AddressOwnershipProof[]","name":"addressOwnershipProofs","type":"tuple[]"}],"name":"AddressOwnershipProofSubmitted","type":"event"},{"anonymous":false,"inputs":[{"indexed":true,"internalType":"address","name":"previousOwner","type":"address"},{"indexed":true,"internalType":"address","name":"newOwner","type":"address"}],"name":"OwnershipTransferred","type":"event"},{"anonymous":false,"inputs":[{"indexed":true,"internalType":"uint256","name":"timestamp","type":"uint256"},{"indexed":false,"internalType":"uint256","name":"mstRoot","type":"uint256"},{"components":[{"internalType":"string","name":"assetName","type":"string"},{"internalType":"string","name":"chain","type":"string"},{"internalType":"uint256","name":"amount","type":"uint256"}],"indexed":false,"internalType":"struct Summa.Asset[]","name":"assets","type":"tuple[]"}],"name":"SolvencyProofSubmitted","type":"event"},{"inputs":[{"internalType":"uint256","name":"","type":"uint256"}],"name":"addressOwnershipProofs","outputs":[{"internalType":"string","name":"cexAddress","type":"string"},{"internalType":"string","name":"chain","type":"string"},{"internalType":"bytes","name":"signature","type":"bytes"},{"internalType":"bytes","name":"message","type":"bytes"}],"stateMutability":"view","type":"function"},{"inputs":[],"name":"owner","outputs":[{"internalType":"address","name":"","type":"address"}],"stateMutability":"view","type":"function"},{"inputs":[{"internalType":"bytes32","name":"","type":"bytes32"}],"name":"ownershipProofByAddress","outputs":[{"internalType":"uint256","name":"","type":"uint256"}],"stateMutability":"view","type":"function"},{"inputs":[],"name":"renounceOwnership","outputs":[],"stateMutability":"nonpayable","type":"function"},{"inputs":[{"components":[{"internalType":"string","name":"cexAddress","type":"string"},{"internalType":"string","name":"chain","type":"string"},{"internalType":"bytes","name":"signature","type":"bytes"},{"internalType":"bytes","name":"message","type":"bytes"}],"internalType":"struct Summa.AddressOwnershipProof[]","name":"_addressOwnershipProofs","type":"tuple[]"}],"name":"submitProofOfAddressOwnership","outputs":[],"stateMutability":"nonpayable","type":"function"},{"inputs":[{"internalType":"uint256","name":"mstRoot","type":"uint256"},{"components":[{"internalType":"string","name":"assetName","type":"string"},{"internalType":"string","name":"chain","type":"string"},{"internalType":"uint256","name":"amount","type":"uint256"}],"internalType":"struct Summa.Asset[]","name":"assets","type":"tuple[]"},{"internalType":"bytes","name":"proof","type":"bytes"},{"internalType":"uint256","name":"timestamp","type":"uint256"}],"name":"submitProofOfSolvency","outputs":[],"stateMutability":"nonpayable","type":"function"},{"inputs":[{"internalType":"address","name":"newOwner","type":"address"}],"name":"transferOwnership","outputs":[],"stateMutability":"nonpayable","type":"function"},{"inputs":[{"internalType":"bytes","name":"proof","type":"bytes"},{"internalType":"uint256[]","name":"publicInputs","type":"uint256[]"}],"name":"verifyZkProof","outputs":[{"internalType":"bool","name":"","type":"bool"}],"stateMutability":"view","type":"function"}],"bytecode":"0x60a060405234801561001057600080fd5b506040516114de3803806114de83398101604081905261002f91610099565b61003833610049565b6001600160a01b03166080526100c9565b600080546001600160a01b038381166001600160a01b0319831681178455604051919092169283917f8be0079c531659141344cd1fd0a4f28419497f9722a3daafe3b4186f6b6457e09190a35050565b6000602082840312156100ab57600080fd5b81516001600160a01b03811681146100c257600080fd5b9392505050565b6080516113fa6100e4600039600061092901526113fa6000f3fe608060405234801561001057600080fd5b50600436106100885760003560e01c8063a3c4bcf81161005b578063a3c4bcf8146100f8578063c7ddca0e1461011b578063e691ad331461012e578063f2fde38b1461015157600080fd5b806323eb94a01461008d578063413a9f2d146100c0578063715018a6146100d55780638da5cb5b146100dd575b600080fd5b6100ad61009b366004610acd565b60026020526000908152604090205481565b6040519081526020015b60405180910390f35b6100d36100ce366004610c0d565b610164565b005b6100d36103ea565b6000546040516001600160a01b0390911681526020016100b7565b61010b610106366004610acd565b6103fe565b6040516100b79493929190610da7565b6100d3610129366004610dff565b61065e565b61014161013c366004610f59565b610908565b60405190151581526020016100b7565b6100d361015f366004611014565b6109aa565b61016c610a23565b6001546000036101e25760405162461bcd60e51b815260206004820152603660248201527f5468652043455820686173206e6f74207375626d697474656420616e792061646044820152756472657373206f776e6572736869702070726f6f667360501b60648201526084015b60405180910390fd5b6000835160016101f2919061105a565b67ffffffffffffffff81111561020a5761020a610ae6565b604051908082528060200260200182016040528015610233578160200160208202803683370190505b509050848160008151811061024a5761024a61106d565b60200260200101818152505060005b8451811015610345578481815181106102745761027461106d565b602002602001015160200151516000141580156102b0575084818151811061029e5761029e61106d565b60200260200101516000015151600014155b6102ec5760405162461bcd60e51b815260206004820152600d60248201526c125b9d985b1a5908185cdcd95d609a1b60448201526064016101d9565b8481815181106102fe576102fe61106d565b60200260200101516040015182826001610318919061105a565b815181106103285761032861106d565b60209081029190910101528061033d81611083565b915050610259565b506103508382610908565b61038f5760405162461bcd60e51b815260206004820152601060248201526f24b73b30b634b2102d2590383937b7b360811b60448201526064016101d9565b817f0473581c3cf437afc52207d88ce1541afbc7ce9fdb83b4d4d3b7214beed56ff5826000815181106103c4576103c461106d565b6020026020010151866040516103db92919061109c565b60405180910390a25050505050565b6103f2610a23565b6103fc6000610a7d565b565b6001818154811061040e57600080fd5b906000526020600020906004020160009150905080600001805461043190611133565b80601f016020809104026020016040519081016040528092919081815260200182805461045d90611133565b80156104aa5780601f1061047f576101008083540402835291602001916104aa565b820191906000526020600020905b81548152906001019060200180831161048d57829003601f168201915b5050505050908060010180546104bf90611133565b80601f01602080910402602001604051908101604052809291908181526020018280546104eb90611133565b80156105385780601f1061050d57610100808354040283529160200191610538565b820191906000526020600020905b81548152906001019060200180831161051b57829003601f168201915b50505050509080600201805461054d90611133565b80601f016020809104026020016040519081016040528092919081815260200182805461057990611133565b80156105c65780601f1061059b576101008083540402835291602001916105c6565b820191906000526020600020905b8154815290600101906020018083116105a957829003601f168201915b5050505050908060030180546105db90611133565b80601f016020809104026020016040519081016040528092919081815260200182805461060790611133565b80156106545780601f1061062957610100808354040283529160200191610654565b820191906000526020600020905b81548152906001019060200180831161063757829003601f168201915b5050505050905084565b610666610a23565b60005b81518110156108cd5760008282815181106106865761068661106d565b6020026020010151600001516040516020016106a2919061116d565b60408051601f1981840301815291815281516020928301206000818152600290935291205490915080156107185760405162461bcd60e51b815260206004820152601860248201527f4164647265737320616c7265616479207665726966696564000000000000000060448201526064016101d9565b61072383600161105a565b60008381526002602052604090205583516001908590859081106107495761074961106d565b6020908102919091018101518254600181018455600093845291909220825160049092020190819061077b90826111cf565b506020820151600182019061079090826111cf565b50604082015160028201906107a590826111cf565b50606082015160038201906107ba90826111cf565b5050508383815181106107cf576107cf61106d565b6020026020010151600001515160001415801561080b57508383815181106107f9576107f961106d565b60200260200101516020015151600014155b801561083657508383815181106108245761082461106d565b60200260200101516040015151600014155b8015610861575083838151811061084f5761084f61106d565b60200260200101516060015151600014155b6108b85760405162461bcd60e51b815260206004820152602260248201527f496e76616c69642070726f6f66206f662061646472657373206f776e65727368604482015261069760f41b60648201526084016101d9565b505080806108c590611083565b915050610669565b507f382315d4d56a6035e1899bffe77d9becefaf5f2650e4323b27854857a0454658816040516108fd919061128f565b60405180910390a150565b6000610912610a23565b604051630bd205a960e41b81526001600160a01b037f0000000000000000000000000000000000000000000000000000000000000000169063bd205a9090610960908590879060040161134b565b602060405180830381865afa15801561097d573d6000803e3d6000fd5b505050506040513d601f19601f820116820180604052508101906109a191906113a2565b90505b92915050565b6109b2610a23565b6001600160a01b038116610a175760405162461bcd60e51b815260206004820152602660248201527f4f776e61626c653a206e6577206f776e657220697320746865207a65726f206160448201526564647265737360d01b60648201526084016101d9565b610a2081610a7d565b50565b6000546001600160a01b031633146103fc5760405162461bcd60e51b815260206004820181905260248201527f4f776e61626c653a2063616c6c6572206973206e6f7420746865206f776e657260448201526064016101d9565b600080546001600160a01b038381166001600160a01b0319831681178455604051919092169283917f8be0079c531659141344cd1fd0a4f28419497f9722a3daafe3b4186f6b6457e09190a35050565b600060208284031215610adf57600080fd5b5035919050565b634e487b7160e01b600052604160045260246000fd5b6040516060810167ffffffffffffffff81118282101715610b1f57610b1f610ae6565b60405290565b6040516080810167ffffffffffffffff81118282101715610b1f57610b1f610ae6565b604051601f8201601f1916810167ffffffffffffffff81118282101715610b7157610b71610ae6565b604052919050565b600067ffffffffffffffff821115610b9357610b93610ae6565b5060051b60200190565b600082601f830112610bae57600080fd5b813567ffffffffffffffff811115610bc857610bc8610ae6565b610bdb601f8201601f1916602001610b48565b818152846020838601011115610bf057600080fd5b816020850160208301376000918101602001919091529392505050565b60008060008060808587031215610c2357600080fd5b84359350602085013567ffffffffffffffff80821115610c4257600080fd5b818701915087601f830112610c5657600080fd5b610c68610c638335610b79565b610b48565b82358082526020808301929160051b8501018a811115610c8757600080fd5b602085015b81811015610d29578481351115610ca257600080fd5b803586016060818e03601f19011215610cba57600080fd5b610cc2610afc565b602082013587811115610cd457600080fd5b610ce38f602083860101610b9d565b825250604082013587811115610cf857600080fd5b610d078f602083860101610b9d565b6020838101919091526060939093013560408301525085529384019301610c8c565b5090965050506040870135915080821115610d4357600080fd5b50610d5087828801610b9d565b949793965093946060013593505050565b6000815180845260005b81811015610d8757602081850181015186830182015201610d6b565b506000602082860101526020601f19601f83011685010191505092915050565b608081526000610dba6080830187610d61565b8281036020840152610dcc8187610d61565b90508281036040840152610de08186610d61565b90508281036060840152610df48185610d61565b979650505050505050565b60006020808385031215610e1257600080fd5b823567ffffffffffffffff80821115610e2a57600080fd5b818501915085601f830112610e3e57600080fd5b8135610e4c610c6382610b79565b81815260059190911b83018401908481019088831115610e6b57600080fd5b8585015b83811015610f4c57803585811115610e8657600080fd5b86016080818c03601f19011215610e9d5760008081fd5b610ea5610b25565b8882013587811115610eb75760008081fd5b610ec58d8b83860101610b9d565b82525060408083013588811115610edc5760008081fd5b610eea8e8c83870101610b9d565b8b8401525060608084013589811115610f035760008081fd5b610f118f8d83880101610b9d565b83850152506080840135915088821115610f2b5760008081fd5b610f398e8c84870101610b9d565b9083015250845250918601918601610e6f565b5098975050505050505050565b60008060408385031215610f6c57600080fd5b823567ffffffffffffffff80821115610f8457600080fd5b610f9086838701610b9d565b9350602091508185013581811115610fa757600080fd5b85019050601f81018613610fba57600080fd5b8035610fc8610c6382610b79565b81815260059190911b82018301908381019088831115610fe757600080fd5b928401925b8284101561100557833582529284019290840190610fec565b80955050505050509250929050565b60006020828403121561102657600080fd5b81356001600160a01b038116811461103d57600080fd5b9392505050565b634e487b7160e01b600052601160045260246000fd5b808201808211156109a4576109a4611044565b634e487b7160e01b600052603260045260246000fd5b60006001820161109557611095611044565b5060010190565b6000604080830185845260208281860152818651808452606093508387019150838160051b88010183890160005b8381101561112357898303605f19018552815180518885526110ee89860182610d61565b905087820151858203898701526111058282610d61565b928b0151958b019590955250948601949250908501906001016110ca565b50909a9950505050505050505050565b600181811c9082168061114757607f821691505b60208210810361116757634e487b7160e01b600052602260045260246000fd5b50919050565b6020815260006109a16020830184610d61565b601f8211156111ca57600081815260208120601f850160051c810160208610156111a75750805b601f850160051c820191505b818110156111c6578281556001016111b3565b5050505b505050565b815167ffffffffffffffff8111156111e9576111e9610ae6565b6111fd816111f78454611133565b84611180565b602080601f831160018114611232576000841561121a5750858301515b600019600386901b1c1916600185901b1785556111c6565b600085815260208120601f198616915b8281101561126157888601518255948401946001909101908401611242565b508582101561127f5787850151600019600388901b60f8161c191681555b5050505050600190811b01905550565b60006020808301818452808551808352604092508286019150828160051b87010184880160005b8381101561133d57603f198984030185528151608081518186526112dc82870182610d61565b915050888201518582038a8701526112f48282610d61565b915050878201518582038987015261130c8282610d61565b915050606080830151925085820381870152506113298183610d61565b9689019694505050908601906001016112b6565b509098975050505050505050565b604080825283519082018190526000906020906060840190828701845b8281101561138457815184529284019290840190600101611368565b505050838103828501526113988186610d61565b9695505050505050565b6000602082840312156113b457600080fd5b8151801515811461103d57600080fdfea2646970667358221220cc9dfa8f3cf3ae556baea19ab18adc851c627ec21cbf91de48a59ef0b51103d064736f6c63430008120033","linkReferences":{},"deployedLinkReferences":{}}