{"_format":"hh-sol-artifact-1","contractName":"Summa","sourceName":"src/Summa.sol","abi":[{"inputs":[{"internalType":"contract IVerifier","name":"_verifier","type":"address"}],"stateMutability":"nonpayable","type":"constructor"},{"anonymous":false,"inputs":[{"indexed":true,"internalType":"bytes32","name":"addressType","type":"bytes32"},{"indexed":false,"internalType":"address","name":"verifier","type":"address"}],"name":"AddressVerifierSet","type":"event"},{"anonymous":false,"inputs":[{"indexed":true,"internalType":"bytes32","name":"assetType","type":"bytes32"},{"indexed":false,"internalType":"address","name":"balanceRetriever","type":"address"}],"name":"BalanceRetrieverSet","type":"event"},{"anonymous":false,"inputs":[{"components":[{"internalType":"bytes32","name":"addressType","type":"bytes32"},{"internalType":"bytes","name":"cexAddress","type":"bytes"},{"internalType":"bytes","name":"ownershipProof","type":"bytes"}],"indexed":false,"internalType":"struct Summa.OwnedAddress[]","name":"addresses","type":"tuple[]"}],"name":"ExchangeAddressesSubmitted","type":"event"},{"anonymous":false,"inputs":[{"indexed":true,"internalType":"address","name":"previousOwner","type":"address"},{"indexed":true,"internalType":"address","name":"newOwner","type":"address"}],"name":"OwnershipTransferred","type":"event"},{"anonymous":false,"inputs":[{"indexed":true,"internalType":"uint256","name":"mstRoot","type":"uint256"}],"name":"ProofOfSolvencySubmitted","type":"event"},{"inputs":[{"internalType":"bytes32","name":"","type":"bytes32"}],"name":"balanceRetriever","outputs":[{"internalType":"contract IBalanceRetriever","name":"","type":"address"}],"stateMutability":"view","type":"function"},{"inputs":[{"internalType":"bytes32","name":"","type":"bytes32"}],"name":"cexAddressVerifier","outputs":[{"internalType":"contract IAddressOwnershipVerifier","name":"","type":"address"}],"stateMutability":"view","type":"function"},{"inputs":[{"internalType":"bytes32","name":"","type":"bytes32"}],"name":"confirmedAddress","outputs":[{"internalType":"bool","name":"","type":"bool"}],"stateMutability":"view","type":"function"},{"inputs":[],"name":"owner","outputs":[{"internalType":"address","name":"","type":"address"}],"stateMutability":"view","type":"function"},{"inputs":[],"name":"renounceOwnership","outputs":[],"stateMutability":"nonpayable","type":"function"},{"inputs":[{"internalType":"address","name":"_verifier","type":"address"}],"name":"setAddressOwnershipVerifier","outputs":[],"stateMutability":"nonpayable","type":"function"},{"inputs":[{"internalType":"address","name":"retriever","type":"address"}],"name":"setBalanceRetriever","outputs":[],"stateMutability":"nonpayable","type":"function"},{"inputs":[{"components":[{"internalType":"bytes32","name":"addressType","type":"bytes32"},{"internalType":"bytes","name":"cexAddress","type":"bytes"},{"internalType":"bytes","name":"ownershipProof","type":"bytes"}],"internalType":"struct Summa.OwnedAddress[]","name":"_cexAddresses","type":"tuple[]"}],"name":"submitProofOfAddressOwnership","outputs":[],"stateMutability":"nonpayable","type":"function"},{"inputs":[{"components":[{"internalType":"bytes32","name":"assetType","type":"bytes32"},{"internalType":"uint256","name":"amountToProve","type":"uint256"},{"internalType":"bytes[]","name":"addresses","type":"bytes[]"},{"internalType":"bytes","name":"balanceRetrieverArgs","type":"bytes"}],"internalType":"struct Summa.OwnedAsset[]","name":"assets","type":"tuple[]"},{"internalType":"uint256","name":"mstRoot","type":"uint256"},{"internalType":"bytes","name":"proof","type":"bytes"},{"internalType":"uint256","name":"timestamp","type":"uint256"}],"name":"submitProofOfSolvency","outputs":[],"stateMutability":"nonpayable","type":"function"},{"inputs":[{"internalType":"address","name":"newOwner","type":"address"}],"name":"transferOwnership","outputs":[],"stateMutability":"nonpayable","type":"function"},{"inputs":[{"internalType":"bytes","name":"proof","type":"bytes"},{"internalType":"uint256[]","name":"publicInputs","type":"uint256[]"}],"name":"verifyZkProof","outputs":[{"internalType":"bool","name":"","type":"bool"}],"stateMutability":"view","type":"function"}],"bytecode":"0x60a060405234801561001057600080fd5b5060405161170638038061170683398101604081905261002f91610099565b61003833610049565b6001600160a01b03166080526100c9565b600080546001600160a01b038381166001600160a01b0319831681178455604051919092169283917f8be0079c531659141344cd1fd0a4f28419497f9722a3daafe3b4186f6b6457e09190a35050565b6000602082840312156100ab57600080fd5b81516001600160a01b03811681146100c257600080fd5b9392505050565b6080516116226100e46000396000610cd601526116226000f3fe608060405234801561001057600080fd5b50600436106100a95760003560e01c80638da5cb5b116100715780638da5cb5b146101575780638f13e25214610168578063989f8de71461017b578063e2175807146101a4578063e691ad33146101b7578063f2fde38b146101ca57600080fd5b80631d6a4326146100ae57806333439d65146100f457806335b59431146101275780635cc04bad1461013c578063715018a61461014f575b600080fd5b6100d76100bc366004610e7a565b6003602052600090815260409020546001600160a01b031681565b6040516001600160a01b0390911681526020015b60405180910390f35b610117610102366004610e7a565b60016020526000908152604090205460ff1681565b60405190151581526020016100eb565b61013a610135366004610e93565b6101dd565b005b61013a61014a366004610e93565b610359565b61013a6104c5565b6000546001600160a01b03166100d7565b61013a610176366004610fe5565b6104d9565b6100d7610189366004610e7a565b6002602052600090815260409020546001600160a01b031681565b61013a6101b23660046110ff565b6107a8565b6101176101c536600461130d565b610cbc565b61013a6101d8366004610e93565b610d57565b6101e5610dd0565b6001600160a01b0381166102405760405162461bcd60e51b815260206004820152601860248201527f496e76616c69642061646472657373207665726966696572000000000000000060448201526064015b60405180910390fd5b60008190506000816001600160a01b031663f9f207ef6040518163ffffffff1660e01b8152600401602060405180830381865afa158015610285573d6000803e3d6000fd5b505050506040513d601f19601f820116820180604052508101906102a991906113c7565b9050806102ef5760405162461bcd60e51b8152602060048201526014602482015273496e76616c69642061646472657373207479706560601b6044820152606401610237565b60008181526003602090815260409182902080546001600160a01b0319166001600160a01b03868116919091179091559151918516825282917f5aa7d41ef19bf812183efb0c4caf427f7a24c0b7065881737f4b8765fa8fd50b91015b60405180910390a2505050565b610361610dd0565b6001600160a01b0381166103b75760405162461bcd60e51b815260206004820152601960248201527f496e76616c69642062616c616e636520726574726965766572000000000000006044820152606401610237565b60008190506000816001600160a01b031663896317b86040518163ffffffff1660e01b8152600401602060405180830381865afa1580156103fc573d6000803e3d6000fd5b505050506040513d601f19601f8201168201806040525081019061042091906113c7565b9050806104645760405162461bcd60e51b8152602060048201526012602482015271496e76616c6964206173736574207479706560701b6044820152606401610237565b60008181526002602090815260409182902080546001600160a01b0319166001600160a01b03868116919091179091559151918516825282917fedff21464e461253ec0b1c3d54a768bab94189d09435e2e3f39f8750b0a1574f910161034c565b6104cd610dd0565b6104d76000610e2a565b565b60005b815181101561076d5760008282815181106104f9576104f96113e0565b6020908102919091018101518101518051908201206000818152600190925260409091205490915060ff16156105715760405162461bcd60e51b815260206004820152601860248201527f4164647265737320616c726561647920766572696669656400000000000000006044820152606401610237565b60008181526001602081905260408220805460ff19169091179055835160039082908690869081106105a5576105a56113e0565b602090810291909101810151518252810191909152604001600020546001600160a01b0316036106315760405162461bcd60e51b815260206004820152603160248201527f41646472657373207665726966696572206e6f742073657420666f7220746869604482015270732074797065206f66206164647265737360781b6064820152608401610237565b60036000848481518110610647576106476113e0565b602002602001015160000151815260200190815260200160002060009054906101000a90046001600160a01b03166001600160a01b03166329acc2d5848481518110610695576106956113e0565b6020026020010151602001518585815181106106b3576106b36113e0565b6020026020010151604001516040518363ffffffff1660e01b81526004016106dc92919061143c565b602060405180830381865afa1580156106f9573d6000803e3d6000fd5b505050506040513d601f19601f8201168201806040525081019061071d919061146a565b61075a5760405162461bcd60e51b815260206004820152600e60248201526d24b73b30b634b21039b4b3b732b960911b6044820152606401610237565b5080610765816114a2565b9150506104dc565b507fd822ca44e30c46963cf5f7fd90caeea843d64be7b31fe761b53078abf982f21b8160405161079d91906114bb565b60405180910390a150565b600084516001600160401b038111156107c3576107c3610ec3565b6040519080825280602002602001820160405280156107ec578160200160208202803683370190505b50905060005b8551811015610b665760005b868281518110610810576108106113e0565b60200260200101516040015151811015610ab5576001600088848151811061083a5761083a6113e0565b6020026020010151604001518381518110610857576108576113e0565b60209081029190910181015180519082012082528101919091526040016000205460ff166108c75760405162461bcd60e51b815260206004820152601e60248201527f41646472657373206f776e657273686970206e6f7420766572696669656400006044820152606401610237565b60006001600160a01b0316600260008985815181106108e8576108e86113e0565b602090810291909101810151518252810191909152604001600020546001600160a01b0316036109735760405162461bcd60e51b815260206004820152603060248201527f42616c616e636520726574726965766572206e6f742073657420666f7220746860448201526f1a5cc81d1e5c19481bd988185cdcd95d60821b6064820152608401610237565b60026000888481518110610989576109896113e0565b602002602001015160000151815260200190815260200160002060009054906101000a90046001600160a01b03166001600160a01b031663260c4cc68884815181106109d7576109d76113e0565b60200260200101516040015183815181106109f4576109f46113e0565b6020026020010151898581518110610a0e57610a0e6113e0565b602002602001015160600151876040518463ffffffff1660e01b8152600401610a399392919061154c565b602060405180830381865afa158015610a56573d6000803e3d6000fd5b505050506040513d601f19601f82011682018060405250810190610a7a91906113c7565b838381518110610a8c57610a8c6113e0565b60200260200101818151610aa09190611582565b90525080610aad816114a2565b9150506107fe565b50818181518110610ac857610ac86113e0565b6020026020010151868281518110610ae257610ae26113e0565b6020026020010151602001511115610b545760405162461bcd60e51b815260206004820152602f60248201527f41637475616c2062616c616e6365206973206c657373207468616e207468652060448201526e616d6f756e7420746f2070726f766560881b6064820152608401610237565b80610b5e816114a2565b9150506107f2565b50600085516001610b779190611582565b6001600160401b03811115610b8e57610b8e610ec3565b604051908082528060200260200182016040528015610bb7578160200160208202803683370190505b5090508481600081518110610bce57610bce6113e0565b60200260200101818152505060005b8651811015610c3f57868181518110610bf857610bf86113e0565b60200260200101516020015182826001610c129190611582565b81518110610c2257610c226113e0565b602090810291909101015280610c37816114a2565b915050610bdd565b50610c4a8482610cbc565b610c895760405162461bcd60e51b815260206004820152601060248201526f24b73b30b634b2103d3590383937b7b360811b6044820152606401610237565b60405185907f08367c9e7de6aba412334c7e8a02be4c57a63f268945497c9d693772c7f3969390600090a2505050505050565b604051630bd205a960e41b81526000906001600160a01b037f0000000000000000000000000000000000000000000000000000000000000000169063bd205a9090610d0d9085908790600401611595565b602060405180830381865afa158015610d2a573d6000803e3d6000fd5b505050506040513d601f19601f82011682018060405250810190610d4e919061146a565b90505b92915050565b610d5f610dd0565b6001600160a01b038116610dc45760405162461bcd60e51b815260206004820152602660248201527f4f776e61626c653a206e6577206f776e657220697320746865207a65726f206160448201526564647265737360d01b6064820152608401610237565b610dcd81610e2a565b50565b6000546001600160a01b031633146104d75760405162461bcd60e51b815260206004820181905260248201527f4f776e61626c653a2063616c6c6572206973206e6f7420746865206f776e65726044820152606401610237565b600080546001600160a01b038381166001600160a01b0319831681178455604051919092169283917f8be0079c531659141344cd1fd0a4f28419497f9722a3daafe3b4186f6b6457e09190a35050565b600060208284031215610e8c57600080fd5b5035919050565b600060208284031215610ea557600080fd5b81356001600160a01b0381168114610ebc57600080fd5b9392505050565b634e487b7160e01b600052604160045260246000fd5b604051606081016001600160401b0381118282101715610efb57610efb610ec3565b60405290565b604051608081016001600160401b0381118282101715610efb57610efb610ec3565b604051601f8201601f191681016001600160401b0381118282101715610f4b57610f4b610ec3565b604052919050565b60006001600160401b03821115610f6c57610f6c610ec3565b5060051b60200190565b600082601f830112610f8757600080fd5b81356001600160401b03811115610fa057610fa0610ec3565b610fb3601f8201601f1916602001610f23565b818152846020838601011115610fc857600080fd5b816020850160208301376000918101602001919091529392505050565b60006020808385031215610ff857600080fd5b82356001600160401b038082111561100f57600080fd5b818501915085601f83011261102357600080fd5b813561103661103182610f53565b610f23565b81815260059190911b8301840190848101908883111561105557600080fd5b8585015b838110156110f2578035858111156110715760008081fd5b86016060818c03601f19018113156110895760008081fd5b611091610ed9565b898301358152604080840135898111156110ab5760008081fd5b6110b98f8d83880101610f76565b838d0152509183013591888311156110d15760008081fd5b6110df8e8c85870101610f76565b9082015285525050918601918601611059565b5098975050505050505050565b6000806000806080858703121561111557600080fd5b6001600160401b038535111561112a57600080fd5b85601f86358701011261113c57600080fd5b61114c6110318635870135610f53565b8535860180358083526020808401939260059290921b9091010188101561117257600080fd5b602087358801015b87358801803560051b016020018110156112ca576001600160401b03813511156111a357600080fd5b873588018135016080818b03601f190112156111be57600080fd5b6111c6610f01565b60208201358152604082013560208201526001600160401b03606083013511156111ef57600080fd5b606082013582018b603f82011261120557600080fd5b6112156110316020830135610f53565b602082810135808352908201919060051b83016040018e101561123757600080fd5b604083015b6040602085013560051b850101811015611283576001600160401b038135111561126557600080fd5b6112758f60408335870101610f76565b83526020928301920161123c565b50604084015250506001600160401b03608083013511156112a357600080fd5b6112b68b60206080850135850101610f76565b60608201528452506020928301920161117a565b50945050602085013592506001600160401b03604086013511156112ed57600080fd5b6112fd8660408701358701610f76565b9396929550929360600135925050565b6000806040838503121561132057600080fd5b82356001600160401b038082111561133757600080fd5b61134386838701610f76565b935060209150818501358181111561135a57600080fd5b85019050601f8101861361136d57600080fd5b803561137b61103182610f53565b81815260059190911b8201830190838101908883111561139a57600080fd5b928401925b828410156113b85783358252928401929084019061139f565b80955050505050509250929050565b6000602082840312156113d957600080fd5b5051919050565b634e487b7160e01b600052603260045260246000fd5b6000815180845260005b8181101561141c57602081850181015186830182015201611400565b506000602082860101526020601f19601f83011685010191505092915050565b60408152600061144f60408301856113f6565b828103602084015261146181856113f6565b95945050505050565b60006020828403121561147c57600080fd5b81518015158114610ebc57600080fd5b634e487b7160e01b600052601160045260246000fd5b6000600182016114b4576114b461148c565b5060010190565b60006020808301818452808551808352604092508286019150828160051b87010184880160005b8381101561153e57603f19898403018552815160608151855288820151818a870152611510828701826113f6565b9150508782015191508481038886015261152a81836113f6565b9689019694505050908601906001016114e2565b509098975050505050505050565b60608152600061155f60608301866113f6565b828103602084015261157181866113f6565b915050826040830152949350505050565b80820180821115610d5157610d5161148c565b604080825283519082018190526000906020906060840190828701845b828110156115ce578151845292840192908401906001016115b2565b505050838103828501526115e281866113f6565b969550505050505056fea2646970667358221220ab7b251b0ff87ba445ae36d37ae106f0f2a30a1fea392efb0274ba2bfda4650164736f6c63430008120033","linkReferences":{},"deployedLinkReferences":{}}