{"_format":"hh-sol-artifact-1","contractName":"Summa","sourceName":"src/Summa.sol","abi":[{"inputs":[{"internalType":"contract IVerifier","name":"_inclusionVerifier","type":"address"}],"stateMutability":"nonpayable","type":"constructor"},{"anonymous":false,"inputs":[{"components":[{"internalType":"string","name":"cexAddress","type":"string"},{"internalType":"string","name":"chain","type":"string"},{"internalType":"bytes","name":"signature","type":"bytes"},{"internalType":"bytes","name":"message","type":"bytes"}],"indexed":false,"internalType":"struct Summa.AddressOwnershipProof[]","name":"addressOwnershipProofs","type":"tuple[]"}],"name":"AddressOwnershipProofSubmitted","type":"event"},{"anonymous":false,"inputs":[{"indexed":true,"internalType":"uint256","name":"timestamp","type":"uint256"},{"indexed":false,"internalType":"uint256","name":"mstRoot","type":"uint256"},{"indexed":false,"internalType":"uint256[]","name":"rootBalances","type":"uint256[]"},{"components":[{"internalType":"string","name":"assetName","type":"string"},{"internalType":"string","name":"chain","type":"string"}],"indexed":false,"internalType":"struct Summa.Asset[]","name":"assets","type":"tuple[]"}],"name":"LiabilitiesCommitmentSubmitted","type":"event"},{"anonymous":false,"inputs":[{"indexed":true,"internalType":"address","name":"previousOwner","type":"address"},{"indexed":true,"internalType":"address","name":"newOwner","type":"address"}],"name":"OwnershipTransferred","type":"event"},{"inputs":[{"internalType":"uint256","name":"","type":"uint256"}],"name":"addressOwnershipProofs","outputs":[{"internalType":"string","name":"cexAddress","type":"string"},{"internalType":"string","name":"chain","type":"string"},{"internalType":"bytes","name":"signature","type":"bytes"},{"internalType":"bytes","name":"message","type":"bytes"}],"stateMutability":"view","type":"function"},{"inputs":[{"internalType":"uint256","name":"","type":"uint256"}],"name":"commitments","outputs":[{"internalType":"uint256","name":"mstRoot","type":"uint256"}],"stateMutability":"view","type":"function"},{"inputs":[{"internalType":"bytes32","name":"addressHash","type":"bytes32"}],"name":"getAddressOwnershipProof","outputs":[{"components":[{"internalType":"string","name":"cexAddress","type":"string"},{"internalType":"string","name":"chain","type":"string"},{"internalType":"bytes","name":"signature","type":"bytes"},{"internalType":"bytes","name":"message","type":"bytes"}],"internalType":"struct Summa.AddressOwnershipProof","name":"","type":"tuple"}],"stateMutability":"view","type":"function"},{"inputs":[],"name":"owner","outputs":[{"internalType":"address","name":"","type":"address"}],"stateMutability":"view","type":"function"},{"inputs":[],"name":"renounceOwnership","outputs":[],"stateMutability":"nonpayable","type":"function"},{"inputs":[{"internalType":"uint256","name":"mstRoot","type":"uint256"},{"internalType":"uint256[]","name":"rootBalances","type":"uint256[]"},{"components":[{"internalType":"string","name":"assetName","type":"string"},{"internalType":"string","name":"chain","type":"string"}],"internalType":"struct Summa.Asset[]","name":"assets","type":"tuple[]"},{"internalType":"uint256","name":"timestamp","type":"uint256"}],"name":"submitCommitment","outputs":[],"stateMutability":"nonpayable","type":"function"},{"inputs":[{"components":[{"internalType":"string","name":"cexAddress","type":"string"},{"internalType":"string","name":"chain","type":"string"},{"internalType":"bytes","name":"signature","type":"bytes"},{"internalType":"bytes","name":"message","type":"bytes"}],"internalType":"struct Summa.AddressOwnershipProof[]","name":"_addressOwnershipProofs","type":"tuple[]"}],"name":"submitProofOfAddressOwnership","outputs":[],"stateMutability":"nonpayable","type":"function"},{"inputs":[{"internalType":"address","name":"newOwner","type":"address"}],"name":"transferOwnership","outputs":[],"stateMutability":"nonpayable","type":"function"},{"inputs":[{"internalType":"bytes","name":"proof","type":"bytes"},{"internalType":"uint256[]","name":"publicInputs","type":"uint256[]"},{"internalType":"uint256","name":"timestamp","type":"uint256"}],"name":"verifyInclusionProof","outputs":[{"internalType":"bool","name":"","type":"bool"}],"stateMutability":"view","type":"function"}],"bytecode":"0x60a060405234801561001057600080fd5b5060405162001bd838038062001bd88339810160408190526100319161009b565b61003a3361004b565b6001600160a01b03166080526100cb565b600080546001600160a01b038381166001600160a01b0319831681178455604051919092169283917f8be0079c531659141344cd1fd0a4f28419497f9722a3daafe3b4186f6b6457e09190a35050565b6000602082840312156100ad57600080fd5b81516001600160a01b03811681146100c457600080fd5b9392505050565b608051611af1620000e76000396000610b050152611af16000f3fe608060405234801561001057600080fd5b50600436106100935760003560e01c8063a3c4bcf811610066578063a3c4bcf814610114578063c7ddca0e14610137578063c8e581471461014a578063da64a7501461016d578063f2fde38b1461018057600080fd5b806319b339681461009857806349ce8997146100c1578063715018a6146100ef5780638da5cb5b146100f9575b600080fd5b6100ab6100a6366004611168565b610193565b6040516100b8919061123c565b60405180910390f35b6100e16100cf366004611168565b60036020526000908152604090205481565b6040519081526020016100b8565b6100f76104aa565b005b6000546040516001600160a01b0390911681526020016100b8565b610127610122366004611168565b6104be565b6040516100b89493929190611256565b6100f76101453660046113d5565b61071e565b61015d61015836600461159a565b6109bf565b60405190151581526020016100b8565b6100f761017b366004611607565b610b85565b6100f761018e36600461174e565b610f3c565b6101be6040518060800160405280606081526020016060815260200160608152602001606081525090565b6000828152600260205260409020546102155760405162461bcd60e51b81526020600482015260146024820152731059191c995cdcc81b9bdd081d995c9a599a595960621b60448201526064015b60405180910390fd5b60008281526002602052604090205460019061023290829061178d565b81548110610242576102426117a6565b906000526020600020906004020160405180608001604052908160008201805461026b906117bc565b80601f0160208091040260200160405190810160405280929190818152602001828054610297906117bc565b80156102e45780601f106102b9576101008083540402835291602001916102e4565b820191906000526020600020905b8154815290600101906020018083116102c757829003601f168201915b505050505081526020016001820180546102fd906117bc565b80601f0160208091040260200160405190810160405280929190818152602001828054610329906117bc565b80156103765780601f1061034b57610100808354040283529160200191610376565b820191906000526020600020905b81548152906001019060200180831161035957829003601f168201915b5050505050815260200160028201805461038f906117bc565b80601f01602080910402602001604051908101604052809291908181526020018280546103bb906117bc565b80156104085780601f106103dd57610100808354040283529160200191610408565b820191906000526020600020905b8154815290600101906020018083116103eb57829003601f168201915b50505050508152602001600382018054610421906117bc565b80601f016020809104026020016040519081016040528092919081815260200182805461044d906117bc565b801561049a5780601f1061046f5761010080835404028352916020019161049a565b820191906000526020600020905b81548152906001019060200180831161047d57829003601f168201915b5050505050815250509050919050565b6104b2610fb5565b6104bc600061100f565b565b600181815481106104ce57600080fd5b90600052602060002090600402016000915090508060000180546104f1906117bc565b80601f016020809104026020016040519081016040528092919081815260200182805461051d906117bc565b801561056a5780601f1061053f5761010080835404028352916020019161056a565b820191906000526020600020905b81548152906001019060200180831161054d57829003601f168201915b50505050509080600101805461057f906117bc565b80601f01602080910402602001604051908101604052809291908181526020018280546105ab906117bc565b80156105f85780601f106105cd576101008083540402835291602001916105f8565b820191906000526020600020905b8154815290600101906020018083116105db57829003601f168201915b50505050509080600201805461060d906117bc565b80601f0160208091040260200160405190810160405280929190818152602001828054610639906117bc565b80156106865780601f1061065b57610100808354040283529160200191610686565b820191906000526020600020905b81548152906001019060200180831161066957829003601f168201915b50505050509080600301805461069b906117bc565b80601f01602080910402602001604051908101604052809291908181526020018280546106c7906117bc565b80156107145780601f106106e957610100808354040283529160200191610714565b820191906000526020600020905b8154815290600101906020018083116106f757829003601f168201915b5050505050905084565b610726610fb5565b60005b8151811015610984576000828281518110610746576107466117a6565b60200260200101516000015160405160200161076291906117f6565b60408051601f1981840301815291815281516020928301206000818152600290935291205490915080156107d85760405162461bcd60e51b815260206004820152601860248201527f4164647265737320616c72656164792076657269666965640000000000000000604482015260640161020c565b60018484815181106107ec576107ec6117a6565b6020908102919091018101518254600181018455600093845291909220825160049092020190819061081e9082611861565b50602082015160018201906108339082611861565b50604082015160028201906108489082611861565b506060820151600382019061085d9082611861565b5050600154600084815260026020526040902055508351849084908110610886576108866117a6565b602002602001015160000151516000141580156108c257508383815181106108b0576108b06117a6565b60200260200101516020015151600014155b80156108ed57508383815181106108db576108db6117a6565b60200260200101516040015151600014155b80156109185750838381518110610906576109066117a6565b60200260200101516060015151600014155b61096f5760405162461bcd60e51b815260206004820152602260248201527f496e76616c69642070726f6f66206f662061646472657373206f776e65727368604482015261069760f41b606482015260840161020c565b5050808061097c90611921565b915050610729565b507f382315d4d56a6035e1899bffe77d9becefaf5f2650e4323b27854857a0454658816040516109b4919061193a565b60405180910390a150565b6000826001815181106109d4576109d46117a6565b6020026020010151600360008481526020019081526020016000206000015414610a335760405162461bcd60e51b815260206004820152601060248201526f125b9d985b1a59081354d5081c9bdbdd60821b604482015260640161020c565b60025b8351811015610aed57838181518110610a5157610a516117a6565b602002602001015160036000858152602001908152602001600020600101600283610a7c919061178d565b81548110610a8c57610a8c6117a6565b906000526020600020015414610adb5760405162461bcd60e51b8152602060048201526014602482015273496e76616c696420726f6f742062616c616e636560601b604482015260640161020c565b80610ae581611921565b915050610a36565b50604051630bd205a960e41b81526001600160a01b037f0000000000000000000000000000000000000000000000000000000000000000169063bd205a9090610b3c90869088906004016119d7565b602060405180830381865afa158015610b59573d6000803e3d6000fd5b505050506040513d601f19601f82011682018060405250810190610b7d91906119fc565b949350505050565b610b8d610fb5565b83600003610bd05760405162461bcd60e51b815260206004820152601060248201526f125b9d985b1a59081354d5081c9bdbdd60821b604482015260640161020c565b8151835114610c335760405162461bcd60e51b815260206004820152602960248201527f526f6f742061737365742073756d7320616e64206173736574206e756d626572604482015268040dad2e6dac2e8c6d60bb1b606482015260840161020c565b6000825167ffffffffffffffff811115610c4f57610c4f6112ae565b604051908082528060200260200182016040528015610c8257816020015b6060815260200190600190039081610c6d5790505b5090506000835167ffffffffffffffff811115610ca157610ca16112ae565b604051908082528060200260200182016040528015610cd457816020015b6060815260200190600190039081610cbf5790505b50905060005b8451811015610e7157848181518110610cf557610cf56117a6565b60200260200101516020015151600014158015610d315750848181518110610d1f57610d1f6117a6565b60200260200101516000015151600014155b610d6d5760405162461bcd60e51b815260206004820152600d60248201526c125b9d985b1a5908185cdcd95d609a1b604482015260640161020c565b858181518110610d7f57610d7f6117a6565b6020026020010151600003610de85760405162461bcd60e51b815260206004820152602960248201527f416c6c20726f6f742073756d732073686f756c642062652067726561746572206044820152687468616e207a65726f60b81b606482015260840161020c565b848181518110610dfa57610dfa6117a6565b602002602001015160000151838281518110610e1857610e186117a6565b6020026020010181905250848181518110610e3557610e356117a6565b602002602001015160200151828281518110610e5357610e536117a6565b60200260200101819052508080610e6990611921565b915050610cda565b5060408051608081018252878152602080820188815282840186905260608301859052600087815260038352939093208251815592518051929392610ebc926001850192019061105f565b5060408201518051610ed89160028401916020909101906110aa565b5060608201518051610ef49160038401916020909101906110aa565b50905050827f88bfc7389cb831ea0208ff106da6f5c9f88036ba084f1eb008d2788d3d45998d878787604051610f2c93929190611a1e565b60405180910390a2505050505050565b610f44610fb5565b6001600160a01b038116610fa95760405162461bcd60e51b815260206004820152602660248201527f4f776e61626c653a206e6577206f776e657220697320746865207a65726f206160448201526564647265737360d01b606482015260840161020c565b610fb28161100f565b50565b6000546001600160a01b031633146104bc5760405162461bcd60e51b815260206004820181905260248201527f4f776e61626c653a2063616c6c6572206973206e6f7420746865206f776e6572604482015260640161020c565b600080546001600160a01b038381166001600160a01b0319831681178455604051919092169283917f8be0079c531659141344cd1fd0a4f28419497f9722a3daafe3b4186f6b6457e09190a35050565b82805482825590600052602060002090810192821561109a579160200282015b8281111561109a57825182559160200191906001019061107f565b506110a69291506110fc565b5090565b8280548282559060005260206000209081019282156110f0579160200282015b828111156110f057825182906110e09082611861565b50916020019190600101906110ca565b506110a6929150611111565b5b808211156110a657600081556001016110fd565b808211156110a6576000611125828261112e565b50600101611111565b50805461113a906117bc565b6000825580601f1061114a575050565b601f016020900490600052602060002090810190610fb291906110fc565b60006020828403121561117a57600080fd5b5035919050565b60005b8381101561119c578181015183820152602001611184565b50506000910152565b600081518084526111bd816020860160208601611181565b601f01601f19169290920160200192915050565b60008151608084526111e660808501826111a5565b9050602083015184820360208601526111ff82826111a5565b9150506040830151848203604086015261121982826111a5565b9150506060830151848203606086015261123382826111a5565b95945050505050565b60208152600061124f60208301846111d1565b9392505050565b60808152600061126960808301876111a5565b828103602084015261127b81876111a5565b9050828103604084015261128f81866111a5565b905082810360608401526112a381856111a5565b979650505050505050565b634e487b7160e01b600052604160045260246000fd5b6040516080810167ffffffffffffffff811182821017156112e7576112e76112ae565b60405290565b6040805190810167ffffffffffffffff811182821017156112e7576112e76112ae565b604051601f8201601f1916810167ffffffffffffffff81118282101715611339576113396112ae565b604052919050565b600067ffffffffffffffff82111561135b5761135b6112ae565b5060051b60200190565b600082601f83011261137657600080fd5b813567ffffffffffffffff811115611390576113906112ae565b6113a3601f8201601f1916602001611310565b8181528460208386010111156113b857600080fd5b816020850160208301376000918101602001919091529392505050565b600060208083850312156113e857600080fd5b823567ffffffffffffffff8082111561140057600080fd5b818501915085601f83011261141457600080fd5b813561142761142282611341565b611310565b81815260059190911b8301840190848101908883111561144657600080fd5b8585015b838110156115275780358581111561146157600080fd5b86016080818c03601f190112156114785760008081fd5b6114806112c4565b88820135878111156114925760008081fd5b6114a08d8b83860101611365565b825250604080830135888111156114b75760008081fd5b6114c58e8c83870101611365565b8b84015250606080840135898111156114de5760008081fd5b6114ec8f8d83880101611365565b838501525060808401359150888211156115065760008081fd5b6115148e8c84870101611365565b908301525084525091860191860161144a565b5098975050505050505050565b600082601f83011261154557600080fd5b8135602061155561142283611341565b82815260059290921b8401810191818101908684111561157457600080fd5b8286015b8481101561158f5780358352918301918301611578565b509695505050505050565b6000806000606084860312156115af57600080fd5b833567ffffffffffffffff808211156115c757600080fd5b6115d387838801611365565b945060208601359150808211156115e957600080fd5b506115f686828701611534565b925050604084013590509250925092565b6000806000806080858703121561161d57600080fd5b84359350602085013567ffffffffffffffff8082111561163c57600080fd5b61164888838901611534565b9450604087013591508082111561165e57600080fd5b818701915087601f83011261167257600080fd5b61167f6114228335611341565b82358082526020808301929160051b8501018a81111561169e57600080fd5b602085015b8181101561173a5784813511156116b957600080fd5b803586016040818e03601f190112156116d157600080fd5b6116d96112ed565b6020820135878111156116eb57600080fd5b6116fa8f602083860101611365565b82525060408201358781111561170f57600080fd5b61171e8f602083860101611365565b60208301525080865250506020840193506020810190506116a3565b50979a969950976060013596505050505050565b60006020828403121561176057600080fd5b81356001600160a01b038116811461124f57600080fd5b634e487b7160e01b600052601160045260246000fd5b818103818111156117a0576117a0611777565b92915050565b634e487b7160e01b600052603260045260246000fd5b600181811c908216806117d057607f821691505b6020821081036117f057634e487b7160e01b600052602260045260246000fd5b50919050565b60008251611808818460208701611181565b9190910192915050565b601f82111561185c57600081815260208120601f850160051c810160208610156118395750805b601f850160051c820191505b8181101561185857828155600101611845565b5050505b505050565b815167ffffffffffffffff81111561187b5761187b6112ae565b61188f8161188984546117bc565b84611812565b602080601f8311600181146118c457600084156118ac5750858301515b600019600386901b1c1916600185901b178555611858565b600085815260208120601f198616915b828110156118f3578886015182559484019460019091019084016118d4565b50858210156119115787850151600019600388901b60f8161c191681555b5050505050600190811b01905550565b60006001820161193357611933611777565b5060010190565b6000602080830181845280855180835260408601915060408160051b870101925083870160005b8281101561198f57603f1988860301845261197d8583516111d1565b94509285019290850190600101611961565b5092979650505050505050565b600081518084526020808501945080840160005b838110156119cc578151875295820195908201906001016119b0565b509495945050505050565b6040815260006119ea604083018561199c565b828103602084015261123381856111a5565b600060208284031215611a0e57600080fd5b8151801515811461124f57600080fd5b83815260006020606081840152611a38606084018661199c565b6040848203818601528186518084528484019150848160051b85010185890160005b83811015611aaa57868303601f1901855281518051878552611a7e888601826111a5565b918a0151858303868c0152919050611a9681836111a5565b968a01969450505090870190600101611a5a565b50909b9a505050505050505050505056fea2646970667358221220ace4991420dfc619c58ac327ddf743593bc26ac1f173055daebb44fbb45ab71864736f6c63430008120033","linkReferences":{},"deployedLinkReferences":{}}