{"_format":"hh-sol-artifact-1","contractName":"Summa","sourceName":"src/Summa.sol","abi":[{"inputs":[{"internalType":"contract IVerifier","name":"_inclusionVerifier","type":"address"}],"stateMutability":"nonpayable","type":"constructor"},{"anonymous":false,"inputs":[{"components":[{"internalType":"string","name":"cexAddress","type":"string"},{"internalType":"string","name":"chain","type":"string"},{"internalType":"bytes","name":"signature","type":"bytes"},{"internalType":"bytes","name":"message","type":"bytes"}],"indexed":false,"internalType":"struct Summa.AddressOwnershipProof[]","name":"addressOwnershipProofs","type":"tuple[]"}],"name":"AddressOwnershipProofSubmitted","type":"event"},{"anonymous":false,"inputs":[{"indexed":true,"internalType":"uint256","name":"timestamp","type":"uint256"},{"indexed":false,"internalType":"uint256","name":"mstRoot","type":"uint256"},{"indexed":false,"internalType":"uint256[]","name":"rootBalances","type":"uint256[]"},{"components":[{"internalType":"string","name":"name","type":"string"},{"internalType":"string","name":"chain","type":"string"}],"indexed":false,"internalType":"struct Summa.Cryptocurrency[]","name":"cryptocurrencies","type":"tuple[]"}],"name":"LiabilitiesCommitmentSubmitted","type":"event"},{"anonymous":false,"inputs":[{"indexed":true,"internalType":"address","name":"previousOwner","type":"address"},{"indexed":true,"internalType":"address","name":"newOwner","type":"address"}],"name":"OwnershipTransferred","type":"event"},{"inputs":[{"internalType":"uint256","name":"","type":"uint256"}],"name":"addressOwnershipProofs","outputs":[{"internalType":"string","name":"cexAddress","type":"string"},{"internalType":"string","name":"chain","type":"string"},{"internalType":"bytes","name":"signature","type":"bytes"},{"internalType":"bytes","name":"message","type":"bytes"}],"stateMutability":"view","type":"function"},{"inputs":[{"internalType":"uint256","name":"","type":"uint256"}],"name":"commitments","outputs":[{"internalType":"uint256","name":"mstRoot","type":"uint256"}],"stateMutability":"view","type":"function"},{"inputs":[{"internalType":"bytes32","name":"addressHash","type":"bytes32"}],"name":"getAddressOwnershipProof","outputs":[{"components":[{"internalType":"string","name":"cexAddress","type":"string"},{"internalType":"string","name":"chain","type":"string"},{"internalType":"bytes","name":"signature","type":"bytes"},{"internalType":"bytes","name":"message","type":"bytes"}],"internalType":"struct Summa.AddressOwnershipProof","name":"","type":"tuple"}],"stateMutability":"view","type":"function"},{"inputs":[],"name":"owner","outputs":[{"internalType":"address","name":"","type":"address"}],"stateMutability":"view","type":"function"},{"inputs":[],"name":"renounceOwnership","outputs":[],"stateMutability":"nonpayable","type":"function"},{"inputs":[{"internalType":"uint256","name":"mstRoot","type":"uint256"},{"internalType":"uint256[]","name":"rootBalances","type":"uint256[]"},{"components":[{"internalType":"string","name":"name","type":"string"},{"internalType":"string","name":"chain","type":"string"}],"internalType":"struct Summa.Cryptocurrency[]","name":"cryptocurrencies","type":"tuple[]"},{"internalType":"uint256","name":"timestamp","type":"uint256"}],"name":"submitCommitment","outputs":[],"stateMutability":"nonpayable","type":"function"},{"inputs":[{"components":[{"internalType":"string","name":"cexAddress","type":"string"},{"internalType":"string","name":"chain","type":"string"},{"internalType":"bytes","name":"signature","type":"bytes"},{"internalType":"bytes","name":"message","type":"bytes"}],"internalType":"struct Summa.AddressOwnershipProof[]","name":"_addressOwnershipProofs","type":"tuple[]"}],"name":"submitProofOfAddressOwnership","outputs":[],"stateMutability":"nonpayable","type":"function"},{"inputs":[{"internalType":"address","name":"newOwner","type":"address"}],"name":"transferOwnership","outputs":[],"stateMutability":"nonpayable","type":"function"},{"inputs":[{"internalType":"bytes","name":"proof","type":"bytes"},{"internalType":"uint256[]","name":"publicInputs","type":"uint256[]"},{"internalType":"uint256","name":"timestamp","type":"uint256"}],"name":"verifyInclusionProof","outputs":[{"internalType":"bool","name":"","type":"bool"}],"stateMutability":"view","type":"function"}],"bytecode":"0x60a060405234801561001057600080fd5b5060405162001bed38038062001bed8339810160408190526100319161009b565b61003a3361004b565b6001600160a01b03166080526100cb565b600080546001600160a01b038381166001600160a01b0319831681178455604051919092169283917f8be0079c531659141344cd1fd0a4f28419497f9722a3daafe3b4186f6b6457e09190a35050565b6000602082840312156100ad57600080fd5b81516001600160a01b03811681146100c457600080fd5b9392505050565b608051611b06620000e76000396000610b050152611b066000f3fe608060405234801561001057600080fd5b50600436106100935760003560e01c8063a3c4bcf811610066578063a3c4bcf814610114578063c7ddca0e14610137578063c8e581471461014a578063da64a7501461016d578063f2fde38b1461018057600080fd5b806319b339681461009857806349ce8997146100c1578063715018a6146100ef5780638da5cb5b146100f9575b600080fd5b6100ab6100a636600461117d565b610193565b6040516100b89190611251565b60405180910390f35b6100e16100cf36600461117d565b60036020526000908152604090205481565b6040519081526020016100b8565b6100f76104aa565b005b6000546040516001600160a01b0390911681526020016100b8565b61012761012236600461117d565b6104be565b6040516100b8949392919061126b565b6100f76101453660046113ea565b61071e565b61015d6101583660046115af565b6109bf565b60405190151581526020016100b8565b6100f761017b36600461161c565b610b85565b6100f761018e366004611763565b610f51565b6101be6040518060800160405280606081526020016060815260200160608152602001606081525090565b6000828152600260205260409020546102155760405162461bcd60e51b81526020600482015260146024820152731059191c995cdcc81b9bdd081d995c9a599a595960621b60448201526064015b60405180910390fd5b6000828152600260205260409020546001906102329082906117a2565b81548110610242576102426117bb565b906000526020600020906004020160405180608001604052908160008201805461026b906117d1565b80601f0160208091040260200160405190810160405280929190818152602001828054610297906117d1565b80156102e45780601f106102b9576101008083540402835291602001916102e4565b820191906000526020600020905b8154815290600101906020018083116102c757829003601f168201915b505050505081526020016001820180546102fd906117d1565b80601f0160208091040260200160405190810160405280929190818152602001828054610329906117d1565b80156103765780601f1061034b57610100808354040283529160200191610376565b820191906000526020600020905b81548152906001019060200180831161035957829003601f168201915b5050505050815260200160028201805461038f906117d1565b80601f01602080910402602001604051908101604052809291908181526020018280546103bb906117d1565b80156104085780601f106103dd57610100808354040283529160200191610408565b820191906000526020600020905b8154815290600101906020018083116103eb57829003601f168201915b50505050508152602001600382018054610421906117d1565b80601f016020809104026020016040519081016040528092919081815260200182805461044d906117d1565b801561049a5780601f1061046f5761010080835404028352916020019161049a565b820191906000526020600020905b81548152906001019060200180831161047d57829003601f168201915b5050505050815250509050919050565b6104b2610fca565b6104bc6000611024565b565b600181815481106104ce57600080fd5b90600052602060002090600402016000915090508060000180546104f1906117d1565b80601f016020809104026020016040519081016040528092919081815260200182805461051d906117d1565b801561056a5780601f1061053f5761010080835404028352916020019161056a565b820191906000526020600020905b81548152906001019060200180831161054d57829003601f168201915b50505050509080600101805461057f906117d1565b80601f01602080910402602001604051908101604052809291908181526020018280546105ab906117d1565b80156105f85780601f106105cd576101008083540402835291602001916105f8565b820191906000526020600020905b8154815290600101906020018083116105db57829003601f168201915b50505050509080600201805461060d906117d1565b80601f0160208091040260200160405190810160405280929190818152602001828054610639906117d1565b80156106865780601f1061065b57610100808354040283529160200191610686565b820191906000526020600020905b81548152906001019060200180831161066957829003601f168201915b50505050509080600301805461069b906117d1565b80601f01602080910402602001604051908101604052809291908181526020018280546106c7906117d1565b80156107145780601f106106e957610100808354040283529160200191610714565b820191906000526020600020905b8154815290600101906020018083116106f757829003601f168201915b5050505050905084565b610726610fca565b60005b8151811015610984576000828281518110610746576107466117bb565b602002602001015160000151604051602001610762919061180b565b60408051601f1981840301815291815281516020928301206000818152600290935291205490915080156107d85760405162461bcd60e51b815260206004820152601860248201527f4164647265737320616c72656164792076657269666965640000000000000000604482015260640161020c565b60018484815181106107ec576107ec6117bb565b6020908102919091018101518254600181018455600093845291909220825160049092020190819061081e9082611876565b50602082015160018201906108339082611876565b50604082015160028201906108489082611876565b506060820151600382019061085d9082611876565b5050600154600084815260026020526040902055508351849084908110610886576108866117bb565b602002602001015160000151516000141580156108c257508383815181106108b0576108b06117bb565b60200260200101516020015151600014155b80156108ed57508383815181106108db576108db6117bb565b60200260200101516040015151600014155b80156109185750838381518110610906576109066117bb565b60200260200101516060015151600014155b61096f5760405162461bcd60e51b815260206004820152602260248201527f496e76616c69642070726f6f66206f662061646472657373206f776e65727368604482015261069760f41b606482015260840161020c565b5050808061097c90611936565b915050610729565b507f382315d4d56a6035e1899bffe77d9becefaf5f2650e4323b27854857a0454658816040516109b4919061194f565b60405180910390a150565b6000826001815181106109d4576109d46117bb565b6020026020010151600360008481526020019081526020016000206000015414610a335760405162461bcd60e51b815260206004820152601060248201526f125b9d985b1a59081354d5081c9bdbdd60821b604482015260640161020c565b60025b8351811015610aed57838181518110610a5157610a516117bb565b602002602001015160036000858152602001908152602001600020600101600283610a7c91906117a2565b81548110610a8c57610a8c6117bb565b906000526020600020015414610adb5760405162461bcd60e51b8152602060048201526014602482015273496e76616c696420726f6f742062616c616e636560601b604482015260640161020c565b80610ae581611936565b915050610a36565b50604051630bd205a960e41b81526001600160a01b037f0000000000000000000000000000000000000000000000000000000000000000169063bd205a9090610b3c90869088906004016119ec565b602060405180830381865afa158015610b59573d6000803e3d6000fd5b505050506040513d601f19601f82011682018060405250810190610b7d9190611a11565b949350505050565b610b8d610fca565b83600003610bd05760405162461bcd60e51b815260206004820152601060248201526f125b9d985b1a59081354d5081c9bdbdd60821b604482015260640161020c565b8151835114610c3f5760405162461bcd60e51b815260206004820152603560248201527f526f6f74206c696162696c69746965732073756d7320616e64206c696162696c6044820152740d2e8d2cae640dceadac4cae440dad2e6dac2e8c6d605b1b606482015260840161020c565b6000825167ffffffffffffffff811115610c5b57610c5b6112c3565b604051908082528060200260200182016040528015610c8e57816020015b6060815260200190600190039081610c795790505b5090506000835167ffffffffffffffff811115610cad57610cad6112c3565b604051908082528060200260200182016040528015610ce057816020015b6060815260200190600190039081610ccb5790505b50905060005b8451811015610e8657848181518110610d0157610d016117bb565b60200260200101516020015151600014158015610d3d5750848181518110610d2b57610d2b6117bb565b60200260200101516000015151600014155b610d825760405162461bcd60e51b8152602060048201526016602482015275496e76616c69642063727970746f63757272656e637960501b604482015260640161020c565b858181518110610d9457610d946117bb565b6020026020010151600003610dfd5760405162461bcd60e51b815260206004820152602960248201527f416c6c20726f6f742073756d732073686f756c642062652067726561746572206044820152687468616e207a65726f60b81b606482015260840161020c565b848181518110610e0f57610e0f6117bb565b602002602001015160000151838281518110610e2d57610e2d6117bb565b6020026020010181905250848181518110610e4a57610e4a6117bb565b602002602001015160200151828281518110610e6857610e686117bb565b60200260200101819052508080610e7e90611936565b915050610ce6565b5060408051608081018252878152602080820188815282840186905260608301859052600087815260038352939093208251815592518051929392610ed19260018501920190611074565b5060408201518051610eed9160028401916020909101906110bf565b5060608201518051610f099160038401916020909101906110bf565b50905050827f88bfc7389cb831ea0208ff106da6f5c9f88036ba084f1eb008d2788d3d45998d878787604051610f4193929190611a33565b60405180910390a2505050505050565b610f59610fca565b6001600160a01b038116610fbe5760405162461bcd60e51b815260206004820152602660248201527f4f776e61626c653a206e6577206f776e657220697320746865207a65726f206160448201526564647265737360d01b606482015260840161020c565b610fc781611024565b50565b6000546001600160a01b031633146104bc5760405162461bcd60e51b815260206004820181905260248201527f4f776e61626c653a2063616c6c6572206973206e6f7420746865206f776e6572604482015260640161020c565b600080546001600160a01b038381166001600160a01b0319831681178455604051919092169283917f8be0079c531659141344cd1fd0a4f28419497f9722a3daafe3b4186f6b6457e09190a35050565b8280548282559060005260206000209081019282156110af579160200282015b828111156110af578251825591602001919060010190611094565b506110bb929150611111565b5090565b828054828255906000526020600020908101928215611105579160200282015b8281111561110557825182906110f59082611876565b50916020019190600101906110df565b506110bb929150611126565b5b808211156110bb5760008155600101611112565b808211156110bb57600061113a8282611143565b50600101611126565b50805461114f906117d1565b6000825580601f1061115f575050565b601f016020900490600052602060002090810190610fc79190611111565b60006020828403121561118f57600080fd5b5035919050565b60005b838110156111b1578181015183820152602001611199565b50506000910152565b600081518084526111d2816020860160208601611196565b601f01601f19169290920160200192915050565b60008151608084526111fb60808501826111ba565b90506020830151848203602086015261121482826111ba565b9150506040830151848203604086015261122e82826111ba565b9150506060830151848203606086015261124882826111ba565b95945050505050565b60208152600061126460208301846111e6565b9392505050565b60808152600061127e60808301876111ba565b828103602084015261129081876111ba565b905082810360408401526112a481866111ba565b905082810360608401526112b881856111ba565b979650505050505050565b634e487b7160e01b600052604160045260246000fd5b6040516080810167ffffffffffffffff811182821017156112fc576112fc6112c3565b60405290565b6040805190810167ffffffffffffffff811182821017156112fc576112fc6112c3565b604051601f8201601f1916810167ffffffffffffffff8111828210171561134e5761134e6112c3565b604052919050565b600067ffffffffffffffff821115611370576113706112c3565b5060051b60200190565b600082601f83011261138b57600080fd5b813567ffffffffffffffff8111156113a5576113a56112c3565b6113b8601f8201601f1916602001611325565b8181528460208386010111156113cd57600080fd5b816020850160208301376000918101602001919091529392505050565b600060208083850312156113fd57600080fd5b823567ffffffffffffffff8082111561141557600080fd5b818501915085601f83011261142957600080fd5b813561143c61143782611356565b611325565b81815260059190911b8301840190848101908883111561145b57600080fd5b8585015b8381101561153c5780358581111561147657600080fd5b86016080818c03601f1901121561148d5760008081fd5b6114956112d9565b88820135878111156114a75760008081fd5b6114b58d8b8386010161137a565b825250604080830135888111156114cc5760008081fd5b6114da8e8c8387010161137a565b8b84015250606080840135898111156114f35760008081fd5b6115018f8d8388010161137a565b8385015250608084013591508882111561151b5760008081fd5b6115298e8c8487010161137a565b908301525084525091860191860161145f565b5098975050505050505050565b600082601f83011261155a57600080fd5b8135602061156a61143783611356565b82815260059290921b8401810191818101908684111561158957600080fd5b8286015b848110156115a4578035835291830191830161158d565b509695505050505050565b6000806000606084860312156115c457600080fd5b833567ffffffffffffffff808211156115dc57600080fd5b6115e88783880161137a565b945060208601359150808211156115fe57600080fd5b5061160b86828701611549565b925050604084013590509250925092565b6000806000806080858703121561163257600080fd5b84359350602085013567ffffffffffffffff8082111561165157600080fd5b61165d88838901611549565b9450604087013591508082111561167357600080fd5b818701915087601f83011261168757600080fd5b6116946114378335611356565b82358082526020808301929160051b8501018a8111156116b357600080fd5b602085015b8181101561174f5784813511156116ce57600080fd5b803586016040818e03601f190112156116e657600080fd5b6116ee611302565b60208201358781111561170057600080fd5b61170f8f60208386010161137a565b82525060408201358781111561172457600080fd5b6117338f60208386010161137a565b60208301525080865250506020840193506020810190506116b8565b50979a969950976060013596505050505050565b60006020828403121561177557600080fd5b81356001600160a01b038116811461126457600080fd5b634e487b7160e01b600052601160045260246000fd5b818103818111156117b5576117b561178c565b92915050565b634e487b7160e01b600052603260045260246000fd5b600181811c908216806117e557607f821691505b60208210810361180557634e487b7160e01b600052602260045260246000fd5b50919050565b6000825161181d818460208701611196565b9190910192915050565b601f82111561187157600081815260208120601f850160051c8101602086101561184e5750805b601f850160051c820191505b8181101561186d5782815560010161185a565b5050505b505050565b815167ffffffffffffffff811115611890576118906112c3565b6118a48161189e84546117d1565b84611827565b602080601f8311600181146118d957600084156118c15750858301515b600019600386901b1c1916600185901b17855561186d565b600085815260208120601f198616915b82811015611908578886015182559484019460019091019084016118e9565b50858210156119265787850151600019600388901b60f8161c191681555b5050505050600190811b01905550565b6000600182016119485761194861178c565b5060010190565b6000602080830181845280855180835260408601915060408160051b870101925083870160005b828110156119a457603f198886030184526119928583516111e6565b94509285019290850190600101611976565b5092979650505050505050565b600081518084526020808501945080840160005b838110156119e1578151875295820195908201906001016119c5565b509495945050505050565b6040815260006119ff60408301856119b1565b828103602084015261124881856111ba565b600060208284031215611a2357600080fd5b8151801515811461126457600080fd5b83815260006020606081840152611a4d60608401866119b1565b6040848203818601528186518084528484019150848160051b85010185890160005b83811015611abf57868303601f1901855281518051878552611a93888601826111ba565b918a0151858303868c0152919050611aab81836111ba565b968a01969450505090870190600101611a6f565b50909b9a505050505050505050505056fea2646970667358221220929937337ad16c6172e2163bc45ed3913fe51f8e5ce8cac3ac8073d01593edd764736f6c63430008120033","linkReferences":{},"deployedLinkReferences":{}}