{"_format":"hh-sol-artifact-1","contractName":"Summa","sourceName":"src/Summa.sol","abi":[{"inputs":[{"internalType":"contract IVerifier","name":"_inclusionVerifier","type":"address"},{"internalType":"uint16","name":"mstLevels","type":"uint16"},{"internalType":"uint16","name":"currenciesCount","type":"uint16"},{"internalType":"uint8","name":"balanceByteRange","type":"uint8"}],"stateMutability":"nonpayable","type":"constructor"},{"anonymous":false,"inputs":[{"components":[{"internalType":"string","name":"cexAddress","type":"string"},{"internalType":"string","name":"chain","type":"string"},{"internalType":"bytes","name":"signature","type":"bytes"},{"internalType":"bytes","name":"message","type":"bytes"}],"indexed":false,"internalType":"struct Summa.AddressOwnershipProof[]","name":"addressOwnershipProofs","type":"tuple[]"}],"name":"AddressOwnershipProofSubmitted","type":"event"},{"anonymous":false,"inputs":[{"indexed":true,"internalType":"uint256","name":"timestamp","type":"uint256"},{"indexed":false,"internalType":"uint256","name":"mstRoot","type":"uint256"},{"indexed":false,"internalType":"uint256[]","name":"rootBalances","type":"uint256[]"},{"components":[{"internalType":"string","name":"name","type":"string"},{"internalType":"string","name":"chain","type":"string"}],"indexed":false,"internalType":"struct Summa.Cryptocurrency[]","name":"cryptocurrencies","type":"tuple[]"}],"name":"LiabilitiesCommitmentSubmitted","type":"event"},{"anonymous":false,"inputs":[{"indexed":true,"internalType":"address","name":"previousOwner","type":"address"},{"indexed":true,"internalType":"address","name":"newOwner","type":"address"}],"name":"OwnershipTransferred","type":"event"},{"inputs":[{"internalType":"uint256","name":"","type":"uint256"}],"name":"addressOwnershipProofs","outputs":[{"internalType":"string","name":"cexAddress","type":"string"},{"internalType":"string","name":"chain","type":"string"},{"internalType":"bytes","name":"signature","type":"bytes"},{"internalType":"bytes","name":"message","type":"bytes"}],"stateMutability":"view","type":"function"},{"inputs":[{"internalType":"uint256","name":"","type":"uint256"}],"name":"commitments","outputs":[{"internalType":"uint256","name":"mstRoot","type":"uint256"}],"stateMutability":"view","type":"function"},{"inputs":[],"name":"config","outputs":[{"internalType":"uint16","name":"mstLevels","type":"uint16"},{"internalType":"uint16","name":"currenciesCount","type":"uint16"},{"internalType":"uint8","name":"balanceByteRange","type":"uint8"}],"stateMutability":"view","type":"function"},{"inputs":[{"internalType":"bytes32","name":"addressHash","type":"bytes32"}],"name":"getAddressOwnershipProof","outputs":[{"components":[{"internalType":"string","name":"cexAddress","type":"string"},{"internalType":"string","name":"chain","type":"string"},{"internalType":"bytes","name":"signature","type":"bytes"},{"internalType":"bytes","name":"message","type":"bytes"}],"internalType":"struct Summa.AddressOwnershipProof","name":"","type":"tuple"}],"stateMutability":"view","type":"function"},{"inputs":[],"name":"owner","outputs":[{"internalType":"address","name":"","type":"address"}],"stateMutability":"view","type":"function"},{"inputs":[],"name":"renounceOwnership","outputs":[],"stateMutability":"nonpayable","type":"function"},{"inputs":[{"internalType":"uint256","name":"mstRoot","type":"uint256"},{"internalType":"uint256[]","name":"rootBalances","type":"uint256[]"},{"components":[{"internalType":"string","name":"name","type":"string"},{"internalType":"string","name":"chain","type":"string"}],"internalType":"struct Summa.Cryptocurrency[]","name":"cryptocurrencies","type":"tuple[]"},{"internalType":"uint256","name":"timestamp","type":"uint256"}],"name":"submitCommitment","outputs":[],"stateMutability":"nonpayable","type":"function"},{"inputs":[{"components":[{"internalType":"string","name":"cexAddress","type":"string"},{"internalType":"string","name":"chain","type":"string"},{"internalType":"bytes","name":"signature","type":"bytes"},{"internalType":"bytes","name":"message","type":"bytes"}],"internalType":"struct Summa.AddressOwnershipProof[]","name":"_addressOwnershipProofs","type":"tuple[]"}],"name":"submitProofOfAddressOwnership","outputs":[],"stateMutability":"nonpayable","type":"function"},{"inputs":[{"internalType":"address","name":"newOwner","type":"address"}],"name":"transferOwnership","outputs":[],"stateMutability":"nonpayable","type":"function"},{"inputs":[{"internalType":"bytes","name":"proof","type":"bytes"},{"internalType":"uint256[]","name":"publicInputs","type":"uint256[]"},{"internalType":"uint256","name":"timestamp","type":"uint256"}],"name":"verifyInclusionProof","outputs":[{"internalType":"bool","name":"","type":"bool"}],"stateMutability":"view","type":"function"}],"bytecode":"0x60a0346200014a57601f62001bf538819003918201601f19168301926001600160401b03929091838511838610176200014f5781608092849260409788528339810103126200014a5780516001600160a01b039081811681036200014a576200006b6020840162000165565b9160606200007b87860162000165565b9401519460ff8616928387036200014a5760008054336001600160a01b03198216811783559194167f8be0079c531659141344cd1fd0a4f28419497f9722a3daafe3b4186f6b6457e08580a3608052865191606083019182118383101762000136575063ffff00009392918791825261ffff8094169384825286166020820152015264ff000000006001549460201b169364ffffffffff1916179160101b16171760015551611a7f90816200017682396080518161188b0152f35b634e487b7160e01b81526041600452602490fd5b600080fd5b634e487b7160e01b600052604160045260246000fd5b519061ffff821682036200014a5756fe608080604052600436101561001357600080fd5b60003560e01c90816319b33968146112635750806349ce899714611237578063715018a6146111de57806379502c55146111a55780638da5cb5b1461117c578063a3c4bcf8146110a8578063c7ddca0e146109b0578063c8e581471461094d578063da64a7501461015d5763f2fde38b1461008d57600080fd5b34610158576020366003190112610158576004356001600160a01b0381811691829003610158576100bc611675565b811561010457600054826bffffffffffffffffffffffff60a01b821617600055167f8be0079c531659141344cd1fd0a4f28419497f9722a3daafe3b4186f6b6457e0600080a3005b60405162461bcd60e51b815260206004820152602660248201527f4f776e61626c653a206e6577206f776e657220697320746865207a65726f206160448201526564647265737360d01b6064820152608490fd5b600080fd5b34610158576080366003190112610158576024356001600160401b0381116101585761018d903690600401611617565b6001600160401b03604435116101585736602360443501121561015857604435600401356101ba8161159e565b6101c7604051918261157d565b8181526020810180923660248260051b60443501011161015857602460443501915b60248260051b6044350101831061089d57505050610205611675565b610212600435151561174e565b825181510361083a57610225815161178d565b90610230815161178d565b9360005b825181101561036957602061024982856116dc565b51015151151580610354575b156103165761026481836116dc565b51156102bf57806102786102ba92856116dc565b515161028482876116dc565b5261028f81866116dc565b50602061029c82866116dc565b5101516102a982896116dc565b526102b481886116dc565b506116cd565b610234565b60405162461bcd60e51b815260206004820152602960248201527f416c6c20726f6f742073756d732073686f756c642062652067726561746572206044820152687468616e207a65726f60b81b6064820152608490fd5b60405162461bcd60e51b8152602060048201526016602482015275496e76616c69642063727970746f63757272656e637960501b6044820152606490fd5b5061035f81846116dc565b5151511515610255565b5091846040519061037982611562565b6004358252602082019285845260408301526060820152606435600052600460205260406000209181518355518051906001600160401b03821161062157600160401b821161062157602090600185015483600187015580841061081a575b500160018401600052602060002060005b83811061080657505050506040810151805190600160401b821161062157600284015482600286015580831061078d575b5060200190600284016000526020600020916000905b8282106106b0575050505060600151805190600160401b8211610621576003830154826003850155808310610637575b5060206003910192016000526020600020916000905b82821061053e575050505061049e6040519260043584526060602085015260608401906117d7565b90828203604084015251808252602082019160208260051b82010194926000915b8383106104f1576064357f88bfc7389cb831ea0208ff106da6f5c9f88036ba084f1eb008d2788d3d45998d87890388a2005b909192939560208061052f600193601f198682030187528a51908361051f83516040845260408401906113c6565b92015190848184039101526113c6565b980193019301919392906104bf565b80518051906001600160401b038211610621576105658261055f8854611492565b88611707565b602090601f83116001146105b15792826001949360209386956000926105a6575b5050600019600383901b1c191690841b1787555b01940191019092610476565b015190508c80610586565b908660005260206000209160005b601f1985168110610609575083602093600196938796938794601f198116106105f0575b505050811b01875561059a565b015160001960f88460031b161c191690558c80806105e3565b919260206001819286850151815501940192016105bf565b634e487b7160e01b600052604160045260246000fd5b600384016000526020600020908382015b8183018110610658575050610460565b8061066560019254611492565b80610672575b5001610648565b601f90818111841461068b575050600081555b8a61066b565b6106a760009284845260208420920160051c82018583016116f0565b81835555610685565b80518051906001600160401b038211610621576106d18261055f8854611492565b602090601f831160011461071d579282600194936020938695600092610712575b5050600019600383901b1c191690841b1787555b01940191019092610430565b015190508e806106f2565b908660005260206000209160005b601f1985168110610775575083602093600196938796938794601f1981161061075c575b505050811b018755610706565b015160001960f88460031b161c191690558e808061074f565b9192602060018192868501518155019401920161072b565b600285016000526020600020908382015b81830181106107ae57505061041a565b806107bb60019254611492565b806107c8575b500161079e565b601f9081811184146107e1575050600081555b8b6107c1565b6107fd60009284845260208420920160051c82018583016116f0565b818355556107db565b6001906020845194019381840155016103e9565b6108349060018701600052848460002091820191016116f0565b886103d8565b60405162461bcd60e51b815260206004820152603560248201527f526f6f74206c696162696c69746965732073756d7320616e64206c696162696c6044820152740d2e8d2cae640dceadac4cae440dad2e6dac2e8c6d605b1b6064820152608490fd5b8235906001600160401b0382116101585760406044358301360360231901126101585760405191604083018381106001600160401b03821117610621576040526001600160401b03602482604435010135116101585761090936602460443584018181013501016115d0565b83526044818135010135916001600160401b0383116101585760249361093c6020949386869536926044350101016115d0565b8382015281520193019290506101e9565b34610158576060366003190112610158576001600160401b036004358181116101585761097e9036906004016115d0565b906024359081116101585760209161099d6109a6923690600401611617565b6044359161180b565b6040519015158152f35b34610158576020366003190112610158576004356001600160401b0381116101585736602382011215610158578060040135906109ec8261159e565b906109fa604051928361157d565b82825260208201906024829460051b820101903682116101585760248101925b828410610fce578585610a2b611675565b60005b8151811015610f4e57610a4181836116dc565b5151604051610a6d60208281610a6081830196878151938492016113a3565b810103808452018261157d565b519020806000526003602052604060002054610f0957610a8d82846116dc565b51600254600160401b81101561062157806001610aad9201600255611442565b919091610ef35780518051906001600160401b038211610621578190610add82610ad78754611492565b87611707565b602090601f8311600114610e8757600092610e7c575b50508160011b916000199060031b1c19161782555b60208101518051906001600160401b038211610621578190610b3a82610b316001880154611492565b60018801611707565b602090601f8311600114610e0a57600092610dff575b50508160011b916000199060031b1c19161760018301555b60408101518051906001600160401b03821161062157610b9882610b8f6002870154611492565b60028701611707565b602090601f8311600114610d8c57606093929160009183610d81575b50508160011b916000199060031b1c19161760028401555b01518051906001600160401b03821161062157610bf982610bf06003860154611492565b60038601611707565b602090601f8311600114610d12576003929160009183610d07575b50508160011b9160001990841b1c1916179101555b600254906000526003602052604060002055610c4581836116dc565b515151151580610cef575b80610cd7575b80610cbf575b15610c6f57610c6a906116cd565b610a2e565b60405162461bcd60e51b815260206004820152602260248201527f496e76616c69642070726f6f66206f662061646472657373206f776e65727368604482015261069760f41b6064820152608490fd5b506060610ccc82846116dc565b510151511515610c5c565b506040610ce482846116dc565b510151511515610c56565b506020610cfc82846116dc565b510151511515610c50565b015190508880610c14565b906003840160005260206000209160005b601f1985168110610d695750918391600193600395601f19811610610d51575b505050811b01910155610c29565b015160001983861b60f8161c19169055888080610d43565b91926020600181928685015181550194019201610d23565b015190508980610bb4565b906002850160005260206000209160005b601f1985168110610de7575091839160019360609695601f19811610610dce575b505050811b016002840155610bcc565b015160001960f88460031b161c19169055898080610dbe565b91926020600181928685015181550194019201610d9d565b015190508880610b50565b9250600185016000526020600020906000935b601f1984168510610e61576001945083601f19811610610e48575b505050811b016001830155610b68565b015160001960f88460031b161c19169055888080610e38565b81810151835560209485019460019093019290910190610e1d565b015190508880610af3565b9250846000526020600020906000935b601f1984168510610ed8576001945083601f19811610610ebf575b505050811b018255610b08565b015160001960f88460031b161c19169055888080610eb2565b81810151835560209485019460019093019290910190610e97565b634e487b7160e01b600052600060045260246000fd5b60405162461bcd60e51b815260206004820152601860248201527f4164647265737320616c726561647920766572696669656400000000000000006044820152606490fd5b506040519060208201906020835251809152604082019060408160051b84010193916000905b828210610fa3577f382315d4d56a6035e1899bffe77d9becefaf5f2650e4323b27854857a045465885870386a1005b90919294602080610fc0600193603f1989820301865289516113eb565b970192019201909291610f74565b83356001600160401b038111610158578201608060231982360301126101585760405191610ffb83611562565b60248201356001600160401b0381116101585761101e90602436918501016115d0565b835260448201356001600160401b0381116101585761104390602436918501016115d0565b602084015260648201356001600160401b0381116101585761106b90602436918501016115d0565b60408401526084820135926001600160401b038411610158576110986020949360248695369201016115d0565b6060820152815201930192610a1a565b3461015857602036600319011261015857600435600254811015610158576110d261114e91611442565b50611178600361116a604051936110f4856110ed81846114cc565b038661157d565b61115c6040516111128161110b81600187016114cc565b038261157d565b61113a6040519361112a856110ed81600285016114cc565b6110ed60405180988193016114cc565b6040519788976080895260808901906113c6565b9087820360208901526113c6565b9085820360408701526113c6565b9083820360608501526113c6565b0390f35b34610158576000366003190112610158576000546040516001600160a01b039091168152602090f35b3461015857600036600319011261015857606060015460ff6040519161ffff80821684528160101c16602084015260201c166040820152f35b34610158576000366003190112610158576111f7611675565b600080546001600160a01b0319811682556001600160a01b03167f8be0079c531659141344cd1fd0a4f28419497f9722a3daafe3b4186f6b6457e08280a3005b346101585760203660031901126101585760043560005260046020526020604060002054604051908152f35b34610158576020806003193601126101585760043561128183611562565b60608084818096528185820152816040820152015280600052600382526040600020541561136757600052600381526040600020546000198101908111611351576112cd600391611442565b509261133a604051946112df86611562565b6040516112f08161110b81856114cc565b86526040516113068161110b81600186016114cc565b8587015260405161131e8161110b81600286016114cc565b604087015261133360405180958193016114cc565b038361157d565b8301526111786040519282849384528301906113eb565b634e487b7160e01b600052601160045260246000fd5b60405162461bcd60e51b81526004810183905260146024820152731059191c995cdcc81b9bdd081d995c9a599a595960621b6044820152606490fd5b60005b8381106113b65750506000910152565b81810151838201526020016113a6565b906020916113df815180928185528580860191016113a3565b601f01601f1916010190565b61143f91606061142e61141c61140a85516080865260808601906113c6565b602086015185820360208701526113c6565b604085015184820360408601526113c6565b9201519060608184039101526113c6565b90565b60025481101561147c57600260005260021b7f405787fa12a823e0f2b7631cc41b3ba8828b3321ca811111fa75cd3aa3bb5ace0190600090565b634e487b7160e01b600052603260045260246000fd5b90600182811c921680156114c2575b60208310146114ac57565b634e487b7160e01b600052602260045260246000fd5b91607f16916114a1565b90600092918054916114dd83611492565b91828252600193848116908160001461153f57506001146114ff575b50505050565b90919394506000526020928360002092846000945b83861061152b5750505050010190388080806114f9565b805485870183015294019385908201611514565b9294505050602093945060ff191683830152151560051b010190388080806114f9565b608081019081106001600160401b0382111761062157604052565b90601f801991011681019081106001600160401b0382111761062157604052565b6001600160401b0381116106215760051b60200190565b6001600160401b03811161062157601f01601f191660200190565b81601f82011215610158578035906115e7826115b5565b926115f5604051948561157d565b8284526020838301011161015857816000926020809301838601378301015290565b81601f820112156101585780359161162e8361159e565b9261163c604051948561157d565b808452602092838086019260051b820101928311610158578301905b828210611666575050505090565b81358152908301908301611658565b6000546001600160a01b0316330361168957565b606460405162461bcd60e51b815260206004820152602060248201527f4f776e61626c653a2063616c6c6572206973206e6f7420746865206f776e65726044820152fd5b60001981146113515760010190565b805182101561147c5760209160051b010190565b8181106116fb575050565b600081556001016116f0565b9190601f811161171657505050565b611742926000526020600020906020601f840160051c83019310611744575b601f0160051c01906116f0565b565b9091508190611735565b1561175557565b60405162461bcd60e51b815260206004820152601060248201526f125b9d985b1a59081354d5081c9bdbdd60821b6044820152606490fd5b906117978261159e565b6117a4604051918261157d565b82815280926117b5601f199161159e565b019060005b8281106117c657505050565b8060606020809385010152016117ba565b90815180825260208080930193019160005b8281106117f7575050505090565b8351855293810193928101926001016117e9565b909160008181526004936020938585526040938484205490835191600192831015611a36579061184288949392888701511461174e565b6002825b611974575b5050506118759061188786519485938493631e8e1e1360e01b8552898c86015260448501906113c6565b838103600319016024850152906117d7565b03817f00000000000000000000000000000000000000000000000000000000000000006001600160a01b03165afa829181611938575b506119305750606494503d1561192a573d906118d8826115b5565b916118e58451938461157d565b8252833d92013e5b5162461bcd60e51b815291820152601760248201527f496e76616c696420696e636c7573696f6e2070726f6f660000000000000000006044820152fd5b506118ed565b935050505090565b9091508481813d831161196d575b611950818361157d565b81010312611969575180151581036119695790386118bd565b8280fd5b503d611946565b909192938551821015611a2f5750818652888852868620600119908401828201838111611a1c5781541115611a09578752818988200101546119b682876116dc565b51036119cf57906119c783926116cd565b889493611846565b865162461bcd60e51b8152808a018990526014602482015273496e76616c696420726f6f742062616c616e636560601b6044820152606490fd5b634e487b7160e01b885260328b52602488fd5b634e487b7160e01b895260118c52602489fd5b939261184b565b634e487b7160e01b865260328952602486fdfea26469706673582212204c697500976b80ebfdb94c86197130f85b4277c7496208d402a9e627925053f264736f6c63430008120033","linkReferences":{},"deployedLinkReferences":{}}