{
  "_format": "hh-sol-artifact-1",
  "contractName": "Summa",
  "sourceName": "src/Summa.sol",
  "abi": [
    {
      "inputs": [
        {
          "internalType": "contract Verifier",
          "name": "_verifier",
          "type": "address"
        }
      ],
      "stateMutability": "nonpayable",
      "type": "constructor"
    },
    {
      "anonymous": false,
      "inputs": [
        {
          "indexed": true,
          "internalType": "address",
          "name": "previousOwner",
          "type": "address"
        },
        {
          "indexed": true,
          "internalType": "address",
          "name": "newOwner",
          "type": "address"
        }
      ],
      "name": "OwnershipTransferred",
      "type": "event"
    },
    {
      "anonymous": false,
      "inputs": [
        {
          "indexed": true,
          "internalType": "bytes32",
          "name": "exchangeId",
          "type": "bytes32"
        },
        {
          "indexed": false,
          "internalType": "uint256",
          "name": "mstRoot",
          "type": "uint256"
        }
      ],
      "name": "ProofOfSolvencySubmitted",
      "type": "event"
    },
    {
      "inputs": [],
      "name": "owner",
      "outputs": [
        {
          "internalType": "address",
          "name": "",
          "type": "address"
        }
      ],
      "stateMutability": "view",
      "type": "function"
    },
    {
      "inputs": [],
      "name": "renounceOwnership",
      "outputs": [],
      "stateMutability": "nonpayable",
      "type": "function"
    },
    {
      "inputs": [
        {
          "internalType": "string",
          "name": "exchangeId",
          "type": "string"
        },
        {
          "internalType": "address[]",
          "name": "cexAddresses",
          "type": "address[]"
        },
        {
          "internalType": "bytes[]",
          "name": "cexSignatures",
          "type": "bytes[]"
        },
        {
          "internalType": "address[]",
          "name": "erc20ContractAddresses",
          "type": "address[]"
        },
        {
          "internalType": "uint256[]",
          "name": "balancesToProve",
          "type": "uint256[]"
        },
        {
          "internalType": "uint256",
          "name": "mstRoot",
          "type": "uint256"
        },
        {
          "internalType": "bytes",
          "name": "proof",
          "type": "bytes"
        }
      ],
      "name": "submitProofOfSolvency",
      "outputs": [],
      "stateMutability": "nonpayable",
      "type": "function"
    },
    {
      "inputs": [
        {
          "internalType": "address",
          "name": "newOwner",
          "type": "address"
        }
      ],
      "name": "transferOwnership",
      "outputs": [],
      "stateMutability": "nonpayable",
      "type": "function"
    },
    {
      "inputs": [
        {
          "internalType": "bytes",
          "name": "proof",
          "type": "bytes"
        },
        {
          "internalType": "uint256[]",
          "name": "publicInputs",
          "type": "uint256[]"
        }
      ],
      "name": "verifyZkProof",
      "outputs": [
        {
          "internalType": "bool",
          "name": "",
          "type": "bool"
        }
      ],
      "stateMutability": "view",
      "type": "function"
    }
  ],
  "bytecode": "0x608060405234801561001057600080fd5b506040516111fb3803806111fb83398101604081905261002f916100ad565b6100383361005d565b600180546001600160a01b0319166001600160a01b03929092169190911790556100dd565b600080546001600160a01b038381166001600160a01b0319831681178455604051919092169283917f8be0079c531659141344cd1fd0a4f28419497f9722a3daafe3b4186f6b6457e09190a35050565b6000602082840312156100bf57600080fd5b81516001600160a01b03811681146100d657600080fd5b9392505050565b61110f806100ec6000396000f3fe608060405234801561001057600080fd5b50600436106100575760003560e01c8063715018a61461005c5780638da5cb5b14610066578063d800715014610086578063e691ad3314610099578063f2fde38b146100bc575b600080fd5b6100646100cf565b005b6000546040516001600160a01b0390911681526020015b60405180910390f35b610064610094366004610da0565b6100e3565b6100ac6100a7366004610ea0565b610745565b604051901515815260200161007d565b6100646100ca366004610f04565b6107c2565b6100d761083b565b6100e16000610895565b565b845186511480156100f5575060008651115b61015a5760405162461bcd60e51b815260206004820152602b60248201527f4345582061646472657373657320616e64207369676e61747572657320636f7560448201526a0dce840dad2e6dac2e8c6d60ab1b60648201526084015b60405180910390fd5b600183516101689190610f35565b8451148015610178575060008451115b6101d85760405162461bcd60e51b815260206004820152602b60248201527f45524332302061646472657373657320616e642062616c616e63657320636f7560448201526a0dce840dad2e6dac2e8c6d60ab1b6064820152608401610151565b600080855167ffffffffffffffff8111156101f5576101f5610b5c565b60405190808252806020026020018201604052801561021e578160200160208202803683370190505b50905060005b88518110156104665760006102af89838151811061024457610244610f48565b60200260200101516102a98d6040516020016102609190610fa4565b604051602081830303815290604052805190602001207f19457468657265756d205369676e6564204d6573736167653a0a3332000000006000908152601c91909152603c902090565b906108e5565b9050806001600160a01b03168a83815181106102cd576102cd610f48565b60200260200101516001600160a01b03161461032b5760405162461bcd60e51b815260206004820152601e60248201527f496e76616c6964207369676e657220666f7220455448206164647265737300006044820152606401610151565b89828151811061033d5761033d610f48565b60200260200101516001600160a01b0316318461035a9190610feb565b935060005b88518110156104515788818151811061037a5761037a610f48565b60200260200101516001600160a01b03166370a082318c85815181106103a2576103a2610f48565b60200260200101516040518263ffffffff1660e01b81526004016103d591906001600160a01b0391909116815260200190565b602060405180830381865afa1580156103f2573d6000803e3d6000fd5b505050506040513d601f19601f820116820180604052508101906104169190610ffe565b84828151811061042857610428610f48565b6020026020010181815161043c9190610feb565b9052508061044981611017565b91505061035f565b5050808061045e90611017565b915050610224565b508460008151811061047a5761047a610f48565b60200260200101518210156104ec5760405162461bcd60e51b815260206004820152603260248201527f41637475616c204554482062616c616e6365206973206c657373207468616e206044820152717468652070726f76656e2062616c616e636560701b6064820152608401610151565b60005b86518110156105b35785610504826001610feb565b8151811061051457610514610f48565b602002602001015182828151811061052e5761052e610f48565b602002602001015110156105a15760405162461bcd60e51b815260206004820152603460248201527f41637475616c2045524332302062616c616e6365206973206c657373207468616044820152736e207468652070726f76656e2062616c616e636560601b6064820152608401610151565b806105ab81611017565b9150506104ef565b506000855160016105c49190610feb565b67ffffffffffffffff8111156105dc576105dc610b5c565b604051908082528060200260200182016040528015610605578160200160208202803683370190505b509050848160008151811061061c5761061c610f48565b60200260200101818152505060005b86518110156106895786818151811061064657610646610f48565b60200260200101518282600161065c9190610feb565b8151811061066c5761066c610f48565b60209081029190910101528061068181611017565b91505061062b565b506106948482610745565b6106d35760405162461bcd60e51b815260206004820152601060248201526f24b73b30b634b2103d3590383937b7b360811b6044820152606401610151565b60008a6040516020016106e69190611030565b604051602081830303815290604052805190602001209050807fea460d0e6af42d22bea89b8a314613bfba722c0ec33d3de01791e6ce721ca9e78760405161073091815260200190565b60405180910390a25050505050505050505050565b600154604051630bd205a960e41b81526000916001600160a01b03169063bd205a90906107789085908790600401611043565b602060405180830381865afa158015610795573d6000803e3d6000fd5b505050506040513d601f19601f820116820180604052508101906107b9919061109a565b90505b92915050565b6107ca61083b565b6001600160a01b03811661082f5760405162461bcd60e51b815260206004820152602660248201527f4f776e61626c653a206e6577206f776e657220697320746865207a65726f206160448201526564647265737360d01b6064820152608401610151565b61083881610895565b50565b6000546001600160a01b031633146100e15760405162461bcd60e51b815260206004820181905260248201527f4f776e61626c653a2063616c6c6572206973206e6f7420746865206f776e65726044820152606401610151565b600080546001600160a01b038381166001600160a01b0319831681178455604051919092169283917f8be0079c531659141344cd1fd0a4f28419497f9722a3daafe3b4186f6b6457e09190a35050565b60008060006108f48585610909565b915091506109018161094e565b509392505050565b600080825160410361093f5760208301516040840151606085015160001a61093387828585610a98565b94509450505050610947565b506000905060025b9250929050565b6000816004811115610962576109626110c3565b0361096a5750565b600181600481111561097e5761097e6110c3565b036109cb5760405162461bcd60e51b815260206004820152601860248201527f45434453413a20696e76616c6964207369676e617475726500000000000000006044820152606401610151565b60028160048111156109df576109df6110c3565b03610a2c5760405162461bcd60e51b815260206004820152601f60248201527f45434453413a20696e76616c6964207369676e6174757265206c656e677468006044820152606401610151565b6003816004811115610a4057610a406110c3565b036108385760405162461bcd60e51b815260206004820152602260248201527f45434453413a20696e76616c6964207369676e6174757265202773272076616c604482015261756560f01b6064820152608401610151565b6000807f7fffffffffffffffffffffffffffffff5d576e7357a4501ddfe92f46681b20a0831115610acf5750600090506003610b53565b6040805160008082526020820180845289905260ff881692820192909252606081018690526080810185905260019060a0016020604051602081039080840390855afa158015610b23573d6000803e3d6000fd5b5050604051601f1901519150506001600160a01b038116610b4c57600060019250925050610b53565b9150600090505b94509492505050565b634e487b7160e01b600052604160045260246000fd5b604051601f8201601f1916810167ffffffffffffffff81118282101715610b9b57610b9b610b5c565b604052919050565b600082601f830112610bb457600080fd5b813567ffffffffffffffff811115610bce57610bce610b5c565b610be1601f8201601f1916602001610b72565b818152846020838601011115610bf657600080fd5b816020850160208301376000918101602001919091529392505050565b600067ffffffffffffffff821115610c2d57610c2d610b5c565b5060051b60200190565b80356001600160a01b0381168114610c4e57600080fd5b919050565b600082601f830112610c6457600080fd5b81356020610c79610c7483610c13565b610b72565b82815260059290921b84018101918181019086841115610c9857600080fd5b8286015b84811015610cba57610cad81610c37565b8352918301918301610c9c565b509695505050505050565b600082601f830112610cd657600080fd5b81356020610ce6610c7483610c13565b82815260059290921b84018101918181019086841115610d0557600080fd5b8286015b84811015610cba57803567ffffffffffffffff811115610d295760008081fd5b610d378986838b0101610ba3565b845250918301918301610d09565b600082601f830112610d5657600080fd5b81356020610d66610c7483610c13565b82815260059290921b84018101918181019086841115610d8557600080fd5b8286015b84811015610cba5780358352918301918301610d89565b600080600080600080600060e0888a031215610dbb57600080fd5b873567ffffffffffffffff80821115610dd357600080fd5b610ddf8b838c01610ba3565b985060208a0135915080821115610df557600080fd5b610e018b838c01610c53565b975060408a0135915080821115610e1757600080fd5b610e238b838c01610cc5565b965060608a0135915080821115610e3957600080fd5b610e458b838c01610c53565b955060808a0135915080821115610e5b57600080fd5b610e678b838c01610d45565b945060a08a0135935060c08a0135915080821115610e8457600080fd5b50610e918a828b01610ba3565b91505092959891949750929550565b60008060408385031215610eb357600080fd5b823567ffffffffffffffff80821115610ecb57600080fd5b610ed786838701610ba3565b93506020850135915080821115610eed57600080fd5b50610efa85828601610d45565b9150509250929050565b600060208284031215610f1657600080fd5b6107b982610c37565b634e487b7160e01b600052601160045260246000fd5b818103818111156107bc576107bc610f1f565b634e487b7160e01b600052603260045260246000fd5b6000815180845260005b81811015610f8457602081850181015186830182015201610f68565b506000602082860101526020601f19601f83011685010191505092915050565b60408152601c60408201527f53756d6d612070726f6f66206f6620736f6c76656e637920666f72200000000060608201526080602082015260006107b96080830184610f5e565b808201808211156107bc576107bc610f1f565b60006020828403121561101057600080fd5b5051919050565b60006001820161102957611029610f1f565b5060010190565b6020815260006107b96020830184610f5e565b604080825283519082018190526000906020906060840190828701845b8281101561107c57815184529284019290840190600101611060565b505050838103828501526110908186610f5e565b9695505050505050565b6000602082840312156110ac57600080fd5b815180151581146110bc57600080fd5b9392505050565b634e487b7160e01b600052602160045260246000fdfea26469706673582212209a221b509b2b41e86ffdd4fd5137891e0cfeb46e5917ddbb7ba5d173b2b56b4964736f6c63430008120033",
  "linkReferences": {},
  "deployedLinkReferences": {}
}