{"_format":"hh-sol-artifact-1","contractName":"Summa","sourceName":"src/Summa.sol","abi":[{"inputs":[{"internalType":"contract IVerifier","name":"_verifier","type":"address"}],"stateMutability":"nonpayable","type":"constructor"},{"anonymous":false,"inputs":[{"indexed":false,"internalType":"address[]","name":"cexAddresses","type":"address[]"}],"name":"ExchangeAddressesSubmitted","type":"event"},{"anonymous":false,"inputs":[{"indexed":true,"internalType":"address","name":"previousOwner","type":"address"},{"indexed":true,"internalType":"address","name":"newOwner","type":"address"}],"name":"OwnershipTransferred","type":"event"},{"anonymous":false,"inputs":[{"indexed":true,"internalType":"uint256","name":"mstRoot","type":"uint256"}],"name":"ProofOfSolvencySubmitted","type":"event"},{"inputs":[{"internalType":"uint256","name":"","type":"uint256"}],"name":"cexAddresses","outputs":[{"internalType":"address","name":"","type":"address"}],"stateMutability":"view","type":"function"},{"inputs":[],"name":"owner","outputs":[{"internalType":"address","name":"","type":"address"}],"stateMutability":"view","type":"function"},{"inputs":[],"name":"renounceOwnership","outputs":[],"stateMutability":"nonpayable","type":"function"},{"inputs":[{"internalType":"address[]","name":"_cexAddresses","type":"address[]"},{"internalType":"bytes[]","name":"cexSignatures","type":"bytes[]"},{"internalType":"string","name":"message","type":"string"}],"name":"submitProofOfAccountOwnership","outputs":[],"stateMutability":"nonpayable","type":"function"},{"inputs":[{"internalType":"address[]","name":"erc20ContractAddresses","type":"address[]"},{"internalType":"uint256[]","name":"assetSums","type":"uint256[]"},{"internalType":"uint256","name":"mstRoot","type":"uint256"},{"internalType":"bytes","name":"proof","type":"bytes"}],"name":"submitProofOfSolvency","outputs":[],"stateMutability":"nonpayable","type":"function"},{"inputs":[{"internalType":"address","name":"newOwner","type":"address"}],"name":"transferOwnership","outputs":[],"stateMutability":"nonpayable","type":"function"},{"inputs":[{"internalType":"bytes","name":"proof","type":"bytes"},{"internalType":"uint256[]","name":"publicInputs","type":"uint256[]"}],"name":"verifyZkProof","outputs":[{"internalType":"bool","name":"","type":"bool"}],"stateMutability":"view","type":"function"}],"bytecode":"0x60a060405234801561001057600080fd5b5060405161146638038061146683398101604081905261002f91610099565b61003833610049565b6001600160a01b03166080526100c9565b600080546001600160a01b038381166001600160a01b0319831681178455604051919092169283917f8be0079c531659141344cd1fd0a4f28419497f9722a3daafe3b4186f6b6457e09190a35050565b6000602082840312156100ab57600080fd5b81516001600160a01b03811681146100c257600080fd5b9392505050565b6080516113826100e460003960006104c001526113826000f3fe608060405234801561001057600080fd5b506004361061007d5760003560e01c80638da5cb5b1161005b5780638da5cb5b146100cf578063e691ad33146100e0578063ed18348f14610103578063f2fde38b1461011657600080fd5b806312b91181146100825780636a5650e114610097578063715018a6146100c7575b600080fd5b610095610090366004610ef7565b610129565b005b6100aa6100a5366004610fee565b610468565b6040516001600160a01b0390911681526020015b60405180910390f35b610095610492565b6000546001600160a01b03166100aa565b6100f36100ee366004611062565b6104a6565b60405190151581526020016100be565b6100956101113660046110c6565b610541565b610095610124366004611158565b6109f4565b8151835114801561013b575060008351115b6101a05760405162461bcd60e51b815260206004820152602b60248201527f4345582061646472657373657320616e64207369676e61747572657320636f7560448201526a0dce840dad2e6dac2e8c6d60ab1b60648201526084015b60405180910390fd5b60005b83518110156103cb5760015481106102095760018482815181106101c9576101c9611173565b60209081029190910181015182546001810184556000938452919092200180546001600160a01b0319166001600160a01b039092169190911790556102ba565b6001818154811061021c5761021c611173565b60009182526020909120015484516001600160a01b039091169085908390811061024857610248611173565b60200260200101516001600160a01b0316146102ba5783818151811061027057610270611173565b60200260200101516001828154811061028b5761028b611173565b9060005260206000200160006101000a8154816001600160a01b0302191690836001600160a01b031602179055505b600061033c8483815181106102d1576102d1611173565b6020026020010151610336856040516020016102ed91906111cf565b604051602081830303815290604052805190602001207f19457468657265756d205369676e6564204d6573736167653a0a3332000000006000908152601c91909152603c902090565b90610a6d565b9050806001600160a01b031685838151811061035a5761035a611173565b60200260200101516001600160a01b0316146103b85760405162461bcd60e51b815260206004820152601e60248201527f496e76616c6964207369676e657220666f7220455448206164647265737300006044820152606401610197565b50806103c3816111f8565b9150506101a3565b506001548351101561042b5782515b6001548110156104295760018054806103f5576103f5611211565b600082815260209020810160001990810180546001600160a01b031916905501905580610421816111f8565b9150506103da565b505b7f98eb3798cf76f91b917cbd9b06e682e42d54899d45623bbb3b81f213d58a9bf0600160405161045b9190611227565b60405180910390a1505050565b6001818154811061047857600080fd5b6000918252602090912001546001600160a01b0316905081565b61049a610a91565b6104a46000610aeb565b565b604051630bd205a960e41b81526000906001600160a01b037f0000000000000000000000000000000000000000000000000000000000000000169063bd205a90906104f79085908790600401611277565b602060405180830381865afa158015610514573d6000803e3d6000fd5b505050506040513d601f19601f8201168201806040525081019061053891906112ce565b90505b92915050565b6001835161054f91906112f7565b845114801561055f575060008451115b6105bf5760405162461bcd60e51b815260206004820152602b60248201527f45524332302061646472657373657320616e642062616c616e63657320636f7560448201526a0dce840dad2e6dac2e8c6d60ab1b6064820152608401610197565b600080855167ffffffffffffffff8111156105dc576105dc610d8e565b604051908082528060200260200182016040528015610605578160200160208202803683370190505b50905060005b600154811015610753576001818154811061062857610628611173565b600091825260209091200154610648906001600160a01b0316318461130a565b925060005b87518110156107405787818151811061066857610668611173565b60200260200101516001600160a01b03166370a082316001848154811061069157610691611173565b60009182526020909120015460405160e083901b6001600160e01b03191681526001600160a01b039091166004820152602401602060405180830381865afa1580156106e1573d6000803e3d6000fd5b505050506040513d601f19601f82011682018060405250810190610705919061131d565b83828151811061071757610717611173565b6020026020010181815161072b919061130a565b90525080610738816111f8565b91505061064d565b508061074b816111f8565b91505061060b565b508460008151811061076757610767611173565b60200260200101518210156107d95760405162461bcd60e51b815260206004820152603260248201527f41637475616c204554482062616c616e6365206973206c657373207468616e206044820152717468652070726f76656e2062616c616e636560701b6064820152608401610197565b60005b86518110156108a057856107f182600161130a565b8151811061080157610801611173565b602002602001015182828151811061081b5761081b611173565b6020026020010151101561088e5760405162461bcd60e51b815260206004820152603460248201527f41637475616c2045524332302062616c616e6365206973206c657373207468616044820152736e207468652070726f76656e2062616c616e636560601b6064820152608401610197565b80610898816111f8565b9150506107dc565b506000855160016108b1919061130a565b67ffffffffffffffff8111156108c9576108c9610d8e565b6040519080825280602002602001820160405280156108f2578160200160208202803683370190505b509050848160008151811061090957610909611173565b60200260200101818152505060005b86518110156109765786818151811061093357610933611173565b602002602001015182826001610949919061130a565b8151811061095957610959611173565b60209081029190910101528061096e816111f8565b915050610918565b5061098184826104a6565b6109c05760405162461bcd60e51b815260206004820152601060248201526f24b73b30b634b2103d3590383937b7b360811b6044820152606401610197565b60405185907f08367c9e7de6aba412334c7e8a02be4c57a63f268945497c9d693772c7f3969390600090a250505050505050565b6109fc610a91565b6001600160a01b038116610a615760405162461bcd60e51b815260206004820152602660248201527f4f776e61626c653a206e6577206f776e657220697320746865207a65726f206160448201526564647265737360d01b6064820152608401610197565b610a6a81610aeb565b50565b6000806000610a7c8585610b3b565b91509150610a8981610b80565b509392505050565b6000546001600160a01b031633146104a45760405162461bcd60e51b815260206004820181905260248201527f4f776e61626c653a2063616c6c6572206973206e6f7420746865206f776e65726044820152606401610197565b600080546001600160a01b038381166001600160a01b0319831681178455604051919092169283917f8be0079c531659141344cd1fd0a4f28419497f9722a3daafe3b4186f6b6457e09190a35050565b6000808251604103610b715760208301516040840151606085015160001a610b6587828585610cca565b94509450505050610b79565b506000905060025b9250929050565b6000816004811115610b9457610b94611336565b03610b9c5750565b6001816004811115610bb057610bb0611336565b03610bfd5760405162461bcd60e51b815260206004820152601860248201527f45434453413a20696e76616c6964207369676e617475726500000000000000006044820152606401610197565b6002816004811115610c1157610c11611336565b03610c5e5760405162461bcd60e51b815260206004820152601f60248201527f45434453413a20696e76616c6964207369676e6174757265206c656e677468006044820152606401610197565b6003816004811115610c7257610c72611336565b03610a6a5760405162461bcd60e51b815260206004820152602260248201527f45434453413a20696e76616c6964207369676e6174757265202773272076616c604482015261756560f01b6064820152608401610197565b6000807f7fffffffffffffffffffffffffffffff5d576e7357a4501ddfe92f46681b20a0831115610d015750600090506003610d85565b6040805160008082526020820180845289905260ff881692820192909252606081018690526080810185905260019060a0016020604051602081039080840390855afa158015610d55573d6000803e3d6000fd5b5050604051601f1901519150506001600160a01b038116610d7e57600060019250925050610d85565b9150600090505b94509492505050565b634e487b7160e01b600052604160045260246000fd5b604051601f8201601f1916810167ffffffffffffffff81118282101715610dcd57610dcd610d8e565b604052919050565b600067ffffffffffffffff821115610def57610def610d8e565b5060051b60200190565b80356001600160a01b0381168114610e1057600080fd5b919050565b600082601f830112610e2657600080fd5b81356020610e3b610e3683610dd5565b610da4565b82815260059290921b84018101918181019086841115610e5a57600080fd5b8286015b84811015610e7c57610e6f81610df9565b8352918301918301610e5e565b509695505050505050565b600082601f830112610e9857600080fd5b813567ffffffffffffffff811115610eb257610eb2610d8e565b610ec5601f8201601f1916602001610da4565b818152846020838601011115610eda57600080fd5b816020850160208301376000918101602001919091529392505050565b600080600060608486031215610f0c57600080fd5b833567ffffffffffffffff80821115610f2457600080fd5b610f3087838801610e15565b9450602091508186013581811115610f4757600080fd5b8601601f81018813610f5857600080fd5b8035610f66610e3682610dd5565b81815260059190911b8201840190848101908a831115610f8557600080fd5b8584015b83811015610fbd57803586811115610fa15760008081fd5b610faf8d8983890101610e87565b845250918601918601610f89565b5096505050506040860135915080821115610fd757600080fd5b50610fe486828701610e87565b9150509250925092565b60006020828403121561100057600080fd5b5035919050565b600082601f83011261101857600080fd5b81356020611028610e3683610dd5565b82815260059290921b8401810191818101908684111561104757600080fd5b8286015b84811015610e7c578035835291830191830161104b565b6000806040838503121561107557600080fd5b823567ffffffffffffffff8082111561108d57600080fd5b61109986838701610e87565b935060208501359150808211156110af57600080fd5b506110bc85828601611007565b9150509250929050565b600080600080608085870312156110dc57600080fd5b843567ffffffffffffffff808211156110f457600080fd5b61110088838901610e15565b9550602087013591508082111561111657600080fd5b61112288838901611007565b945060408701359350606087013591508082111561113f57600080fd5b5061114c87828801610e87565b91505092959194509250565b60006020828403121561116a57600080fd5b61053882610df9565b634e487b7160e01b600052603260045260246000fd5b6000815180845260005b818110156111af57602081850181015186830182015201611193565b506000602082860101526020601f19601f83011685010191505092915050565b6020815260006105386020830184611189565b634e487b7160e01b600052601160045260246000fd5b60006001820161120a5761120a6111e2565b5060010190565b634e487b7160e01b600052603160045260246000fd5b6020808252825482820181905260008481528281209092916040850190845b8181101561126b5783546001600160a01b031683526001938401939285019201611246565b50909695505050505050565b604080825283519082018190526000906020906060840190828701845b828110156112b057815184529284019290840190600101611294565b505050838103828501526112c48186611189565b9695505050505050565b6000602082840312156112e057600080fd5b815180151581146112f057600080fd5b9392505050565b8181038181111561053b5761053b6111e2565b8082018082111561053b5761053b6111e2565b60006020828403121561132f57600080fd5b5051919050565b634e487b7160e01b600052602160045260246000fdfea2646970667358221220e63231e04770b926abd63bea5c14fc2bfc517ab85aab9a32ab20483b97bb6ce264736f6c63430008120033","linkReferences":{},"deployedLinkReferences":{}}